{
  "address": "0x45bf91fB9A17468ce469aEaB0AFA2d78a7771872",
  "abi": [
    {
      "inputs": [],
      "name": "Empty",
      "type": "error"
    },
    {
      "anonymous": false,
      "inputs": [
        {
          "indexed": true,
          "internalType": "string",
          "name": "newBylawsUrl",
          "type": "string"
        },
        {
          "indexed": true,
          "internalType": "string",
          "name": "newBylawsHash",
          "type": "string"
        }
      ],
      "name": "BylawsChanged",
      "type": "event"
    },
    {
      "anonymous": false,
      "inputs": [
        {
          "indexed": true,
          "internalType": "uint256",
          "name": "proposalId",
          "type": "uint256"
        },
        {
          "indexed": true,
          "internalType": "address",
          "name": "proposer",
          "type": "address"
        },
        {
          "indexed": false,
          "internalType": "address[]",
          "name": "targets",
          "type": "address[]"
        },
        {
          "indexed": false,
          "internalType": "uint256[]",
          "name": "values",
          "type": "uint256[]"
        },
        {
          "indexed": false,
          "internalType": "string[]",
          "name": "signatures",
          "type": "string[]"
        },
        {
          "indexed": false,
          "internalType": "bytes[]",
          "name": "calldatas",
          "type": "bytes[]"
        },
        {
          "indexed": false,
          "internalType": "uint256",
          "name": "startBlock",
          "type": "uint256"
        },
        {
          "indexed": false,
          "internalType": "uint256",
          "name": "endBlock",
          "type": "uint256"
        },
        {
          "indexed": false,
          "internalType": "string",
          "name": "description",
          "type": "string"
        },
        {
          "indexed": true,
          "internalType": "enum GovernorUpgradeable.ProposalCategory",
          "name": "category",
          "type": "uint8"
        }
      ],
      "name": "DAOProposalCreated",
      "type": "event"
    },
    {
      "anonymous": false,
      "inputs": [
        {
          "indexed": true,
          "internalType": "uint256",
          "name": "proposalId",
          "type": "uint256"
        },
        {
          "indexed": true,
          "internalType": "address",
          "name": "proposer",
          "type": "address"
        },
        {
          "indexed": false,
          "internalType": "address[]",
          "name": "targets",
          "type": "address[]"
        },
        {
          "indexed": false,
          "internalType": "uint256[]",
          "name": "values",
          "type": "uint256[]"
        },
        {
          "indexed": false,
          "internalType": "string[]",
          "name": "signatures",
          "type": "string[]"
        },
        {
          "indexed": false,
          "internalType": "bytes[]",
          "name": "calldatas",
          "type": "bytes[]"
        },
        {
          "indexed": false,
          "internalType": "uint256",
          "name": "startBlock",
          "type": "uint256"
        },
        {
          "indexed": false,
          "internalType": "uint256",
          "name": "endBlock",
          "type": "uint256"
        },
        {
          "indexed": false,
          "internalType": "string",
          "name": "description",
          "type": "string"
        }
      ],
      "name": "ExtraOrdinaryAssemblyRequested",
      "type": "event"
    },
    {
      "anonymous": false,
      "inputs": [
        {
          "indexed": false,
          "internalType": "uint8",
          "name": "version",
          "type": "uint8"
        }
      ],
      "name": "Initialized",
      "type": "event"
    },
    {
      "anonymous": false,
      "inputs": [
        {
          "indexed": false,
          "internalType": "uint256",
          "name": "timeslot",
          "type": "uint256"
        }
      ],
      "name": "NewTimeslotSet",
      "type": "event"
    },
    {
      "anonymous": false,
      "inputs": [
        {
          "indexed": false,
          "internalType": "uint256",
          "name": "proposalId",
          "type": "uint256"
        }
      ],
      "name": "ProposalCanceled",
      "type": "event"
    },
    {
      "anonymous": false,
      "inputs": [
        {
          "indexed": false,
          "internalType": "uint256",
          "name": "proposalId",
          "type": "uint256"
        },
        {
          "indexed": false,
          "internalType": "address",
          "name": "proposer",
          "type": "address"
        },
        {
          "indexed": false,
          "internalType": "address[]",
          "name": "targets",
          "type": "address[]"
        },
        {
          "indexed": false,
          "internalType": "uint256[]",
          "name": "values",
          "type": "uint256[]"
        },
        {
          "indexed": false,
          "internalType": "string[]",
          "name": "signatures",
          "type": "string[]"
        },
        {
          "indexed": false,
          "internalType": "bytes[]",
          "name": "calldatas",
          "type": "bytes[]"
        },
        {
          "indexed": false,
          "internalType": "uint256",
          "name": "startBlock",
          "type": "uint256"
        },
        {
          "indexed": false,
          "internalType": "uint256",
          "name": "endBlock",
          "type": "uint256"
        },
        {
          "indexed": false,
          "internalType": "string",
          "name": "description",
          "type": "string"
        }
      ],
      "name": "ProposalCreated",
      "type": "event"
    },
    {
      "anonymous": false,
      "inputs": [
        {
          "indexed": false,
          "internalType": "uint256",
          "name": "proposalId",
          "type": "uint256"
        }
      ],
      "name": "ProposalExecuted",
      "type": "event"
    },
    {
      "anonymous": false,
      "inputs": [
        {
          "indexed": false,
          "internalType": "uint256",
          "name": "proposalId",
          "type": "uint256"
        },
        {
          "indexed": false,
          "internalType": "uint256",
          "name": "eta",
          "type": "uint256"
        }
      ],
      "name": "ProposalQueued",
      "type": "event"
    },
    {
      "anonymous": false,
      "inputs": [
        {
          "indexed": false,
          "internalType": "uint256",
          "name": "proposalId",
          "type": "uint256"
        },
        {
          "indexed": false,
          "internalType": "uint64",
          "name": "oldTime",
          "type": "uint64"
        },
        {
          "indexed": false,
          "internalType": "uint64",
          "name": "newTime",
          "type": "uint64"
        }
      ],
      "name": "ProposalVotingTimeChanged",
      "type": "event"
    },
    {
      "anonymous": false,
      "inputs": [
        {
          "indexed": false,
          "internalType": "uint256",
          "name": "oldQuorumNumerator",
          "type": "uint256"
        },
        {
          "indexed": false,
          "internalType": "uint256",
          "name": "newQuorumNumerator",
          "type": "uint256"
        }
      ],
      "name": "QuorumNumeratorUpdated",
      "type": "event"
    },
    {
      "anonymous": false,
      "inputs": [
        {
          "indexed": false,
          "internalType": "address",
          "name": "oldTimelock",
          "type": "address"
        },
        {
          "indexed": false,
          "internalType": "address",
          "name": "newTimelock",
          "type": "address"
        }
      ],
      "name": "TimelockChange",
      "type": "event"
    },
    {
      "anonymous": false,
      "inputs": [
        {
          "indexed": true,
          "internalType": "address",
          "name": "voter",
          "type": "address"
        },
        {
          "indexed": false,
          "internalType": "uint256",
          "name": "proposalId",
          "type": "uint256"
        },
        {
          "indexed": false,
          "internalType": "uint8",
          "name": "support",
          "type": "uint8"
        },
        {
          "indexed": false,
          "internalType": "uint256",
          "name": "weight",
          "type": "uint256"
        },
        {
          "indexed": false,
          "internalType": "string",
          "name": "reason",
          "type": "string"
        }
      ],
      "name": "VoteCast",
      "type": "event"
    },
    {
      "anonymous": false,
      "inputs": [
        {
          "indexed": true,
          "internalType": "address",
          "name": "voter",
          "type": "address"
        },
        {
          "indexed": false,
          "internalType": "uint256",
          "name": "proposalId",
          "type": "uint256"
        },
        {
          "indexed": false,
          "internalType": "uint8",
          "name": "support",
          "type": "uint8"
        },
        {
          "indexed": false,
          "internalType": "uint256",
          "name": "weight",
          "type": "uint256"
        },
        {
          "indexed": false,
          "internalType": "string",
          "name": "reason",
          "type": "string"
        },
        {
          "indexed": false,
          "internalType": "bytes",
          "name": "params",
          "type": "bytes"
        }
      ],
      "name": "VoteCastWithParams",
      "type": "event"
    },
    {
      "anonymous": false,
      "inputs": [
        {
          "indexed": false,
          "internalType": "uint256",
          "name": "blockNumber",
          "type": "uint256"
        },
        {
          "indexed": false,
          "internalType": "string",
          "name": "reason",
          "type": "string"
        }
      ],
      "name": "VotingSlotCancelled",
      "type": "event"
    },
    {
      "inputs": [],
      "name": "BALLOT_TYPEHASH",
      "outputs": [
        {
          "internalType": "bytes32",
          "name": "",
          "type": "bytes32"
        }
      ],
      "stateMutability": "view",
      "type": "function"
    },
    {
      "inputs": [],
      "name": "COUNTING_MODE",
      "outputs": [
        {
          "internalType": "string",
          "name": "",
          "type": "string"
        }
      ],
      "stateMutability": "pure",
      "type": "function"
    },
    {
      "inputs": [],
      "name": "EXTENDED_BALLOT_TYPEHASH",
      "outputs": [
        {
          "internalType": "bytes32",
          "name": "",
          "type": "bytes32"
        }
      ],
      "stateMutability": "view",
      "type": "function"
    },
    {
      "inputs": [],
      "name": "associationDissolutionQuorumNominator",
      "outputs": [
        {
          "internalType": "uint256",
          "name": "",
          "type": "uint256"
        }
      ],
      "stateMutability": "view",
      "type": "function"
    },
    {
      "inputs": [],
      "name": "bylawsHash",
      "outputs": [
        {
          "internalType": "string",
          "name": "",
          "type": "string"
        }
      ],
      "stateMutability": "view",
      "type": "function"
    },
    {
      "inputs": [],
      "name": "bylawsUrl",
      "outputs": [
        {
          "internalType": "string",
          "name": "",
          "type": "string"
        }
      ],
      "stateMutability": "view",
      "type": "function"
    },
    {
      "inputs": [
        {
          "internalType": "uint256",
          "name": "blockNumber",
          "type": "uint256"
        },
        {
          "internalType": "string",
          "name": "reason",
          "type": "string"
        }
      ],
      "name": "cancelVotingSlot",
      "outputs": [],
      "stateMutability": "nonpayable",
      "type": "function"
    },
    {
      "inputs": [
        {
          "internalType": "uint256",
          "name": "proposalId",
          "type": "uint256"
        },
        {
          "internalType": "uint8",
          "name": "support",
          "type": "uint8"
        }
      ],
      "name": "castVote",
      "outputs": [
        {
          "internalType": "uint256",
          "name": "",
          "type": "uint256"
        }
      ],
      "stateMutability": "nonpayable",
      "type": "function"
    },
    {
      "inputs": [
        {
          "internalType": "uint256",
          "name": "proposalId",
          "type": "uint256"
        },
        {
          "internalType": "uint8",
          "name": "support",
          "type": "uint8"
        },
        {
          "internalType": "uint8",
          "name": "v",
          "type": "uint8"
        },
        {
          "internalType": "bytes32",
          "name": "r",
          "type": "bytes32"
        },
        {
          "internalType": "bytes32",
          "name": "s",
          "type": "bytes32"
        }
      ],
      "name": "castVoteBySig",
      "outputs": [
        {
          "internalType": "uint256",
          "name": "",
          "type": "uint256"
        }
      ],
      "stateMutability": "nonpayable",
      "type": "function"
    },
    {
      "inputs": [
        {
          "internalType": "uint256",
          "name": "proposalId",
          "type": "uint256"
        },
        {
          "internalType": "uint8",
          "name": "support",
          "type": "uint8"
        },
        {
          "internalType": "string",
          "name": "reason",
          "type": "string"
        }
      ],
      "name": "castVoteWithReason",
      "outputs": [
        {
          "internalType": "uint256",
          "name": "",
          "type": "uint256"
        }
      ],
      "stateMutability": "nonpayable",
      "type": "function"
    },
    {
      "inputs": [
        {
          "internalType": "uint256",
          "name": "proposalId",
          "type": "uint256"
        },
        {
          "internalType": "uint8",
          "name": "support",
          "type": "uint8"
        },
        {
          "internalType": "string",
          "name": "reason",
          "type": "string"
        },
        {
          "internalType": "bytes",
          "name": "params",
          "type": "bytes"
        }
      ],
      "name": "castVoteWithReasonAndParams",
      "outputs": [
        {
          "internalType": "uint256",
          "name": "",
          "type": "uint256"
        }
      ],
      "stateMutability": "nonpayable",
      "type": "function"
    },
    {
      "inputs": [
        {
          "internalType": "uint256",
          "name": "proposalId",
          "type": "uint256"
        },
        {
          "internalType": "uint8",
          "name": "support",
          "type": "uint8"
        },
        {
          "internalType": "string",
          "name": "reason",
          "type": "string"
        },
        {
          "internalType": "bytes",
          "name": "params",
          "type": "bytes"
        },
        {
          "internalType": "uint8",
          "name": "v",
          "type": "uint8"
        },
        {
          "internalType": "bytes32",
          "name": "r",
          "type": "bytes32"
        },
        {
          "internalType": "bytes32",
          "name": "s",
          "type": "bytes32"
        }
      ],
      "name": "castVoteWithReasonAndParamsBySig",
      "outputs": [
        {
          "internalType": "uint256",
          "name": "",
          "type": "uint256"
        }
      ],
      "stateMutability": "nonpayable",
      "type": "function"
    },
    {
      "inputs": [],
      "name": "daoActive",
      "outputs": [
        {
          "internalType": "bool",
          "name": "",
          "type": "bool"
        }
      ],
      "stateMutability": "view",
      "type": "function"
    },
    {
      "inputs": [],
      "name": "dissolveDAO",
      "outputs": [],
      "stateMutability": "nonpayable",
      "type": "function"
    },
    {
      "inputs": [
        {
          "internalType": "address[]",
          "name": "targets",
          "type": "address[]"
        },
        {
          "internalType": "uint256[]",
          "name": "values",
          "type": "uint256[]"
        },
        {
          "internalType": "bytes[]",
          "name": "calldatas",
          "type": "bytes[]"
        },
        {
          "internalType": "bytes32",
          "name": "descriptionHash",
          "type": "bytes32"
        }
      ],
      "name": "execute",
      "outputs": [
        {
          "internalType": "uint256",
          "name": "",
          "type": "uint256"
        }
      ],
      "stateMutability": "payable",
      "type": "function"
    },
    {
      "inputs": [
        {
          "internalType": "uint256",
          "name": "",
          "type": "uint256"
        }
      ],
      "name": "extraOrdinaryAssemblyProposals",
      "outputs": [
        {
          "internalType": "uint256",
          "name": "",
          "type": "uint256"
        }
      ],
      "stateMutability": "view",
      "type": "function"
    },
    {
      "inputs": [],
      "name": "extraOrdinaryAssemblyVotingPeriod",
      "outputs": [
        {
          "internalType": "uint64",
          "name": "",
          "type": "uint64"
        }
      ],
      "stateMutability": "view",
      "type": "function"
    },
    {
      "inputs": [],
      "name": "extraordinaryVoteQuorumNominator",
      "outputs": [
        {
          "internalType": "uint256",
          "name": "",
          "type": "uint256"
        }
      ],
      "stateMutability": "view",
      "type": "function"
    },
    {
      "inputs": [],
      "name": "getExtraOrdinaryProposalsLength",
      "outputs": [
        {
          "internalType": "uint256",
          "name": "",
          "type": "uint256"
        }
      ],
      "stateMutability": "view",
      "type": "function"
    },
    {
      "inputs": [],
      "name": "getMinDelay",
      "outputs": [
        {
          "internalType": "uint256",
          "name": "duration",
          "type": "uint256"
        }
      ],
      "stateMutability": "view",
      "type": "function"
    },
    {
      "inputs": [
        {
          "internalType": "uint256",
          "name": "slotNumber",
          "type": "uint256"
        }
      ],
      "name": "getNumberOfProposalsInVotingSlot",
      "outputs": [
        {
          "internalType": "uint256",
          "name": "",
          "type": "uint256"
        }
      ],
      "stateMutability": "view",
      "type": "function"
    },
    {
      "inputs": [],
      "name": "getSlotsLength",
      "outputs": [
        {
          "internalType": "uint256",
          "name": "",
          "type": "uint256"
        }
      ],
      "stateMutability": "view",
      "type": "function"
    },
    {
      "inputs": [
        {
          "internalType": "address",
          "name": "account",
          "type": "address"
        },
        {
          "internalType": "uint256",
          "name": "blockNumber",
          "type": "uint256"
        }
      ],
      "name": "getVotes",
      "outputs": [
        {
          "internalType": "uint256",
          "name": "",
          "type": "uint256"
        }
      ],
      "stateMutability": "view",
      "type": "function"
    },
    {
      "inputs": [
        {
          "internalType": "address",
          "name": "account",
          "type": "address"
        },
        {
          "internalType": "uint256",
          "name": "blockNumber",
          "type": "uint256"
        },
        {
          "internalType": "bytes",
          "name": "params",
          "type": "bytes"
        }
      ],
      "name": "getVotesWithParams",
      "outputs": [
        {
          "internalType": "uint256",
          "name": "",
          "type": "uint256"
        }
      ],
      "stateMutability": "view",
      "type": "function"
    },
    {
      "inputs": [
        {
          "internalType": "uint256",
          "name": "proposalId",
          "type": "uint256"
        },
        {
          "internalType": "address",
          "name": "account",
          "type": "address"
        }
      ],
      "name": "hasVoted",
      "outputs": [
        {
          "internalType": "bool",
          "name": "",
          "type": "bool"
        }
      ],
      "stateMutability": "view",
      "type": "function"
    },
    {
      "inputs": [
        {
          "internalType": "address[]",
          "name": "targets",
          "type": "address[]"
        },
        {
          "internalType": "uint256[]",
          "name": "values",
          "type": "uint256[]"
        },
        {
          "internalType": "bytes[]",
          "name": "calldatas",
          "type": "bytes[]"
        },
        {
          "internalType": "bytes32",
          "name": "descriptionHash",
          "type": "bytes32"
        }
      ],
      "name": "hashProposal",
      "outputs": [
        {
          "internalType": "uint256",
          "name": "",
          "type": "uint256"
        }
      ],
      "stateMutability": "pure",
      "type": "function"
    },
    {
      "inputs": [
        {
          "internalType": "contract Membership",
          "name": "_membership",
          "type": "address"
        },
        {
          "internalType": "contract TimelockControllerUpgradeable",
          "name": "_timelock",
          "type": "address"
        },
        {
          "internalType": "string",
          "name": "bylawsHash",
          "type": "string"
        },
        {
          "internalType": "string",
          "name": "bylawsUrl",
          "type": "string"
        }
      ],
      "name": "initialize",
      "outputs": [],
      "stateMutability": "nonpayable",
      "type": "function"
    },
    {
      "inputs": [],
      "name": "name",
      "outputs": [
        {
          "internalType": "string",
          "name": "",
          "type": "string"
        }
      ],
      "stateMutability": "view",
      "type": "function"
    },
    {
      "inputs": [
        {
          "internalType": "uint256",
          "name": "proposalId",
          "type": "uint256"
        }
      ],
      "name": "proposalDeadline",
      "outputs": [
        {
          "internalType": "uint256",
          "name": "",
          "type": "uint256"
        }
      ],
      "stateMutability": "view",
      "type": "function"
    },
    {
      "inputs": [
        {
          "internalType": "uint256",
          "name": "proposalId",
          "type": "uint256"
        }
      ],
      "name": "proposalEta",
      "outputs": [
        {
          "internalType": "uint256",
          "name": "",
          "type": "uint256"
        }
      ],
      "stateMutability": "view",
      "type": "function"
    },
    {
      "inputs": [
        {
          "internalType": "uint256",
          "name": "proposalId",
          "type": "uint256"
        }
      ],
      "name": "proposalSnapshot",
      "outputs": [
        {
          "internalType": "uint256",
          "name": "",
          "type": "uint256"
        }
      ],
      "stateMutability": "view",
      "type": "function"
    },
    {
      "inputs": [],
      "name": "proposalThreshold",
      "outputs": [
        {
          "internalType": "uint256",
          "name": "",
          "type": "uint256"
        }
      ],
      "stateMutability": "pure",
      "type": "function"
    },
    {
      "inputs": [
        {
          "internalType": "uint256",
          "name": "proposalId",
          "type": "uint256"
        }
      ],
      "name": "proposalVotes",
      "outputs": [
        {
          "internalType": "uint256",
          "name": "againstVotes",
          "type": "uint256"
        },
        {
          "internalType": "uint256",
          "name": "forVotes",
          "type": "uint256"
        },
        {
          "internalType": "uint256",
          "name": "abstainVotes",
          "type": "uint256"
        }
      ],
      "stateMutability": "view",
      "type": "function"
    },
    {
      "inputs": [
        {
          "internalType": "address[]",
          "name": "targets",
          "type": "address[]"
        },
        {
          "internalType": "uint256[]",
          "name": "values",
          "type": "uint256[]"
        },
        {
          "internalType": "bytes[]",
          "name": "calldatas",
          "type": "bytes[]"
        },
        {
          "internalType": "string",
          "name": "description",
          "type": "string"
        }
      ],
      "name": "propose",
      "outputs": [
        {
          "internalType": "uint256",
          "name": "",
          "type": "uint256"
        }
      ],
      "stateMutability": "nonpayable",
      "type": "function"
    },
    {
      "inputs": [
        {
          "internalType": "address[]",
          "name": "targets",
          "type": "address[]"
        },
        {
          "internalType": "uint256[]",
          "name": "values",
          "type": "uint256[]"
        },
        {
          "internalType": "bytes[]",
          "name": "calldatas",
          "type": "bytes[]"
        },
        {
          "internalType": "bytes32",
          "name": "descriptionHash",
          "type": "bytes32"
        }
      ],
      "name": "queue",
      "outputs": [
        {
          "internalType": "uint256",
          "name": "",
          "type": "uint256"
        }
      ],
      "stateMutability": "nonpayable",
      "type": "function"
    },
    {
      "inputs": [
        {
          "internalType": "uint256",
          "name": "blockNumber",
          "type": "uint256"
        }
      ],
      "name": "quorum",
      "outputs": [
        {
          "internalType": "uint256",
          "name": "",
          "type": "uint256"
        }
      ],
      "stateMutability": "view",
      "type": "function"
    },
    {
      "inputs": [],
      "name": "quorumDenominator",
      "outputs": [
        {
          "internalType": "uint256",
          "name": "",
          "type": "uint256"
        }
      ],
      "stateMutability": "view",
      "type": "function"
    },
    {
      "inputs": [
        {
          "internalType": "uint256",
          "name": "blockNumber",
          "type": "uint256"
        }
      ],
      "name": "quorumNumerator",
      "outputs": [
        {
          "internalType": "uint256",
          "name": "",
          "type": "uint256"
        }
      ],
      "stateMutability": "view",
      "type": "function"
    },
    {
      "inputs": [],
      "name": "quorumNumerator",
      "outputs": [
        {
          "internalType": "uint256",
          "name": "",
          "type": "uint256"
        }
      ],
      "stateMutability": "view",
      "type": "function"
    },
    {
      "inputs": [
        {
          "internalType": "address",
          "name": "target",
          "type": "address"
        },
        {
          "internalType": "uint256",
          "name": "value",
          "type": "uint256"
        },
        {
          "internalType": "bytes",
          "name": "data",
          "type": "bytes"
        }
      ],
      "name": "relay",
      "outputs": [],
      "stateMutability": "payable",
      "type": "function"
    },
    {
      "inputs": [
        {
          "internalType": "uint256",
          "name": "newValue",
          "type": "uint256"
        }
      ],
      "name": "setAssociationDissolutionQuorumNominator",
      "outputs": [],
      "stateMutability": "nonpayable",
      "type": "function"
    },
    {
      "inputs": [
        {
          "internalType": "uint64",
          "name": "newExtraOrdinaryAssemblyVotingPeriod",
          "type": "uint64"
        }
      ],
      "name": "setExtraOrdinaryAssemblyVotingPeriod",
      "outputs": [],
      "stateMutability": "nonpayable",
      "type": "function"
    },
    {
      "inputs": [
        {
          "internalType": "uint256",
          "name": "newValue",
          "type": "uint256"
        }
      ],
      "name": "setExtraordinaryVoteQuorumNominator",
      "outputs": [],
      "stateMutability": "nonpayable",
      "type": "function"
    },
    {
      "inputs": [
        {
          "internalType": "string",
          "name": "newBylawsHash",
          "type": "string"
        },
        {
          "internalType": "string",
          "name": "newBylawsUrl",
          "type": "string"
        }
      ],
      "name": "setNewBylaws",
      "outputs": [],
      "stateMutability": "nonpayable",
      "type": "function"
    },
    {
      "inputs": [
        {
          "internalType": "uint256",
          "name": "newSlotCloseTime",
          "type": "uint256"
        }
      ],
      "name": "setSlotCloseTime",
      "outputs": [],
      "stateMutability": "nonpayable",
      "type": "function"
    },
    {
      "inputs": [
        {
          "internalType": "uint256",
          "name": "blockNumber",
          "type": "uint256"
        }
      ],
      "name": "setVotingSlot",
      "outputs": [
        {
          "internalType": "uint256",
          "name": "",
          "type": "uint256"
        }
      ],
      "stateMutability": "nonpayable",
      "type": "function"
    },
    {
      "inputs": [
        {
          "internalType": "uint64",
          "name": "newVotingSlotAnnouncementPeriod",
          "type": "uint64"
        }
      ],
      "name": "setVotingSlotAnnouncementPeriod",
      "outputs": [],
      "stateMutability": "nonpayable",
      "type": "function"
    },
    {
      "inputs": [],
      "name": "slotCloseTime",
      "outputs": [
        {
          "internalType": "uint256",
          "name": "",
          "type": "uint256"
        }
      ],
      "stateMutability": "view",
      "type": "function"
    },
    {
      "inputs": [
        {
          "internalType": "uint256",
          "name": "",
          "type": "uint256"
        }
      ],
      "name": "slots",
      "outputs": [
        {
          "internalType": "uint256",
          "name": "",
          "type": "uint256"
        }
      ],
      "stateMutability": "view",
      "type": "function"
    },
    {
      "inputs": [
        {
          "internalType": "uint256",
          "name": "proposalId",
          "type": "uint256"
        }
      ],
      "name": "state",
      "outputs": [
        {
          "internalType": "enum IGovernorUpgradeable.ProposalState",
          "name": "",
          "type": "uint8"
        }
      ],
      "stateMutability": "view",
      "type": "function"
    },
    {
      "inputs": [
        {
          "internalType": "bytes4",
          "name": "interfaceId",
          "type": "bytes4"
        }
      ],
      "name": "supportsInterface",
      "outputs": [
        {
          "internalType": "bool",
          "name": "",
          "type": "bool"
        }
      ],
      "stateMutability": "view",
      "type": "function"
    },
    {
      "inputs": [],
      "name": "timelock",
      "outputs": [
        {
          "internalType": "address",
          "name": "",
          "type": "address"
        }
      ],
      "stateMutability": "view",
      "type": "function"
    },
    {
      "inputs": [],
      "name": "token",
      "outputs": [
        {
          "internalType": "contract IVotesUpgradeable",
          "name": "",
          "type": "address"
        }
      ],
      "stateMutability": "view",
      "type": "function"
    },
    {
      "inputs": [
        {
          "internalType": "uint256",
          "name": "newQuorumNumerator",
          "type": "uint256"
        }
      ],
      "name": "updateQuorumNumerator",
      "outputs": [],
      "stateMutability": "nonpayable",
      "type": "function"
    },
    {
      "inputs": [
        {
          "internalType": "contract TimelockControllerUpgradeable",
          "name": "newTimelock",
          "type": "address"
        }
      ],
      "name": "updateTimelock",
      "outputs": [],
      "stateMutability": "nonpayable",
      "type": "function"
    },
    {
      "inputs": [],
      "name": "version",
      "outputs": [
        {
          "internalType": "string",
          "name": "",
          "type": "string"
        }
      ],
      "stateMutability": "view",
      "type": "function"
    },
    {
      "inputs": [],
      "name": "votingDelay",
      "outputs": [
        {
          "internalType": "uint256",
          "name": "",
          "type": "uint256"
        }
      ],
      "stateMutability": "pure",
      "type": "function"
    },
    {
      "inputs": [],
      "name": "votingPeriod",
      "outputs": [
        {
          "internalType": "uint256",
          "name": "",
          "type": "uint256"
        }
      ],
      "stateMutability": "pure",
      "type": "function"
    },
    {
      "inputs": [],
      "name": "votingSlotAnnouncementPeriod",
      "outputs": [
        {
          "internalType": "uint256",
          "name": "",
          "type": "uint256"
        }
      ],
      "stateMutability": "view",
      "type": "function"
    },
    {
      "inputs": [
        {
          "internalType": "uint256",
          "name": "",
          "type": "uint256"
        },
        {
          "internalType": "uint256",
          "name": "",
          "type": "uint256"
        }
      ],
      "name": "votingSlots",
      "outputs": [
        {
          "internalType": "uint256",
          "name": "",
          "type": "uint256"
        }
      ],
      "stateMutability": "view",
      "type": "function"
    },
    {
      "stateMutability": "payable",
      "type": "receive"
    }
  ],
  "transactionHash": "0xdebd9e8f0d08999e121688b514c90d68f75c4aff1a26bf1c51508ee3d87161cb",
  "args": [],
  "numDeployments": 1,
  "solcInputHash": "5e7ead6f489ba1541e29a5c0da5dc006",
  "bytecode": "0x608060405234801561001057600080fd5b506154cd806100206000396000f3fe6080604052600436106102ab5760003560e01c806301ffc9a71461031957806302a251a31461034e578063034201811461036d57806304e108dc1461038d57806305106e53146103ad57806306f3f9e6146103cd57806306fdde03146103ed5780630ff3dc011461040f57806312a26e5d1461043c578063160cbed71461045c5780631b2d17281461047c5780632016a0d2146104925780632656227d146104b25780632d63f693146104c55780632e559b99146104e55780632ee3e71d146104fa5780632fe3e26114610514578063387dd9e9146105485780633932abb1146105685780633bccf4fd1461057c5780633e4f49e61461059757806343859632146105c4578063496911bb1461060f578063527e098f1461062f578063544ffc9c1461064f57806354fd4d50146106a557806356781388146106ba5780635eacd3c6146106da5780635f398a14146106fa57806360c4247f1461071a5780637b3c71d31461073a5780637b9bf7941461075a5780637d5e81e21461076f57806381894d341461078f57806396537303146107a457806397c3d334146107c4578063990581d4146107d85780639a802a6d146107f8578063a3e857da14610818578063a7713a7014610850578063a890c91014610865578063aa10701a14610885578063ab58fb8e1461089a578063acabafb6146108ba578063aeb275c8146108da578063b58131b0146108ef578063c01f9e3714610903578063c28bc2fa14610923578063c59057e414610936578063d33219b414610956578063d87b33ec14610978578063dd4e2ba51461098f578063deaaa7cc146109d5578063df74874914610a09578063e041d6dc14610a20578063e12a6b7714610a37578063eb9019d414610a57578063f27a0c9214610a77578063f8ce560a14610a8c578063fc0c546a14610aac57600080fd5b3661031457306102b9610acd565b6001600160a01b0316146103125760405162461bcd60e51b815260206004820152601b60248201527a31b0b71037b7363c9031b0b63632b210313c9033b7bb32b93737b960291b60448201526064015b60405180910390fd5b005b600080fd5b34801561032557600080fd5b506103396103343660046142ea565b610adc565b60405190151581526020015b60405180910390f35b34801561035a57600080fd5b50611c205b604051908152602001610345565b34801561037957600080fd5b5061035f610388366004614420565b610aed565b34801561039957600080fd5b506103126103a83660046144c6565b610b27565b3480156103b957600080fd5b5061035f6103c83660046144ef565b610bb4565b3480156103d957600080fd5b506103126103e8366004614511565b610be5565b3480156103f957600080fd5b50610402610c6f565b6040516103459190614570565b34801561041b57600080fd5b5061035f61042a366004614511565b600090815260cf602052604090205490565b34801561044857600080fd5b506103126104573660046144c6565b610d01565b34801561046857600080fd5b5061035f610477366004614709565b610da1565b34801561048857600080fd5b5061035f60d05481565b34801561049e57600080fd5b506103126104ad366004614798565b610fa5565b61035f6104c0366004614709565b61115d565b3480156104d157600080fd5b5061035f6104e0366004614511565b611251565b3480156104f157600080fd5b5060ce5461035f565b34801561050657600080fd5b5060d4546103399060ff1681565b34801561052057600080fd5b5061035f7fb3b3f3b703cd84ce352197dcff232b1b5d3cfb2025ce47cf04742d0651f1af8881565b34801561055457600080fd5b5061035f610563366004614511565b611288565b34801561057457600080fd5b50600061035f565b34801561058857600080fd5b5061035f610388366004614820565b3480156105a357600080fd5b506105b76105b2366004614511565b6112a9565b6040516103459190614884565b3480156105d057600080fd5b506103396105df3660046148ac565b6000828152610139602090815260408083206001600160a01b038516845260030190915290205460ff1692915050565b34801561061b57600080fd5b5061031261062a3660046148dc565b6112b4565b34801561063b57600080fd5b5061031261064a366004614927565b611758565b34801561065b57600080fd5b5061068a61066a366004614511565b600090815261013960205260409020805460018201546002909201549092565b60408051938452602084019290925290820152606001610345565b3480156106b157600080fd5b5061040261184e565b3480156106c657600080fd5b5061035f6106d536600461498a565b611869565b3480156106e657600080fd5b506103126106f5366004614511565b611892565b34801561070657600080fd5b5061035f6107153660046149b6565b61195f565b34801561072657600080fd5b5061035f610735366004614511565b6119b4565b34801561074657600080fd5b5061035f610755366004614a39565b611a4f565b34801561076657600080fd5b50610402611aa1565b34801561077b57600080fd5b5061035f61078a366004614a92565b611b30565b34801561079b57600080fd5b50610312611b6a565b3480156107b057600080fd5b506103126107bf366004614511565b611bf4565b3480156107d057600080fd5b50606461035f565b3480156107e457600080fd5b506103126107f3366004614511565b611c77565b34801561080457600080fd5b5061035f610813366004614b0f565b611d44565b34801561082457600080fd5b5060cb54610838906001600160401b031681565b6040516001600160401b039091168152602001610345565b34801561085c57600080fd5b5061035f611d5b565b34801561087157600080fd5b50610312610880366004614b67565b611d88565b34801561089157600080fd5b5060d35461035f565b3480156108a657600080fd5b5061035f6108b5366004614511565b611e0f565b3480156108c657600080fd5b5061035f6108d5366004614511565b611eab565b3480156108e657600080fd5b50610402611ebb565b3480156108fb57600080fd5b50600161035f565b34801561090f57600080fd5b5061035f61091e366004614511565b611ec9565b610312610931366004614b84565b611ef8565b34801561094257600080fd5b5061035f610951366004614709565b612024565b34801561096257600080fd5b5061096b61205e565b6040516103459190614bc7565b34801561098457600080fd5b5061035f6101d75481565b34801561099b57600080fd5b506040805180820190915260208082527f737570706f72743d627261766f2671756f72756d3d666f722c6162737461696e90820152610402565b3480156109e157600080fd5b5061035f7f150214d74d59b7d1e90c73fc22ef3d991dd0a76b046543d4d80ab92d2a50328f81565b348015610a1557600080fd5b5061035f6101d85481565b348015610a2c57600080fd5b5061035f6101d95481565b348015610a4357600080fd5b5061035f610a52366004614511565b61206e565b348015610a6357600080fd5b5061035f610a72366004614bdb565b6123a9565b348015610a8357600080fd5b5061035f6123b5565b348015610a9857600080fd5b5061035f610aa7366004614511565b612424565b348015610ab857600080fd5b506101065461096b906001600160a01b031681565b6000610ad761205e565b905090565b6000610ae78261242f565b92915050565b60405162461bcd60e51b815260206004820152600c60248201526b6e6f7420706f737369626c6560a01b6044820152600090606401610309565b610b2f610acd565b6001600160a01b0316336001600160a01b031614610b5f5760405162461bcd60e51b815260040161030990614c07565b30610b68610acd565b6001600160a01b031614610ba55760008036604051610b88929190614c39565b604051809103902090505b80610b9e60d1612454565b03610b9357505b6001600160401b03166101d955565b60cf6020528160005260406000208181548110610bd057600080fd5b90600052602060002001600091509150505481565b610bed610acd565b6001600160a01b0316336001600160a01b031614610c1d5760405162461bcd60e51b815260040161030990614c07565b30610c26610acd565b6001600160a01b031614610c635760008036604051610c46929190614c39565b604051809103902090505b80610c5c60d1612454565b03610c5157505b610c6c816124ba565b50565b606060cc8054610c7e90614c49565b80601f0160208091040260200160405190810160405280929190818152602001828054610caa90614c49565b8015610cf75780601f10610ccc57610100808354040283529160200191610cf7565b820191906000526020600020905b815481529060010190602001808311610cda57829003601f168201915b5050505050905090565b610d09610acd565b6001600160a01b0316336001600160a01b031614610d395760405162461bcd60e51b815260040161030990614c07565b30610d42610acd565b6001600160a01b031614610d7f5760008036604051610d62929190614c39565b604051809103902090505b80610d7860d1612454565b03610d6d57505b60cb80546001600160401b0319166001600160401b0392909216919091179055565b600080610db086868686612024565b90506004610dbd826112a9565b6007811115610dce57610dce61486e565b14610deb5760405162461bcd60e51b815260040161030990614c83565b6101a0546040805163793d064960e11b815290516000926001600160a01b03169163f27a0c929160048083019260209291908290030181865afa158015610e36573d6000803e3d6000fd5b505050506040513d601f19601f82011682018060405250810190610e5a9190614cb4565b6101a05460405163b1c5f42760e01b81529192506001600160a01b03169063b1c5f42790610e95908a908a908a906000908b90600401614d96565b602060405180830381865afa158015610eb2573d6000803e3d6000fd5b505050506040513d601f19601f82011682018060405250810190610ed69190614cb4565b60008381526101a16020526040808220929092556101a05491516308f2a0bb60e41b81526001600160a01b0390921691638f2a0bb091610f23918b918b918b91908b908990600401614de4565b600060405180830381600087803b158015610f3d57600080fd5b505af1158015610f51573d6000803e3d6000fd5b505050507f9a2e42fd6722813d69113e7d0079d3d940171428df7373df9c7f7617cfda2892828242610f839190614e52565b6040805192835260208301919091520160405180910390a15095945050505050565b600054610100900460ff1615808015610fc55750600054600160ff909116105b80610fdf5750303b158015610fdf575060005460ff166001145b6110425760405162461bcd60e51b815260206004820152602e60248201527f496e697469616c697a61626c653a20636f6e747261637420697320616c72656160448201526d191e481a5b9a5d1a585b1a5e995960921b6064820152608401610309565b6000805460ff191660011790558015611065576000805461ff0019166101001790555b6101d480546001600160a01b0387166001600160a01b03199091161790556101d6805460ff1916905560cb80546001600160401b03191661c4e017905560146101d78190556101d855620313806101d95560408051808201909152600c81526b466c6174466565537461636b60a01b60208201526110e2906125d4565b6110eb8561262b565b6110f361265b565b6110fd6005612684565b611106846126b4565b61111083836126e4565b8015611156576000805461ff0019169055604051600181527f7f26b83ff96e1f2b6a682f133852f6798a09c465da95921460cefb38474024989060200160405180910390a15b5050505050565b60008061116c86868686612024565b90506000611179826112a9565b9050600481600781111561118f5761118f61486e565b14806111ac575060058160078111156111aa576111aa61486e565b145b6111c85760405162461bcd60e51b815260040161030990614c83565b600082815260cd602052604090819020600201805461ff001916610100179055517f712ae1383f79ac853f8d882153778e0260ef8f03b504e2866e0593e04d2b291f906112189084815260200190565b60405180910390a161122d8288888888612a92565b61123a8288888888612b33565b6112478288888888612b62565b5095945050505050565b600081815260cd602090815260408083208151928301909152546001600160401b0316908190525b6001600160401b031692915050565b60ce818154811061129857600080fd5b600091825260209091200154905081565b6000610ae782612b91565b60d45460ff166112d65760405162461bcd60e51b815260040161030990614e65565b6101d4546040516375ebee2960e11b81526001600160a01b039091169063ebd7dc5290611307903390600401614bc7565b602060405180830381865afa158015611324573d6000803e3d6000fd5b505050506040513d601f19601f820116820180604052508101906113489190614e94565b61138a5760405162461bcd60e51b815260206004820152601360248201527237b7363c9031b7bab731b4b61036b2b6b132b960691b6044820152606401610309565b61139643611c20614e52565b8310156113e25760405162461bcd60e51b815260206004820152601a6024820152794d757374206265206120646179206265666f726520736c6f742160301b6044820152606401610309565b6000805b60ce5482101561142e578460ce838154811061140457611404614eb6565b90600052602060002001540361141c5750600161142e565b8161142681614ecc565b9250506113e6565b806114795760405162461bcd60e51b815260206004820152601b60248201527a566f74696e6720736c6f7420646f6573206e6f742065786973742160281b6044820152606401610309565b815b60ce5461148a90600190614ee5565b8110156114ea5760ce61149e826001614e52565b815481106114ae576114ae614eb6565b906000526020600020015460ce82815481106114cc576114cc614eb6565b600091825260209091200155806114e281614ecc565b91505061147b565b5060ce8054806114fc576114fc614ef8565b60019003818190600052602060002001600090559055600060cf600087815260200190815260200160002080548060200260200160405190810160405280929190818152602001828054801561157157602002820191906000526020600020905b81548152602001906001019080831161155d575b505050600089815260cf6020526040812093945061159293925090506142bc565b600061159c612cde565b905060005b825181101561171357600060cd60008584815181106115c2576115c2614eb6565b60209081029190910181015182528181019290925260409081016000908120825193840190925281546001600160401b03169283905290925061160485612d94565b90506000611613611c20612d94565b61161d9083614f0e565b90506116298483612e00565b6116366001850182612e00565b600086815260cf60205260409020875188908790811061165857611658614eb6565b6020908102919091018101518254600181018455600093845291909220015586517f53982bcc38da32ef033ffe2a31abe0b4704a5da42de9e54f28f69c1253307b37908890879081106116ad576116ad614eb6565b60209081029190910181015160408051928301905286546001600160401b031691829052908590604080519384526001600160401b03928316602085015291169082015260600160405180910390a150505050808061170b90614ecc565b9150506115a1565b507fee810d41c3fb919057fecdc242e74ea856ae93f10c8be7192ffe22244bd93c2b87878760405161174793929190614f35565b60405180910390a150505050505050565b611760610acd565b6001600160a01b0316336001600160a01b0316146117905760405162461bcd60e51b815260040161030990614c07565b30611799610acd565b6001600160a01b0316146117d657600080366040516117b9929190614c39565b604051809103902090505b806117cf60d1612454565b036117c457505b6101d56117e38382614fb6565b506101da6117f18282614fb6565b506101d56040516118029190615075565b60405180910390206101da60405161181a9190615075565b604051908190038120907f20ef4846bccbf147482caf1cceca1dbc8b3c065fc5b6915a07485464545ebaa090600090a35050565b6040805180820190915260018152603160f81b602082015290565b60008033905061188a84828560405180602001604052806000815250612e1d565b949350505050565b61189a610acd565b6001600160a01b0316336001600160a01b0316146118ca5760405162461bcd60e51b815260040161030990614c07565b306118d3610acd565b6001600160a01b03161461191057600080366040516118f3929190614c39565b604051809103902090505b8061190960d1612454565b036118fe57505b60648111156119595760405162461bcd60e51b815260206004820152601560248201527406d757374206265206c657373207468616e2031303605c1b6044820152606401610309565b6101d855565b6000803390506119a987828888888080601f0160208091040260200160405190810160405280939291908181526020018383808284376000920191909152508a9250612e37915050565b979650505050505050565b61016d546000908082036119cd57505061016c54919050565b600061016d6119dd600184614ee5565b815481106119ed576119ed614eb6565b60009182526020918290206040805180820190915291015463ffffffff8116808352600160201b9091046001600160e01b03169282019290925291508410611a4357602001516001600160e01b03169392505050565b61188a61016d85612fce565b600080339050611a9786828787878080601f016020809104026020016040519081016040528093929190818152602001838380828437600092019190915250612e1d92505050565b9695505050505050565b6101da8054611aaf90614c49565b80601f0160208091040260200160405190810160405280929190818152602001828054611adb90614c49565b8015611b285780601f10611afd57610100808354040283529160200191611b28565b820191906000526020600020905b815481529060010190602001808311611b0b57829003601f168201915b505050505081565b60d45460009060ff16611b555760405162461bcd60e51b815260040161030990614e65565b611b618585858561308e565b95945050505050565b611b72610acd565b6001600160a01b0316336001600160a01b031614611ba25760405162461bcd60e51b815260040161030990614c07565b30611bab610acd565b6001600160a01b031614611be85760008036604051611bcb929190614c39565b604051809103902090505b80611be160d1612454565b03611bd657505b60d4805460ff19169055565b611bfc610acd565b6001600160a01b0316336001600160a01b031614611c2c5760405162461bcd60e51b815260040161030990614c07565b30611c35610acd565b6001600160a01b031614611c725760008036604051611c55929190614c39565b604051809103902090505b80611c6b60d1612454565b03611c6057505b60d055565b611c7f610acd565b6001600160a01b0316336001600160a01b031614611caf5760405162461bcd60e51b815260040161030990614c07565b30611cb8610acd565b6001600160a01b031614611cf55760008036604051611cd8929190614c39565b604051809103902090505b80611cee60d1612454565b03611ce357505b6014811115611d3e5760405162461bcd60e51b815260206004820152601560248201527406d75737474206265206c657373207468616e20323605c1b6044820152606401610309565b6101d755565b6000611d518484846132ed565b90505b9392505050565b61016d5460009015611d8057611d7261016d613364565b6001600160e01b0316905090565b5061016c5490565b611d90610acd565b6001600160a01b0316336001600160a01b031614611dc05760405162461bcd60e51b815260040161030990614c07565b30611dc9610acd565b6001600160a01b031614611e065760008036604051611de9929190614c39565b604051809103902090505b80611dff60d1612454565b03611df457505b610c6c81613394565b6101a05460008281526101a1602052604080822054905163d45c443560e01b81526004810191909152909182916001600160a01b039091169063d45c443590602401602060405180830381865afa158015611e6e573d6000803e3d6000fd5b505050506040513d601f19601f82011682018060405250810190611e929190614cb4565b905080600114611ea25780611d54565b60009392505050565b60d3818154811061129857600080fd5b6101d58054611aaf90614c49565b600081815260cd602090815260408083208151928301909152600101546001600160401b031690819052611279565b611f00610acd565b6001600160a01b0316336001600160a01b031614611f305760405162461bcd60e51b815260040161030990614c07565b30611f39610acd565b6001600160a01b031614611f765760008036604051611f59929190614c39565b604051809103902090505b80611f6f60d1612454565b03611f6457505b600080856001600160a01b0316858585604051611f94929190614c39565b60006040518083038185875af1925050503d8060008114611fd1576040519150601f19603f3d011682016040523d82523d6000602084013e611fd6565b606091505b509150915061201b82826040518060400160405280601e81526020017f52656c617920726576657274656420776974686f7574206d65737361676500008152506133ff565b50505050505050565b60008484848460405160200161203d94939291906150eb565b60408051601f19818403018152919052805160209091012095945050505050565b6101a0546001600160a01b031690565b60d45460009060ff166120935760405162461bcd60e51b815260040161030990614e65565b6101d4546040516375ebee2960e11b81526001600160a01b039091169063ebd7dc52906120c4903390600401614bc7565b602060405180830381865afa1580156120e1573d6000803e3d6000fd5b505050506040513d601f19601f820116820180604052508101906121059190614e94565b806121285750612113610acd565b6001600160a01b0316336001600160a01b0316145b6121745760405162461bcd60e51b815260206004820152601f60248201527f6f6e6c7920636f756e63696c206d656d626572206f7220676f7665726e6f72006044820152606401610309565b6101d9546121829043614e52565b8210156121ca5760405162461bcd60e51b8152602060048201526016602482015275416e6e6f756e63656d656e7420746f6f206c6174652160501b6044820152606401610309565b60ce546000906121dc90600190614ee5565b9050805b8360ce82815481106121f4576121f4614eb6565b9060005260206000200154036122475760405162461bcd60e51b8152602060048201526018602482015277566f746520736c6f7420616c72656164792065786973747360401b6044820152606401610309565b801561225f578061225781615136565b9150506121e0565b506000815b8460ce828154811061227857612278614eb6565b9060005260206000200154101561229b57612294816001614e52565b91506122b3565b80156122b357806122ab81615136565b915050612264565b5060ce80546001818101835560008390526000805160206153f283398151915290910186905590546122e59190614ee5565b81101561235857815b8181106123565760ce818154811061230857612308614eb6565b906000526020600020015460ce8260016123229190614e52565b8154811061233257612332614eb6565b6000918252602090912001558015612356578061234e81615136565b9150506122ee565b505b8360ce828154811061236c5761236c614eb6565b90600052602060002001819055506000805160206154128339815191528460405161239991815260200190565b60405180910390a1509192915050565b6000611d548383613418565b6101a0546040805163793d064960e11b815290516000926001600160a01b03169163f27a0c929160048083019260209291908290030181865afa158015612400573d6000803e3d6000fd5b505050506040513d601f19601f82011682018060405250810190610ad79190614cb4565b6000610ae782613434565b60006001600160e01b03198216636e665ced60e01b1480610ae75750610ae7826134c3565b600061245f826134f9565b1561247d57604051631ed9509560e11b815260040160405180910390fd5b508054600f0b6000818152600180840160205260408220805492905583546001600160801b03191692016001600160801b03169190911790915590565b60648111156125085760405162461bcd60e51b815260206004820152601a602482015279273ab6b2b930ba37b91037bb32b9103232b737b6b4b730ba37b960311b6044820152606401610309565b6000612512611d5b565b90508015801590612524575061016d54155b1561258957604080518082019091526000815261016d90602081016125488461350e565b6001600160e01b039081169091528254600181018455600093845260209384902083519490930151909116600160201b0263ffffffff909316929092179101555b61259561016d83613577565b505060408051828152602081018490527f0553476bf02ef2726e8ce5ced78d63e26e602e4a2257b1f559418e24b4633997910160405180910390a15050565b600054610100900460ff166125fb5760405162461bcd60e51b81526004016103099061514d565b61260c8161260761184e565b6135ad565b612615816135ee565b5061c4e060d05560d4805460ff19166001179055565b600054610100900460ff166126525760405162461bcd60e51b81526004016103099061514d565b610c6c81613625565b600054610100900460ff166126825760405162461bcd60e51b81526004016103099061514d565b565b600054610100900460ff166126ab5760405162461bcd60e51b81526004016103099061514d565b610c6c8161366f565b600054610100900460ff166126db5760405162461bcd60e51b81526004016103099061514d565b610c6c81613696565b6101d65460ff16156127275760405162461bcd60e51b815260206004820152600c60248201526b616c726561647920646f6e6560a01b6044820152606401610309565b600060d054436127379190614e52565b612742906001614e52565b60ce80546001810182556000919091526000805160206153f2833981519152018190556040518181529091506000805160206154128339815191529060200160405180910390a16000838360405160240161279e929190615198565b60408051601f19818403018152918152602080830180516001600160e01b031663527e098f60e01b179052815160608101909252602680835292935060009290615472908301396040805160018082528183019092529192506000919060208083019080368337019050509050308160008151811061281f5761281f614eb6565b6001600160a01b03929092166020928302919091019091015260408051600180825281830190925260009181602001602082028036833701905050905060008160008151811061287157612871614eb6565b6020908102919091010152604080516001808252818301909252600091816020015b606081526020019060019003908161289357905050905084816000815181106128be576128be614eb6565b602002602001018190525060006128de8484848880519060200120612024565b905060006128ec82846136bd565b90506000805160206154328339815191528233878789516001600160401b0381111561291a5761291a61436b565b60405190808252806020026020018201604052801561294d57816020015b60608152602001906001900390816129385790505b50888760000160000160009054906101000a90046001600160401b03168860010160000160009054906101000a90046001600160401b03168e60405161299b999897969594939291906151bd565b60405180910390a160028082015460ff16908111156129bc576129bc61486e565b336001600160a01b03168360008051602061545283398151915288888a516001600160401b038111156129f1576129f161436b565b604051908082528060200260200182016040528015612a2457816020015b6060815260200190600190039081612a0f5790505b50898860000160000160009054906101000a90046001600160401b03168960010160000160009054906101000a90046001600160401b03168f604051612a709796959493929190615260565b60405180910390a450506101d6805460ff191660011790555050505050505050565b30612a9b610acd565b6001600160a01b0316146111565760005b8451811015612b2b57306001600160a01b0316858281518110612ad157612ad1614eb6565b60200260200101516001600160a01b031603612b1b57612b1b838281518110612afc57612afc614eb6565b60200260200101518051906020012060d1613a4a90919063ffffffff16565b612b2481614ecc565b9050612aac565b505050505050565b60d45460ff16612b555760405162461bcd60e51b815260040161030990614e65565b6111568585858585613a86565b30612b6b610acd565b6001600160a01b03161461115657612b8360d16134f9565b61115657600060d155611156565b600080612b9d83613afb565b90506004816007811115612bb357612bb361486e565b14612bbe5792915050565b60008381526101a1602052604090205480612bda575092915050565b6101a054604051632ab0f52960e01b8152600481018390526001600160a01b0390911690632ab0f52990602401602060405180830381865afa158015612c24573d6000803e3d6000fd5b505050506040513d601f19601f82011682018060405250810190612c489190614e94565b15612c57575060079392505050565b6101a054604051632c258a9f60e11b8152600481018390526001600160a01b039091169063584b153e90602401602060405180830381865afa158015612ca1573d6000803e3d6000fd5b505050506040513d601f19601f82011682018060405250810190612cc59190614e94565b15612cd4575060059392505050565b5060029392505050565b6000805b60ce54811015612d545760d05460ce8281548110612d0257612d02614eb6565b9060005260206000200154612d179190614ee5565b431015612d425760ce8181548110612d3157612d31614eb6565b906000526020600020015491505090565b80612d4c81614ecc565b915050612ce2565b5060405162461bcd60e51b8152602060048201526014602482015273139bc81d9bdd1a5b99c81cdb1bdd08199bdd5b9960621b6044820152606401610309565b60006001600160401b03821115612dfc5760405162461bcd60e51b815260206004820152602660248201527f53616665436173743a2076616c756520646f65736e27742066697420696e203660448201526534206269747360d01b6064820152608401610309565b5090565b81546001600160401b0319166001600160401b0391909116179055565b6000611b6185858585604051806020016040528060008152505b600085815260cd602052604081206001612e50886112a9565b6007811115612e6157612e6161486e565b14612eaa5760405162461bcd60e51b8152602060048201526019602482015278566f7465206e6f742063757272656e746c792061637469766560381b6044820152606401610309565b604080516020810190915281546001600160401b031690819052600090612ed3908890866132ed565b905060008111612f185760405162461bcd60e51b815260206004820152601060248201526f6e6f20766f74696e672072696768747360801b6044820152606401610309565b612f258888888488613c19565b8351600003612f7a57866001600160a01b03167fb8e138887d0aa13bab447e82de9d5c1777041ecd21ca36ba824ff1e6c07ddda489888489604051612f6d94939291906152e6565b60405180910390a26119a9565b866001600160a01b03167fe2babfbac5889a709b63bb7f598b324e08bc5a4fb9ec647fb3cbc9ec07eb87128988848989604051612fbb95949392919061530e565b60405180910390a2979650505050505050565b600043821061301f5760405162461bcd60e51b815260206004820181905260248201527f436865636b706f696e74733a20626c6f636b206e6f7420796574206d696e65646044820152606401610309565b600061302a83613d5a565b8454909150600061303d86848385613dbf565b905080156130785761306286613054600184614ee5565b600091825260209091200190565b54600160201b90046001600160e01b031661307b565b60005b6001600160e01b03169695505050505050565b60d45460009060ff166130b35760405162461bcd60e51b815260040161030990614e65565b60006130c186868686613e1d565b905060006130cf82866136bd565b9050600080516020615432833981519152823389898b516001600160401b038111156130fd576130fd61436b565b60405190808252806020026020018201604052801561313057816020015b606081526020019060019003908161311b5790505b508654600188015460405161315c9796959493928e926001600160401b03918216929116908e906151bd565b60405180910390a160028082015460ff169081111561317d5761317d61486e565b336001600160a01b0316836000805160206154528339815191528a8a8c516001600160401b038111156131b2576131b261436b565b6040519080825280602002602001820160405280156131e557816020015b60608152602001906001900390816131d05790505b508754600189015460405161320f959493928f926001600160401b03918216929116908f90615260565b60405180910390a4600160028083015460ff16908111156132325761323261486e565b0361124757336001600160a01b0316827faf70b28462b17da839f4faad55a92330c675fb47d34733424983f6a314a1bd4389898b516001600160401b0381111561327e5761327e61436b565b6040519080825280602002602001820160405280156132b157816020015b606081526020019060019003908161329c5790505b50865460018801546040516132db959493928e926001600160401b03918216929116908e90615260565b60405180910390a35095945050505050565b61010654604051630748d63560e31b81526001600160a01b038581166004830152602482018590526000921690633a46b1a890604401602060405180830381865afa158015613340573d6000803e3d6000fd5b505050506040513d601f19601f82011682018060405250810190611d519190614cb4565b80546000908015611ea25761337e83613054600184614ee5565b54600160201b90046001600160e01b0316611d54565b6101a054604080516001600160a01b03928316815291831660208301527f08f74ea46ef7894f65eabfb5e6e695de773a000b47c529ab559178069b226401910160405180910390a16101a080546001600160a01b0319166001600160a01b0392909216919091179055565b6060831561340e575081611d54565b611d548383613f19565b6000611d548383604051806020016040528060008152506132ed565b60006064613441836119b4565b61010654604051632394e7a360e21b8152600481018690526001600160a01b0390911690638e539e8c90602401602060405180830381865afa15801561348b573d6000803e3d6000fd5b505050506040513d601f19601f820116820180604052508101906134af9190614cb4565b6134b99190615354565b610ae7919061536b565b60006001600160e01b0319821663bf26d89760e01b1480610ae757506001600160e01b031982166379dd796f60e01b1492915050565b54600f81810b600160801b909204900b131590565b60006001600160e01b03821115612dfc5760405162461bcd60e51b815260206004820152602760248201527f53616665436173743a2076616c756520646f65736e27742066697420696e20326044820152663234206269747360c81b6064820152608401610309565b6000806135958461358743613d5a565b6135908661350e565b613f43565b6001600160e01b0391821693501690505b9250929050565b600054610100900460ff166135d45760405162461bcd60e51b81526004016103099061514d565b815160209283012081519190920120603391909155603455565b600054610100900460ff166136155760405162461bcd60e51b81526004016103099061514d565b60cc6136218282614fb6565b5050565b600054610100900460ff1661364c5760405162461bcd60e51b81526004016103099061514d565b61010680546001600160a01b0319166001600160a01b0392909216919091179055565b600054610100900460ff16610c635760405162461bcd60e51b81526004016103099061514d565b600054610100900460ff16611e065760405162461bcd60e51b81526004016103099061514d565b600082815260cd60209081526040808320815192830190915280546001600160401b031691829052901561372d5760405162461bcd60e51b815260206004820152601760248201527650726f706f73616c20616c72656164792065786973747360481b6044820152606401610309565b600080845160030361380b5760008560008151811061374e5761374e614eb6565b602002602001015161375f9061538d565b905060008660018151811061377657613776614eb6565b60200260200101516137879061538d565b905060008760028151811061379e5761379e614eb6565b60200260200101516137af9061538d565b90506001600160e01b031983166305f0caad60e31b1480156137e157506001600160e01b0319821663f1d3b27d60e01b145b80156137fd57506001600160e01b03198116632062534d60e21b145b1561380757600193505b5050505b6001811515146139085760005b855181101561390657600086828151811061383557613835614eb6565b60200260200101516138469061538d565b9050631ed5948960e01b6001600160e01b031982160161386a576001935050613906565b6001600160e01b031981166305f0caad60e31b148061389957506001600160e01b0319811663f1d3b27d60e01b145b806138b457506001600160e01b03198116632062534d60e21b145b156138f35760405162461bcd60e51b815260206004820152600f60248201526e57726f6e672066756e6374696f6e7360881b6044820152606401610309565b50806138fe81614ecc565b915050613818565b505b81156139ab57600061391981612d94565b61392243612d94565b61392c9190614f0e565b60cb54909150600090613948906001600160401b031683614f0e565b90506139548583612e00565b6139616001860182612e00565b505060028301805460ff1916600190811790915560d3805491820181556000527f915c3eb987b20e1af620c1403197bf687fb7f18513b3a73fde6e78c7072c41a601869055613a40565b60006139b5612cde565b905060006139c282612d94565b905060006139d1611c20612d94565b6139db9083614f0e565b90506139e78683612e00565b6139f46001870182612e00565b8315613a0f576002868101805460ff19169091179055613a1c565b60028601805460ff191690555b5050600090815260cf60209081526040822080546001810182559083529120018690555b5090949350505050565b8154600160801b90819004600f0b6000818152600180860160205260409091209390935583546001600160801b03908116939091011602179055565b6101a05460405163e38335e560e01b81526001600160a01b039091169063e38335e5903490613ac2908890889088906000908990600401614d96565b6000604051808303818588803b158015613adb57600080fd5b505af1158015613aef573d6000803e3d6000fd5b50505050505050505050565b600081815260cd602052604081206002810154610100900460ff1615613b245750600792915050565b600281015462010000900460ff1615613b405750600292915050565b6000613b4b84611251565b905080600003613b9d5760405162461bcd60e51b815260206004820152601d60248201527f476f7665726e6f723a20756e6b6e6f776e2070726f706f73616c2069640000006044820152606401610309565b438110613bae575060009392505050565b6000613bb985611ec9565b9050438110613bcd57506001949350505050565b613bd6856140e0565b8015613bf657506000858152610139602052604090208054600190910154115b15613c0657506004949350505050565b506003949350505050565b505050919050565b6000858152610139602090815260408083206001600160a01b0388168452600381019092529091205460ff1615613c865760405162461bcd60e51b8152602060048201526011602482015270159bdd1948185b1c9958591e4818d85cdd607a1b6044820152606401610309565b6001600160a01b03851660009081526003820160205260409020805460ff1916600117905560ff8416613cd25782816000016000828254613cc79190614e52565b90915550612b2b9050565b60001960ff851601613cf25782816001016000828254613cc79190614e52565b60011960ff851601613d125782816002016000828254613cc79190614e52565b60405162461bcd60e51b815260206004820152601f60248201527f496e76616c69642076616c756520666f7220656e756d20566f746554797065006044820152606401610309565b600063ffffffff821115612dfc5760405162461bcd60e51b815260206004820152602660248201527f53616665436173743a2076616c756520646f65736e27742066697420696e203360448201526532206269747360d01b6064820152608401610309565b60005b81831015613e15576000613dd68484614269565b60008781526020902090915063ffffffff86169082015463ffffffff161115613e0157809250613e0f565b613e0c816001614e52565b93505b50613dc2565b509392505050565b60006001613e3033610a72600143614ee5565b1015613e7e5760405162461bcd60e51b815260206004820152601e60248201527f50726f706f73657220766f7465732062656c6f77207468726573686f6c6400006044820152606401610309565b6000613e938686868680519060200120612024565b90508451865114613eb65760405162461bcd60e51b8152600401610309906153c0565b8351865114613ed75760405162461bcd60e51b8152600401610309906153c0565b6000865111611b615760405162461bcd60e51b815260206004820152600e60248201526d115b5c1d1e481c1c9bdc1bdcd85b60921b6044820152606401610309565b815115613f295781518083602001fd5b8060405162461bcd60e51b81526004016103099190614570565b825460009081908015614083576000613f6187613054600185614ee5565b60408051808201909152905463ffffffff808216808452600160201b9092046001600160e01b031660208401529192509087161015613fdc5760405162461bcd60e51b8152602060048201526017602482015276436865636b706f696e743a20696e76616c6964206b657960481b6044820152606401610309565b805163ffffffff8088169116036140245784613ffd88613054600186614ee5565b80546001600160e01b0392909216600160201b0263ffffffff909216919091179055614073565b6040805180820190915263ffffffff80881682526001600160e01b0380881660208085019182528b54600181018d5560008d81529190912094519151909216600160201b029216919091179101555b6020015192508391506140d89050565b50506040805180820190915263ffffffff80851682526001600160e01b0380851660208085019182528854600181018a5560008a815291822095519251909316600160201b0291909316179201919091559050815b935093915050565b600081815260cd602052604081206002015460ff16818160028111156141085761410861486e565b0361411657611d5483614284565b6000838152610139602052604081209061412f85611251565b9050600060018460028111156141475761414761486e565b0361415657506101d7546141c1565b600284600281111561416a5761416a61486e565b0361417957506101d8546141c1565b60405162461bcd60e51b815260206004820152601f60248201527f4e6f7420696d706c656d656e7465642070726f706f73616c2071756f72756d006044820152606401610309565b6000606461010654604051632394e7a360e21b81526004810186905284916001600160a01b031690638e539e8c90602401602060405180830381865afa15801561420f573d6000803e3d6000fd5b505050506040513d601f19601f820116820180604052508101906142339190614cb4565b61423d9190615354565b614247919061536b565b90508360020154846001015461425d9190614e52565b10159695505050505050565b6000614278600284841861536b565b611d5490848416614e52565b600081815261013960205260408120600281015460018201546142a79190614e52565b6142b3610aa785611251565b11159392505050565b5080546000825590600052602060002090810190610c6c91905b80821115612dfc57600081556001016142d6565b6000602082840312156142fc57600080fd5b81356001600160e01b031981168114611d5457600080fd5b803560ff8116811461432557600080fd5b919050565b60008083601f84011261433c57600080fd5b5081356001600160401b0381111561435357600080fd5b6020830191508360208285010111156135a657600080fd5b634e487b7160e01b600052604160045260246000fd5b604051601f8201601f191681016001600160401b03811182821017156143a9576143a961436b565b604052919050565b600082601f8301126143c257600080fd5b81356001600160401b038111156143db576143db61436b565b6143ee601f8201601f1916602001614381565b81815284602083860101111561440357600080fd5b816020850160208301376000918101602001919091529392505050565b60008060008060008060008060e0898b03121561443c57600080fd5b8835975061444c60208a01614314565b965060408901356001600160401b038082111561446857600080fd5b6144748c838d0161432a565b909850965060608b013591508082111561448d57600080fd5b5061449a8b828c016143b1565b9450506144a960808a01614314565b925060a0890135915060c089013590509295985092959890939650565b6000602082840312156144d857600080fd5b81356001600160401b0381168114611d5457600080fd5b6000806040838503121561450257600080fd5b50508035926020909101359150565b60006020828403121561452357600080fd5b5035919050565b6000815180845260005b8181101561455057602081850181015186830182015201614534565b506000602082860101526020601f19601f83011685010191505092915050565b602081526000611d54602083018461452a565b60006001600160401b0382111561459c5761459c61436b565b5060051b60200190565b6001600160a01b0381168114610c6c57600080fd5b600082601f8301126145cc57600080fd5b813560206145e16145dc83614583565b614381565b82815260059290921b8401810191818101908684111561460057600080fd5b8286015b84811015614624578035614617816145a6565b8352918301918301614604565b509695505050505050565b600082601f83011261464057600080fd5b813560206146506145dc83614583565b82815260059290921b8401810191818101908684111561466f57600080fd5b8286015b848110156146245780358352918301918301614673565b600082601f83011261469b57600080fd5b813560206146ab6145dc83614583565b82815260059290921b840181019181810190868411156146ca57600080fd5b8286015b848110156146245780356001600160401b038111156146ed5760008081fd5b6146fb8986838b01016143b1565b8452509183019183016146ce565b6000806000806080858703121561471f57600080fd5b84356001600160401b038082111561473657600080fd5b614742888389016145bb565b9550602087013591508082111561475857600080fd5b6147648883890161462f565b9450604087013591508082111561477a57600080fd5b506147878782880161468a565b949793965093946060013593505050565b600080600080608085870312156147ae57600080fd5b84356147b9816145a6565b935060208501356147c9816145a6565b925060408501356001600160401b03808211156147e557600080fd5b6147f1888389016143b1565b9350606087013591508082111561480757600080fd5b50614814878288016143b1565b91505092959194509250565b600080600080600060a0868803121561483857600080fd5b8535945061484860208701614314565b935061485660408701614314565b94979396509394606081013594506080013592915050565b634e487b7160e01b600052602160045260246000fd5b60208101600883106148a657634e487b7160e01b600052602160045260246000fd5b91905290565b600080604083850312156148bf57600080fd5b8235915060208301356148d1816145a6565b809150509250929050565b6000806000604084860312156148f157600080fd5b8335925060208401356001600160401b0381111561490e57600080fd5b61491a8682870161432a565b9497909650939450505050565b6000806040838503121561493a57600080fd5b82356001600160401b038082111561495157600080fd5b61495d868387016143b1565b9350602085013591508082111561497357600080fd5b50614980858286016143b1565b9150509250929050565b6000806040838503121561499d57600080fd5b823591506149ad60208401614314565b90509250929050565b6000806000806000608086880312156149ce57600080fd5b853594506149de60208701614314565b935060408601356001600160401b03808211156149fa57600080fd5b614a0689838a0161432a565b90955093506060880135915080821115614a1f57600080fd5b50614a2c888289016143b1565b9150509295509295909350565b60008060008060608587031215614a4f57600080fd5b84359350614a5f60208601614314565b925060408501356001600160401b03811115614a7a57600080fd5b614a868782880161432a565b95989497509550505050565b60008060008060808587031215614aa857600080fd5b84356001600160401b0380821115614abf57600080fd5b614acb888389016145bb565b95506020870135915080821115614ae157600080fd5b614aed8883890161462f565b94506040870135915080821115614b0357600080fd5b6147f18883890161468a565b600080600060608486031215614b2457600080fd5b8335614b2f816145a6565b92506020840135915060408401356001600160401b03811115614b5157600080fd5b614b5d868287016143b1565b9150509250925092565b600060208284031215614b7957600080fd5b8135611d54816145a6565b60008060008060608587031215614b9a57600080fd5b8435614ba5816145a6565b93506020850135925060408501356001600160401b03811115614a7a57600080fd5b6001600160a01b0391909116815260200190565b60008060408385031215614bee57600080fd5b8235614bf9816145a6565b946020939093013593505050565b602080825260189082015277476f7665726e6f723a206f6e6c79476f7665726e616e636560401b604082015260600190565b8183823760009101908152919050565b600181811c90821680614c5d57607f821691505b602082108103614c7d57634e487b7160e01b600052602260045260246000fd5b50919050565b602080825260179082015276141c9bdc1bdcd85b081b9bdd081cdd58d8d95cdcd99d5b604a1b604082015260600190565b600060208284031215614cc657600080fd5b5051919050565b600081518084526020808501945080840160005b83811015614d065781516001600160a01b031687529582019590820190600101614ce1565b509495945050505050565b600081518084526020808501945080840160005b83811015614d0657815187529582019590820190600101614d25565b600081518084526020808501808196508360051b8101915082860160005b85811015614d89578284038952614d7784835161452a565b98850198935090840190600101614d5f565b5091979650505050505050565b60a081526000614da960a0830188614ccd565b8281036020840152614dbb8188614d11565b90508281036040840152614dcf8187614d41565b60608401959095525050608001529392505050565b60c081526000614df760c0830189614ccd565b8281036020840152614e098189614d11565b90508281036040840152614e1d8188614d41565b60608401969096525050608081019290925260a0909101529392505050565b634e487b7160e01b600052601160045260246000fd5b80820180821115610ae757610ae7614e3c565b6020808252601590820152745468652044414f206973206e6f742061637469766560581b604082015260600190565b600060208284031215614ea657600080fd5b81518015158114611d5457600080fd5b634e487b7160e01b600052603260045260246000fd5b600060018201614ede57614ede614e3c565b5060010190565b81810381811115610ae757610ae7614e3c565b634e487b7160e01b600052603160045260246000fd5b6001600160401b03818116838216019080821115614f2e57614f2e614e3c565b5092915050565b83815260406020820152816040820152818360608301376000818301606090810191909152601f909201601f1916010192915050565b601f821115614fb157600081815260208120601f850160051c81016020861015614f925750805b601f850160051c820191505b81811015612b2b57828155600101614f9e565b505050565b81516001600160401b03811115614fcf57614fcf61436b565b614fe381614fdd8454614c49565b84614f6b565b602080601f83116001811461501857600084156150005750858301515b600019600386901b1c1916600185901b178555612b2b565b600085815260208120601f198616915b8281101561504757888601518255948401946001909101908401615028565b50858210156150655787850151600019600388901b60f8161c191681555b5050505050600190811b01905550565b600080835461508381614c49565b6001828116801561509b57600181146150b0576150df565b60ff19841687528215158302870194506150df565b8760005260208060002060005b858110156150d65781548a8201529084019082016150bd565b50505082870194505b50929695505050505050565b6080815260006150fe6080830187614ccd565b82810360208401526151108187614d11565b905082810360408401526151248186614d41565b91505082606083015295945050505050565b60008161514557615145614e3c565b506000190190565b6020808252602b908201527f496e697469616c697a61626c653a20636f6e7472616374206973206e6f74206960408201526a6e697469616c697a696e6760a81b606082015260800190565b6040815260006151ab604083018561452a565b8281036020840152611b61818561452a565b8981526001600160a01b0389166020820152610120604082018190526000906151e88382018b614ccd565b905082810360608401526151fc818a614d11565b905082810360808401526152108189614d41565b905082810360a08401526152248188614d41565b6001600160401b0387811660c0860152861660e08501528381036101008501529050615250818561452a565b9c9b505050505050505050505050565b60e08152600061527360e083018a614ccd565b8281036020840152615285818a614d11565b905082810360408401526152998189614d41565b905082810360608401526152ad8188614d41565b6001600160401b038781166080860152861660a085015283810360c085015290506152d8818561452a565b9a9950505050505050505050565b84815260ff84166020820152826040820152608060608201526000611a97608083018461452a565b85815260ff8516602082015283604082015260a06060820152600061533660a083018561452a565b8281036080840152615348818561452a565b98975050505050505050565b8082028115828204841417610ae757610ae7614e3c565b60008261538857634e487b7160e01b600052601260045260246000fd5b500490565b805160208201516001600160e01b03198082169291906004831015613c115760049290920360031b82901b161692915050565b602080825260179082015276092dcecc2d8d2c840e0e4dee0dee6c2d840d8cadccee8d604b1b60408201526060019056fed36cd1c74ef8d7326d8021b776c18fb5a5724b7f7bc93c2f42e43e10ef27d12af92ed14e81753ef9799e397ab10278c4107b6807c59683338ced6b3598297c6b7d84a6263ae0d98d3329bd7b46bb4e8d6f98cd35a7adb45c274c8b7fd5ebd5e02546e02ec051925f1c459bd5da30927611040a32607c07d26172816e97d07bd1466f756e64696e672050726f706f73616c2e2053657420696e697469616c2062796c6177732ea2646970667358221220c23f519a7acd61255f61e677d4216ae5c595c95627cd44fad50699f0ac76251464736f6c63430008110033",
  "devdoc": {
    "errors": {
      "Empty()": [
        {
          "details": "An operation (e.g. {front}) couldn't be completed due to the queue being empty."
        }
      ]
    },
    "kind": "dev",
    "methods": {
      "COUNTING_MODE()": {
        "details": "A description of the possible `support` values for {castVote} and the way these votes are counted, meant to be consumed by UIs to show correct vote options and interpret the results. The string is a URL-encoded sequence of key-value pairs that each describe one aspect, for example `support=bravo&quorum=for,abstain`. There are 2 standard keys: `support` and `quorum`. - `support=bravo` refers to the vote options 0 = Against, 1 = For, 2 = Abstain, as in `GovernorBravo`. - `quorum=bravo` means that only For votes are counted towards quorum. - `quorum=for,abstain` means that both For and Abstain votes are counted towards quorum. If a counting module makes use of encoded `params`, it should  include this under a `params` key with a unique name that describes the behavior. For example: - `params=fractional` might refer to a scheme where votes are divided fractionally between for/against/abstain. - `params=erc721` might refer to a scheme where specific NFTs are delegated to vote. NOTE: The string can be decoded by the standard https://developer.mozilla.org/en-US/docs/Web/API/URLSearchParams[`URLSearchParams`] JavaScript class."
      },
      "castVote(uint256,uint8)": {
        "details": "Cast a vote Emits a {VoteCast} event."
      },
      "castVoteBySig(uint256,uint8,uint8,bytes32,bytes32)": {
        "details": "Cast a vote using the user's cryptographic signature. Emits a {VoteCast} event."
      },
      "castVoteWithReason(uint256,uint8,string)": {
        "details": "Cast a vote with a reason Emits a {VoteCast} event."
      },
      "castVoteWithReasonAndParams(uint256,uint8,string,bytes)": {
        "details": "Cast a vote with a reason and additional encoded parameters Emits a {VoteCast} or {VoteCastWithParams} event depending on the length of params."
      },
      "castVoteWithReasonAndParamsBySig(uint256,uint8,string,bytes,uint8,bytes32,bytes32)": {
        "details": "Cast a vote with a reason and additional encoded parameters using the user's cryptographic signature. Emits a {VoteCast} or {VoteCastWithParams} event depending on the length of params."
      },
      "execute(address[],uint256[],bytes[],bytes32)": {
        "details": "Execute a successful proposal. This requires the quorum to be reached, the vote to be successful, and the deadline to be reached. Emits a {ProposalExecuted} event. Note: some module can modify the requirements for execution, for example by adding an additional timelock."
      },
      "getVotesWithParams(address,uint256,bytes)": {
        "details": "Voting power of an `account` at a specific `blockNumber` given additional encoded parameters."
      },
      "hasVoted(uint256,address)": {
        "details": "Returns whether `account` has cast a vote on `proposalId`."
      },
      "hashProposal(address[],uint256[],bytes[],bytes32)": {
        "details": "Hashing function used to (re)build the proposal id from the proposal details.."
      },
      "name()": {
        "details": "Name of the governor instance (used in building the ERC712 domain separator)."
      },
      "proposalDeadline(uint256)": {
        "details": "Block number at which votes close. Votes close at the end of this block, so it is possible to cast a vote during this block."
      },
      "proposalSnapshot(uint256)": {
        "details": "Block number used to retrieve user's votes and quorum. As per Compound's Comp and OpenZeppelin's ERC20Votes, the snapshot is performed at the end of this block. Hence, voting for this proposal starts at the beginning of the following block."
      },
      "version()": {
        "details": "Version of the governor instance (used in building the ERC712 domain separator). Default: \"1\""
      },
      "votingDelay()": {
        "details": "Delay, in number of block, between the proposal is created and the vote starts. This can be increassed to leave time for users to buy voting power, or delegate it, before the voting of a proposal starts."
      },
      "votingPeriod()": {
        "details": "Delay, in number of blocks, between the vote start and vote ends. NOTE: The {votingDelay} can delay the start of the vote. This must be considered when setting the voting duration compared to the voting delay."
      }
    },
    "version": 1
  },
  "userdoc": {
    "kind": "user",
    "methods": {
      "COUNTING_MODE()": {
        "notice": "module:voting"
      },
      "getVotesWithParams(address,uint256,bytes)": {
        "notice": "module:reputation"
      },
      "hasVoted(uint256,address)": {
        "notice": "module:voting"
      },
      "hashProposal(address[],uint256[],bytes[],bytes32)": {
        "notice": "module:core"
      },
      "name()": {
        "notice": "module:core"
      },
      "proposalDeadline(uint256)": {
        "notice": "module:core"
      },
      "proposalSnapshot(uint256)": {
        "notice": "module:core"
      },
      "proposalThreshold()": {
        "notice": "The number of votes required in order for a voter to become a proposer Must have voting power to create a proposal"
      },
      "version()": {
        "notice": "module:core"
      },
      "votingDelay()": {
        "notice": "module:user-config"
      },
      "votingPeriod()": {
        "notice": "module:user-config"
      }
    },
    "version": 1
  },
  "storageLayout": {
    "storage": [
      {
        "astId": 1950,
        "contract": "contracts/DAO.sol:DAO",
        "label": "_initialized",
        "offset": 0,
        "slot": "0",
        "type": "t_uint8"
      },
      {
        "astId": 1953,
        "contract": "contracts/DAO.sol:DAO",
        "label": "_initializing",
        "offset": 1,
        "slot": "0",
        "type": "t_bool"
      },
      {
        "astId": 4582,
        "contract": "contracts/DAO.sol:DAO",
        "label": "__gap",
        "offset": 0,
        "slot": "1",
        "type": "t_array(t_uint256)50_storage"
      },
      {
        "astId": 5342,
        "contract": "contracts/DAO.sol:DAO",
        "label": "_HASHED_NAME",
        "offset": 0,
        "slot": "51",
        "type": "t_bytes32"
      },
      {
        "astId": 5344,
        "contract": "contracts/DAO.sol:DAO",
        "label": "_HASHED_VERSION",
        "offset": 0,
        "slot": "52",
        "type": "t_bytes32"
      },
      {
        "astId": 5482,
        "contract": "contracts/DAO.sol:DAO",
        "label": "__gap",
        "offset": 0,
        "slot": "53",
        "type": "t_array(t_uint256)50_storage"
      },
      {
        "astId": 856,
        "contract": "contracts/DAO.sol:DAO",
        "label": "__gap",
        "offset": 0,
        "slot": "103",
        "type": "t_array(t_uint256)50_storage"
      },
      {
        "astId": 1864,
        "contract": "contracts/DAO.sol:DAO",
        "label": "__gap",
        "offset": 0,
        "slot": "153",
        "type": "t_array(t_uint256)50_storage"
      },
      {
        "astId": 12007,
        "contract": "contracts/DAO.sol:DAO",
        "label": "extraOrdinaryAssemblyVotingPeriod",
        "offset": 0,
        "slot": "203",
        "type": "t_uint64"
      },
      {
        "astId": 12078,
        "contract": "contracts/DAO.sol:DAO",
        "label": "_name",
        "offset": 0,
        "slot": "204",
        "type": "t_string_storage"
      },
      {
        "astId": 12083,
        "contract": "contracts/DAO.sol:DAO",
        "label": "_proposals",
        "offset": 0,
        "slot": "205",
        "type": "t_mapping(t_uint256,t_struct(ProposalCore)12076_storage)"
      },
      {
        "astId": 12086,
        "contract": "contracts/DAO.sol:DAO",
        "label": "slots",
        "offset": 0,
        "slot": "206",
        "type": "t_array(t_uint256)dyn_storage"
      },
      {
        "astId": 12091,
        "contract": "contracts/DAO.sol:DAO",
        "label": "votingSlots",
        "offset": 0,
        "slot": "207",
        "type": "t_mapping(t_uint256,t_array(t_uint256)dyn_storage)"
      },
      {
        "astId": 12093,
        "contract": "contracts/DAO.sol:DAO",
        "label": "slotCloseTime",
        "offset": 0,
        "slot": "208",
        "type": "t_uint256"
      },
      {
        "astId": 12096,
        "contract": "contracts/DAO.sol:DAO",
        "label": "_governanceCall",
        "offset": 0,
        "slot": "209",
        "type": "t_struct(Bytes32Deque)7964_storage"
      },
      {
        "astId": 12099,
        "contract": "contracts/DAO.sol:DAO",
        "label": "extraOrdinaryAssemblyProposals",
        "offset": 0,
        "slot": "211",
        "type": "t_array(t_uint256)dyn_storage"
      },
      {
        "astId": 12101,
        "contract": "contracts/DAO.sol:DAO",
        "label": "daoActive",
        "offset": 0,
        "slot": "212",
        "type": "t_bool"
      },
      {
        "astId": 13583,
        "contract": "contracts/DAO.sol:DAO",
        "label": "__gap",
        "offset": 0,
        "slot": "213",
        "type": "t_array(t_uint256)49_storage"
      },
      {
        "astId": 13812,
        "contract": "contracts/DAO.sol:DAO",
        "label": "token",
        "offset": 0,
        "slot": "262",
        "type": "t_contract(IVotesUpgradeable)1943"
      },
      {
        "astId": 13861,
        "contract": "contracts/DAO.sol:DAO",
        "label": "__gap",
        "offset": 0,
        "slot": "263",
        "type": "t_array(t_uint256)50_storage"
      },
      {
        "astId": 11349,
        "contract": "contracts/DAO.sol:DAO",
        "label": "_proposalVotes",
        "offset": 0,
        "slot": "313",
        "type": "t_mapping(t_uint256,t_struct(ProposalVote)11344_storage)"
      },
      {
        "astId": 11546,
        "contract": "contracts/DAO.sol:DAO",
        "label": "__gap",
        "offset": 0,
        "slot": "314",
        "type": "t_array(t_uint256)50_storage"
      },
      {
        "astId": 13600,
        "contract": "contracts/DAO.sol:DAO",
        "label": "_quorumNumerator",
        "offset": 0,
        "slot": "364",
        "type": "t_uint256"
      },
      {
        "astId": 13603,
        "contract": "contracts/DAO.sol:DAO",
        "label": "_quorumNumeratorHistory",
        "offset": 0,
        "slot": "365",
        "type": "t_struct(History)3180_storage"
      },
      {
        "astId": 13799,
        "contract": "contracts/DAO.sol:DAO",
        "label": "__gap",
        "offset": 0,
        "slot": "366",
        "type": "t_array(t_uint256)50_storage"
      },
      {
        "astId": 11562,
        "contract": "contracts/DAO.sol:DAO",
        "label": "_timelock",
        "offset": 0,
        "slot": "416",
        "type": "t_contract(TimelockControllerUpgradeable)1804"
      },
      {
        "astId": 11566,
        "contract": "contracts/DAO.sol:DAO",
        "label": "_timelockIds",
        "offset": 0,
        "slot": "417",
        "type": "t_mapping(t_uint256,t_bytes32)"
      },
      {
        "astId": 11933,
        "contract": "contracts/DAO.sol:DAO",
        "label": "__gap",
        "offset": 0,
        "slot": "418",
        "type": "t_array(t_uint256)50_storage"
      },
      {
        "astId": 8311,
        "contract": "contracts/DAO.sol:DAO",
        "label": "_membershipContract",
        "offset": 0,
        "slot": "468",
        "type": "t_contract(Membership)10496"
      },
      {
        "astId": 8334,
        "contract": "contracts/DAO.sol:DAO",
        "label": "bylawsHash",
        "offset": 0,
        "slot": "469",
        "type": "t_string_storage"
      },
      {
        "astId": 8336,
        "contract": "contracts/DAO.sol:DAO",
        "label": "_foundingSetupDone",
        "offset": 0,
        "slot": "470",
        "type": "t_bool"
      },
      {
        "astId": 8338,
        "contract": "contracts/DAO.sol:DAO",
        "label": "extraordinaryVoteQuorumNominator",
        "offset": 0,
        "slot": "471",
        "type": "t_uint256"
      },
      {
        "astId": 8340,
        "contract": "contracts/DAO.sol:DAO",
        "label": "associationDissolutionQuorumNominator",
        "offset": 0,
        "slot": "472",
        "type": "t_uint256"
      },
      {
        "astId": 8342,
        "contract": "contracts/DAO.sol:DAO",
        "label": "votingSlotAnnouncementPeriod",
        "offset": 0,
        "slot": "473",
        "type": "t_uint256"
      },
      {
        "astId": 8344,
        "contract": "contracts/DAO.sol:DAO",
        "label": "bylawsUrl",
        "offset": 0,
        "slot": "474",
        "type": "t_string_storage"
      }
    ],
    "types": {
      "t_address": {
        "encoding": "inplace",
        "label": "address",
        "numberOfBytes": "20"
      },
      "t_array(t_struct(Checkpoint)3185_storage)dyn_storage": {
        "base": "t_struct(Checkpoint)3185_storage",
        "encoding": "dynamic_array",
        "label": "struct CheckpointsUpgradeable.Checkpoint[]",
        "numberOfBytes": "32"
      },
      "t_array(t_uint256)49_storage": {
        "base": "t_uint256",
        "encoding": "inplace",
        "label": "uint256[49]",
        "numberOfBytes": "1568"
      },
      "t_array(t_uint256)50_storage": {
        "base": "t_uint256",
        "encoding": "inplace",
        "label": "uint256[50]",
        "numberOfBytes": "1600"
      },
      "t_array(t_uint256)dyn_storage": {
        "base": "t_uint256",
        "encoding": "dynamic_array",
        "label": "uint256[]",
        "numberOfBytes": "32"
      },
      "t_bool": {
        "encoding": "inplace",
        "label": "bool",
        "numberOfBytes": "1"
      },
      "t_bytes32": {
        "encoding": "inplace",
        "label": "bytes32",
        "numberOfBytes": "32"
      },
      "t_contract(IVotesUpgradeable)1943": {
        "encoding": "inplace",
        "label": "contract IVotesUpgradeable",
        "numberOfBytes": "20"
      },
      "t_contract(Membership)10496": {
        "encoding": "inplace",
        "label": "contract Membership",
        "numberOfBytes": "20"
      },
      "t_contract(TimelockControllerUpgradeable)1804": {
        "encoding": "inplace",
        "label": "contract TimelockControllerUpgradeable",
        "numberOfBytes": "20"
      },
      "t_enum(ProposalCategory)12062": {
        "encoding": "inplace",
        "label": "enum GovernorUpgradeable.ProposalCategory",
        "numberOfBytes": "1"
      },
      "t_int128": {
        "encoding": "inplace",
        "label": "int128",
        "numberOfBytes": "16"
      },
      "t_mapping(t_address,t_bool)": {
        "encoding": "mapping",
        "key": "t_address",
        "label": "mapping(address => bool)",
        "numberOfBytes": "32",
        "value": "t_bool"
      },
      "t_mapping(t_int128,t_bytes32)": {
        "encoding": "mapping",
        "key": "t_int128",
        "label": "mapping(int128 => bytes32)",
        "numberOfBytes": "32",
        "value": "t_bytes32"
      },
      "t_mapping(t_uint256,t_array(t_uint256)dyn_storage)": {
        "encoding": "mapping",
        "key": "t_uint256",
        "label": "mapping(uint256 => uint256[])",
        "numberOfBytes": "32",
        "value": "t_array(t_uint256)dyn_storage"
      },
      "t_mapping(t_uint256,t_bytes32)": {
        "encoding": "mapping",
        "key": "t_uint256",
        "label": "mapping(uint256 => bytes32)",
        "numberOfBytes": "32",
        "value": "t_bytes32"
      },
      "t_mapping(t_uint256,t_struct(ProposalCore)12076_storage)": {
        "encoding": "mapping",
        "key": "t_uint256",
        "label": "mapping(uint256 => struct GovernorUpgradeable.ProposalCore)",
        "numberOfBytes": "32",
        "value": "t_struct(ProposalCore)12076_storage"
      },
      "t_mapping(t_uint256,t_struct(ProposalVote)11344_storage)": {
        "encoding": "mapping",
        "key": "t_uint256",
        "label": "mapping(uint256 => struct GovernorCountingSimpleUpgradeable.ProposalVote)",
        "numberOfBytes": "32",
        "value": "t_struct(ProposalVote)11344_storage"
      },
      "t_string_storage": {
        "encoding": "bytes",
        "label": "string",
        "numberOfBytes": "32"
      },
      "t_struct(BlockNumber)4869_storage": {
        "encoding": "inplace",
        "label": "struct TimersUpgradeable.BlockNumber",
        "members": [
          {
            "astId": 4868,
            "contract": "contracts/DAO.sol:DAO",
            "label": "_deadline",
            "offset": 0,
            "slot": "0",
            "type": "t_uint64"
          }
        ],
        "numberOfBytes": "32"
      },
      "t_struct(Bytes32Deque)7964_storage": {
        "encoding": "inplace",
        "label": "struct DoubleEndedQueueUpgradeable.Bytes32Deque",
        "members": [
          {
            "astId": 7957,
            "contract": "contracts/DAO.sol:DAO",
            "label": "_begin",
            "offset": 0,
            "slot": "0",
            "type": "t_int128"
          },
          {
            "astId": 7959,
            "contract": "contracts/DAO.sol:DAO",
            "label": "_end",
            "offset": 16,
            "slot": "0",
            "type": "t_int128"
          },
          {
            "astId": 7963,
            "contract": "contracts/DAO.sol:DAO",
            "label": "_data",
            "offset": 0,
            "slot": "1",
            "type": "t_mapping(t_int128,t_bytes32)"
          }
        ],
        "numberOfBytes": "64"
      },
      "t_struct(Checkpoint)3185_storage": {
        "encoding": "inplace",
        "label": "struct CheckpointsUpgradeable.Checkpoint",
        "members": [
          {
            "astId": 3182,
            "contract": "contracts/DAO.sol:DAO",
            "label": "_blockNumber",
            "offset": 0,
            "slot": "0",
            "type": "t_uint32"
          },
          {
            "astId": 3184,
            "contract": "contracts/DAO.sol:DAO",
            "label": "_value",
            "offset": 4,
            "slot": "0",
            "type": "t_uint224"
          }
        ],
        "numberOfBytes": "32"
      },
      "t_struct(History)3180_storage": {
        "encoding": "inplace",
        "label": "struct CheckpointsUpgradeable.History",
        "members": [
          {
            "astId": 3179,
            "contract": "contracts/DAO.sol:DAO",
            "label": "_checkpoints",
            "offset": 0,
            "slot": "0",
            "type": "t_array(t_struct(Checkpoint)3185_storage)dyn_storage"
          }
        ],
        "numberOfBytes": "32"
      },
      "t_struct(ProposalCore)12076_storage": {
        "encoding": "inplace",
        "label": "struct GovernorUpgradeable.ProposalCore",
        "members": [
          {
            "astId": 12065,
            "contract": "contracts/DAO.sol:DAO",
            "label": "voteStart",
            "offset": 0,
            "slot": "0",
            "type": "t_struct(BlockNumber)4869_storage"
          },
          {
            "astId": 12068,
            "contract": "contracts/DAO.sol:DAO",
            "label": "voteEnd",
            "offset": 0,
            "slot": "1",
            "type": "t_struct(BlockNumber)4869_storage"
          },
          {
            "astId": 12071,
            "contract": "contracts/DAO.sol:DAO",
            "label": "category",
            "offset": 0,
            "slot": "2",
            "type": "t_enum(ProposalCategory)12062"
          },
          {
            "astId": 12073,
            "contract": "contracts/DAO.sol:DAO",
            "label": "executed",
            "offset": 1,
            "slot": "2",
            "type": "t_bool"
          },
          {
            "astId": 12075,
            "contract": "contracts/DAO.sol:DAO",
            "label": "canceled",
            "offset": 2,
            "slot": "2",
            "type": "t_bool"
          }
        ],
        "numberOfBytes": "96"
      },
      "t_struct(ProposalVote)11344_storage": {
        "encoding": "inplace",
        "label": "struct GovernorCountingSimpleUpgradeable.ProposalVote",
        "members": [
          {
            "astId": 11335,
            "contract": "contracts/DAO.sol:DAO",
            "label": "againstVotes",
            "offset": 0,
            "slot": "0",
            "type": "t_uint256"
          },
          {
            "astId": 11337,
            "contract": "contracts/DAO.sol:DAO",
            "label": "forVotes",
            "offset": 0,
            "slot": "1",
            "type": "t_uint256"
          },
          {
            "astId": 11339,
            "contract": "contracts/DAO.sol:DAO",
            "label": "abstainVotes",
            "offset": 0,
            "slot": "2",
            "type": "t_uint256"
          },
          {
            "astId": 11343,
            "contract": "contracts/DAO.sol:DAO",
            "label": "hasVoted",
            "offset": 0,
            "slot": "3",
            "type": "t_mapping(t_address,t_bool)"
          }
        ],
        "numberOfBytes": "128"
      },
      "t_uint224": {
        "encoding": "inplace",
        "label": "uint224",
        "numberOfBytes": "28"
      },
      "t_uint256": {
        "encoding": "inplace",
        "label": "uint256",
        "numberOfBytes": "32"
      },
      "t_uint32": {
        "encoding": "inplace",
        "label": "uint32",
        "numberOfBytes": "4"
      },
      "t_uint64": {
        "encoding": "inplace",
        "label": "uint64",
        "numberOfBytes": "8"
      },
      "t_uint8": {
        "encoding": "inplace",
        "label": "uint8",
        "numberOfBytes": "1"
      }
    }
  }
}