{
  "address": "0x3e448EFE0bE71A6a29C859AcA155fb461b28FD8D",
  "abi": [
    {
      "anonymous": false,
      "inputs": [
        {
          "indexed": true,
          "internalType": "address",
          "name": "concernedCouncilMember",
          "type": "address"
        },
        {
          "indexed": false,
          "internalType": "bool",
          "name": "removedOrAdded",
          "type": "bool"
        }
      ],
      "name": "ChangeInCouncilMember",
      "type": "event"
    },
    {
      "anonymous": false,
      "inputs": [
        {
          "indexed": true,
          "internalType": "address",
          "name": "accountAddress",
          "type": "address"
        },
        {
          "indexed": true,
          "internalType": "uint256",
          "name": "currentStatus",
          "type": "uint256"
        }
      ],
      "name": "ChangeInMembershipStatus",
      "type": "event"
    },
    {
      "anonymous": false,
      "inputs": [
        {
          "indexed": true,
          "internalType": "address",
          "name": "oldWallet",
          "type": "address"
        },
        {
          "indexed": true,
          "internalType": "address",
          "name": "newWallet",
          "type": "address"
        }
      ],
      "name": "ChangeInWalletAddress",
      "type": "event"
    },
    {
      "anonymous": false,
      "inputs": [
        {
          "indexed": true,
          "internalType": "address",
          "name": "delegator",
          "type": "address"
        },
        {
          "indexed": true,
          "internalType": "address",
          "name": "fromDelegate",
          "type": "address"
        },
        {
          "indexed": true,
          "internalType": "address",
          "name": "toDelegate",
          "type": "address"
        }
      ],
      "name": "DelegateChanged",
      "type": "event"
    },
    {
      "anonymous": false,
      "inputs": [
        {
          "indexed": true,
          "internalType": "address",
          "name": "delegate",
          "type": "address"
        },
        {
          "indexed": false,
          "internalType": "uint256",
          "name": "previousBalance",
          "type": "uint256"
        },
        {
          "indexed": false,
          "internalType": "uint256",
          "name": "newBalance",
          "type": "uint256"
        }
      ],
      "name": "DelegateVotesChanged",
      "type": "event"
    },
    {
      "anonymous": false,
      "inputs": [
        {
          "indexed": false,
          "internalType": "uint8",
          "name": "version",
          "type": "uint8"
        }
      ],
      "name": "Initialized",
      "type": "event"
    },
    {
      "anonymous": false,
      "inputs": [
        {
          "indexed": true,
          "internalType": "address",
          "name": "previousOwner",
          "type": "address"
        },
        {
          "indexed": true,
          "internalType": "address",
          "name": "newOwner",
          "type": "address"
        }
      ],
      "name": "OwnershipTransferred",
      "type": "event"
    },
    {
      "inputs": [
        {
          "internalType": "address",
          "name": "_adr",
          "type": "address"
        }
      ],
      "name": "addCouncilMember",
      "outputs": [
        {
          "internalType": "bool",
          "name": "",
          "type": "bool"
        }
      ],
      "stateMutability": "nonpayable",
      "type": "function"
    },
    {
      "inputs": [
        {
          "internalType": "address",
          "name": "_adr",
          "type": "address"
        }
      ],
      "name": "approveMembership",
      "outputs": [
        {
          "internalType": "bool",
          "name": "",
          "type": "bool"
        }
      ],
      "stateMutability": "nonpayable",
      "type": "function"
    },
    {
      "inputs": [
        {
          "internalType": "uint256",
          "name": "",
          "type": "uint256"
        }
      ],
      "name": "councilMembers",
      "outputs": [
        {
          "internalType": "address",
          "name": "",
          "type": "address"
        }
      ],
      "stateMutability": "view",
      "type": "function"
    },
    {
      "inputs": [
        {
          "internalType": "address",
          "name": "delegatee",
          "type": "address"
        }
      ],
      "name": "delegate",
      "outputs": [],
      "stateMutability": "nonpayable",
      "type": "function"
    },
    {
      "inputs": [
        {
          "internalType": "address",
          "name": "delegatee",
          "type": "address"
        },
        {
          "internalType": "uint256",
          "name": "nonce",
          "type": "uint256"
        },
        {
          "internalType": "uint256",
          "name": "expiry",
          "type": "uint256"
        },
        {
          "internalType": "uint8",
          "name": "v",
          "type": "uint8"
        },
        {
          "internalType": "bytes32",
          "name": "r",
          "type": "bytes32"
        },
        {
          "internalType": "bytes32",
          "name": "s",
          "type": "bytes32"
        }
      ],
      "name": "delegateBySig",
      "outputs": [],
      "stateMutability": "nonpayable",
      "type": "function"
    },
    {
      "inputs": [
        {
          "internalType": "address",
          "name": "account",
          "type": "address"
        }
      ],
      "name": "delegates",
      "outputs": [
        {
          "internalType": "address",
          "name": "",
          "type": "address"
        }
      ],
      "stateMutability": "pure",
      "type": "function"
    },
    {
      "inputs": [],
      "name": "getCouncilMembersLength",
      "outputs": [
        {
          "internalType": "uint256",
          "name": "",
          "type": "uint256"
        }
      ],
      "stateMutability": "view",
      "type": "function"
    },
    {
      "inputs": [
        {
          "internalType": "address",
          "name": "_adr",
          "type": "address"
        }
      ],
      "name": "getFirstApproval",
      "outputs": [
        {
          "internalType": "address",
          "name": "",
          "type": "address"
        }
      ],
      "stateMutability": "view",
      "type": "function"
    },
    {
      "inputs": [],
      "name": "getMembersLength",
      "outputs": [
        {
          "internalType": "uint256",
          "name": "",
          "type": "uint256"
        }
      ],
      "stateMutability": "view",
      "type": "function"
    },
    {
      "inputs": [
        {
          "internalType": "address",
          "name": "_adr",
          "type": "address"
        }
      ],
      "name": "getMembershipStatus",
      "outputs": [
        {
          "internalType": "uint256",
          "name": "",
          "type": "uint256"
        }
      ],
      "stateMutability": "view",
      "type": "function"
    },
    {
      "inputs": [
        {
          "internalType": "uint256",
          "name": "blockNumber",
          "type": "uint256"
        }
      ],
      "name": "getPastTotalSupply",
      "outputs": [
        {
          "internalType": "uint256",
          "name": "",
          "type": "uint256"
        }
      ],
      "stateMutability": "view",
      "type": "function"
    },
    {
      "inputs": [
        {
          "internalType": "address",
          "name": "account",
          "type": "address"
        },
        {
          "internalType": "uint256",
          "name": "blockNumber",
          "type": "uint256"
        }
      ],
      "name": "getPastVotes",
      "outputs": [
        {
          "internalType": "uint256",
          "name": "",
          "type": "uint256"
        }
      ],
      "stateMutability": "view",
      "type": "function"
    },
    {
      "inputs": [
        {
          "internalType": "address",
          "name": "account",
          "type": "address"
        }
      ],
      "name": "getVotes",
      "outputs": [
        {
          "internalType": "uint256",
          "name": "",
          "type": "uint256"
        }
      ],
      "stateMutability": "view",
      "type": "function"
    },
    {
      "inputs": [
        {
          "internalType": "address",
          "name": "_firstCouncilMember",
          "type": "address"
        },
        {
          "internalType": "address",
          "name": "_secondCouncilMember",
          "type": "address"
        },
        {
          "internalType": "contract Wallet",
          "name": "_walletContract",
          "type": "address"
        }
      ],
      "name": "initialize",
      "outputs": [],
      "stateMutability": "nonpayable",
      "type": "function"
    },
    {
      "inputs": [
        {
          "internalType": "address",
          "name": "_adr",
          "type": "address"
        }
      ],
      "name": "isCouncilMember",
      "outputs": [
        {
          "internalType": "bool",
          "name": "",
          "type": "bool"
        }
      ],
      "stateMutability": "view",
      "type": "function"
    },
    {
      "inputs": [],
      "name": "lockMembership",
      "outputs": [],
      "stateMutability": "nonpayable",
      "type": "function"
    },
    {
      "inputs": [
        {
          "internalType": "uint256",
          "name": "",
          "type": "uint256"
        }
      ],
      "name": "members",
      "outputs": [
        {
          "internalType": "address",
          "name": "",
          "type": "address"
        }
      ],
      "stateMutability": "view",
      "type": "function"
    },
    {
      "inputs": [],
      "name": "membershipActive",
      "outputs": [
        {
          "internalType": "bool",
          "name": "",
          "type": "bool"
        }
      ],
      "stateMutability": "view",
      "type": "function"
    },
    {
      "inputs": [],
      "name": "membershipFee",
      "outputs": [
        {
          "internalType": "uint256",
          "name": "",
          "type": "uint256"
        }
      ],
      "stateMutability": "view",
      "type": "function"
    },
    {
      "inputs": [],
      "name": "minimumCouncilMembers",
      "outputs": [
        {
          "internalType": "uint256",
          "name": "",
          "type": "uint256"
        }
      ],
      "stateMutability": "view",
      "type": "function"
    },
    {
      "inputs": [
        {
          "internalType": "address",
          "name": "",
          "type": "address"
        }
      ],
      "name": "nextMembershipFeePayment",
      "outputs": [
        {
          "internalType": "uint256",
          "name": "",
          "type": "uint256"
        }
      ],
      "stateMutability": "view",
      "type": "function"
    },
    {
      "inputs": [],
      "name": "owner",
      "outputs": [
        {
          "internalType": "address",
          "name": "",
          "type": "address"
        }
      ],
      "stateMutability": "view",
      "type": "function"
    },
    {
      "inputs": [],
      "name": "payMembershipFee",
      "outputs": [],
      "stateMutability": "payable",
      "type": "function"
    },
    {
      "inputs": [
        {
          "internalType": "address",
          "name": "_adr",
          "type": "address"
        }
      ],
      "name": "removeCouncilMember",
      "outputs": [
        {
          "internalType": "bool",
          "name": "",
          "type": "bool"
        }
      ],
      "stateMutability": "nonpayable",
      "type": "function"
    },
    {
      "inputs": [
        {
          "internalType": "address",
          "name": "_adr",
          "type": "address"
        }
      ],
      "name": "removeMember",
      "outputs": [],
      "stateMutability": "nonpayable",
      "type": "function"
    },
    {
      "inputs": [],
      "name": "removeMembersThatDidntPay",
      "outputs": [],
      "stateMutability": "nonpayable",
      "type": "function"
    },
    {
      "inputs": [],
      "name": "renounceOwnership",
      "outputs": [],
      "stateMutability": "nonpayable",
      "type": "function"
    },
    {
      "inputs": [],
      "name": "requestMembership",
      "outputs": [
        {
          "internalType": "bool",
          "name": "",
          "type": "bool"
        }
      ],
      "stateMutability": "nonpayable",
      "type": "function"
    },
    {
      "inputs": [
        {
          "internalType": "uint256",
          "name": "newMembershipFee",
          "type": "uint256"
        }
      ],
      "name": "setMembershipFee",
      "outputs": [],
      "stateMutability": "nonpayable",
      "type": "function"
    },
    {
      "inputs": [
        {
          "internalType": "uint256",
          "name": "newMinimumCouncilMembers",
          "type": "uint256"
        }
      ],
      "name": "setMinimumCouncilMembers",
      "outputs": [],
      "stateMutability": "nonpayable",
      "type": "function"
    },
    {
      "inputs": [
        {
          "internalType": "contract Wallet",
          "name": "newWallet",
          "type": "address"
        }
      ],
      "name": "setNewWalletAddress",
      "outputs": [],
      "stateMutability": "nonpayable",
      "type": "function"
    },
    {
      "inputs": [
        {
          "internalType": "address",
          "name": "newOwner",
          "type": "address"
        }
      ],
      "name": "transferOwnership",
      "outputs": [],
      "stateMutability": "nonpayable",
      "type": "function"
    }
  ],
  "transactionHash": "0x4b403ca4bedc76a2fdff9f8f0e9bfd961862c0f4043922aeb056d340551aeec5",
  "args": [],
  "numDeployments": 1,
  "solcInputHash": "5e7ead6f489ba1541e29a5c0da5dc006",
  "bytecode": "0x608060405234801561001057600080fd5b50612525806100206000396000f3fe6080604052600436106101735760003560e01c80630b1ca49a14610178578063146677601461019a578063248e9bf8146101c9578063289f53751461020f5780633a46b1a81461022f5780633b18fd1e1461025d5780635720439d1461028a578063587cde1e146102aa5780635c19a95c146102c85780635daf08ca146102e6578063715018a614610306578063751a6a341461031b57806379a68cf11461033b5780637b10b2931461035b5780638da5cb5b146103705780638e539e8c146103855780639ab24eb0146103a5578063a7f2f4e2146103c5578063affc38bc146103e5578063bfe5810b146103ed578063c0c53b8b1461040d578063c3cda5201461042d578063c3fdd4cb14610450578063c60b2f8214610465578063c713a28914610485578063d55fda0d1461049b578063da7474aa146104b0578063ebd7dc52146104c6578063f1d3b27d146104e6578063f2fde38b146104fb578063f4c970cd1461051b578063fc53c8211461053b575b600080fd5b34801561018457600080fd5b5061019861019336600461218f565b610550565b005b3480156101a657600080fd5b50606f546101b49060ff1681565b60405190151581526020015b60405180910390f35b3480156101d557600080fd5b506102026101e436600461218f565b6001600160a01b039081166000908152606e60205260409020541690565b6040516101c091906121ac565b34801561021b57600080fd5b506101b461022a36600461218f565b61062a565b34801561023b57600080fd5b5061024f61024a3660046121c0565b61077f565b6040519081526020016101c0565b34801561026957600080fd5b5061024f61027836600461218f565b60666020526000908152604090205481565b34801561029657600080fd5b506101b46102a536600461218f565b6107aa565b3480156102b657600080fd5b506102026102c536600461218f565b90565b3480156102d457600080fd5b506101986102e336600461218f565b50565b3480156102f257600080fd5b506102026103013660046121ec565b610b64565b34801561031257600080fd5b50610198610b8e565b34801561032757600080fd5b506102026103363660046121ec565b610ba2565b34801561034757600080fd5b506101b461035636600461218f565b610bb2565b34801561036757600080fd5b506101b4610dcd565b34801561037c57600080fd5b50610202610ebc565b34801561039157600080fd5b5061024f6103a03660046121ec565b610ecb565b3480156103b157600080fd5b5061024f6103c036600461218f565b610f24565b3480156103d157600080fd5b5061024f6103e036600461218f565b610f54565b610198610f81565b3480156103f957600080fd5b5061019861040836600461218f565b611185565b34801561041957600080fd5b50610198610428366004612205565b6111cd565b34801561043957600080fd5b50610198610448366004612250565b505050505050565b34801561045c57600080fd5b50610198611507565b34801561047157600080fd5b506101986104803660046121ec565b61166c565b34801561049157600080fd5b5061024f606a5481565b3480156104a757600080fd5b50606b5461024f565b3480156104bc57600080fd5b5061024f60695481565b3480156104d257600080fd5b506101b46104e136600461218f565b611679565b3480156104f257600080fd5b50610198611740565b34801561050757600080fd5b5061019861051636600461218f565b611754565b34801561052757600080fd5b506101986105363660046121ec565b6117ca565b34801561054757600080fd5b50606c5461024f565b606f5460ff1661057b5760405162461bcd60e51b8152600401610572906122b2565b60405180910390fd5b6001600160a01b0381166000908152606d602052604081205460ff1660038111156105a8576105a86122e4565b036105f05760405162461bcd60e51b815260206004820152601860248201527741646472657373206973206e6f742061206d656d6265722160401b6044820152606401610572565b336001600160a01b0382161461060857610608611823565b61061181611679565b156106215761061f816107aa565b505b6102e381611882565b6000610634611823565b606f5460ff166106565760405162461bcd60e51b8152600401610572906122b2565b60036001600160a01b0383166000908152606d602052604090205460ff166003811115610685576106856122e4565b146106c55760405162461bcd60e51b815260206004820152601060248201526f26bab9ba10313290309036b2b6b132b960811b6044820152606401610572565b6106ce82611679565b156107185760405162461bcd60e51b815260206004820152601a602482015279497320616c726561647920636f756e63696c206d656d6265722160301b6044820152606401610572565b606b8054600180820183556000929092526000805160206124908339815191520180546001600160a01b0319166001600160a01b038516908117909155604051918252906000805160206124708339815191529060200160405180910390a2506001919050565b6001600160a01b03821660009081526067602052604081206107a19083611a7a565b90505b92915050565b606f5460009060ff166107cf5760405162461bcd60e51b8152600401610572906122b2565b6107d882611679565b15156001146108215760405162461bcd60e51b81526020600482015260156024820152744973206e6f20636f756e63696c206d656d6265722160581b6044820152606401610572565b606954306001600160a01b031663d55fda0d6040518163ffffffff1660e01b8152600401602060405180830381865afa158015610862573d6000803e3d6000fd5b505050506040513d601f19601f8201168201806040525081019061088691906122fa565b116108d25760405162461bcd60e51b815260206004820152601c60248201527b4d696e20636f756e63696c206d656d62657273206e6f74206d65742160201b6044820152606401610572565b336001600160a01b038316146108ea576108ea611823565b60005b6001306001600160a01b031663d55fda0d6040518163ffffffff1660e01b8152600401602060405180830381865afa15801561092d573d6000803e3d6000fd5b505050506040513d601f19601f8201168201806040525081019061095191906122fa565b61095b9190612329565b8110156109ab57826001600160a01b0316606b828154811061097f5761097f61233c565b6000918252602090912001546001600160a01b0316146109ab57806109a381612352565b9150506108ed565b6001306001600160a01b031663d55fda0d6040518163ffffffff1660e01b8152600401602060405180830381865afa1580156109eb573d6000803e3d6000fd5b505050506040513d601f19601f82011682018060405250810190610a0f91906122fa565b610a199190612329565b8114610afa57606b6001306001600160a01b031663d55fda0d6040518163ffffffff1660e01b8152600401602060405180830381865afa158015610a61573d6000803e3d6000fd5b505050506040513d601f19601f82011682018060405250810190610a8591906122fa565b610a8f9190612329565b81548110610a9f57610a9f61233c565b600091825260209091200154606b80546001600160a01b039092169183908110610acb57610acb61233c565b9060005260206000200160006101000a8154816001600160a01b0302191690836001600160a01b031602179055505b606b805480610b0b57610b0b61236b565b60008281526020808220830160001990810180546001600160a01b03191690559092019092556040519182526001600160a01b03851691600080516020612470833981519152910160405180910390a250600192915050565b606c8181548110610b7457600080fd5b6000918252602090912001546001600160a01b0316905081565b610b96611823565b610ba06000611b95565b565b606b8181548110610b7457600080fd5b6000610bbd33611679565b1515600114610c045760405162461bcd60e51b815260206004820152601360248201527237b7363c9031b7bab731b4b61036b2b6b132b960691b6044820152606401610572565b606f5460ff16610c265760405162461bcd60e51b8152600401610572906122b2565b60016001600160a01b0383166000908152606d602052604090205460ff166003811115610c5557610c556122e4565b1480610cb2575060026001600160a01b0383166000908152606d602052604090205460ff166003811115610c8b57610c8b6122e4565b148015610cb257506001600160a01b038281166000908152606e6020526040902054163314155b610cf75760405162461bcd60e51b8152602060048201526016602482015275496e76616c6964206d656d626572207374617475732160501b6044820152606401610572565b60016001600160a01b0383166000908152606d602052604090205460ff166003811115610d2657610d266122e4565b03610d87576001600160a01b0382166000818152606d602090815260408083208054600260ff199091168117909155606e90925280832080546001600160a01b03191633179055519092916000805160206124d083398151915291a3610dc5565b6001600160a01b0382166000818152606d6020526040808220805460ff1916600390811790915590519092916000805160206124d083398151915291a35b506001919050565b600080336000908152606d602052604090205460ff166003811115610df457610df46122e4565b14610e345760405162461bcd60e51b815260206004820152601060248201526f6f6e6c79206e6f6e2d6d656d6265727360801b6044820152606401610572565b606f5460ff16610e565760405162461bcd60e51b8152600401610572906122b2565b336000818152606d6020526040808220805460ff19166001908117909155606c805480830182559084526000805160206124b08339815191520180546001600160a01b0319168517905590519092916000805160206124d083398151915291a350600190565b6033546001600160a01b031690565b6000438210610f195760405162461bcd60e51b815260206004820152601a602482015279159bdd195cce88189b1bd8dac81b9bdd081e595d081b5a5b995960321b6044820152606401610572565b6107a4606883611a7a565b6001600160a01b0381166000908152606760205260408120610f4590611be7565b6001600160e01b031692915050565b6001600160a01b0381166000908152606d602052604081205460ff1660038111156107a4576107a46122e4565b6003336000908152606d602052604090205460ff166003811115610fa757610fa76122e4565b14610fe35760405162461bcd60e51b815260206004820152600c60248201526b6f6e6c79206d656d6265727360a01b6044820152606401610572565b606f5460ff166110055760405162461bcd60e51b8152600401610572906122b2565b33600090815260666020526040902054428111156110635760405162461bcd60e51b815260206004820152601b60248201527a26b2b6b132b939b434b8103332b2903737ba10323ab2903cb2ba1760291b6044820152606401610572565b606a543410156110b35760405162461bcd60e51b815260206004820152601b60248201527a4d656d6265727368697020666565206e6f7420636f76657265642160281b6044820152606401610572565b6110c1426301e13380612381565b3360008181526066602052604090819020929092556065549151631c4356c560e21b81526001600160a01b039092169163710d5b1491349161110691906004016121ac565b60206040518083038185885af1158015611124573d6000803e3d6000fd5b50505050506040513d601f19601f820116820180604052508101906111499190612394565b50806000036102e3576111616068611c216001611c2d565b505033600090815260676020526040902061118090611c216001611c2d565b505050565b61118d611823565b606580546001600160a01b038381166001600160a01b03198316811790935560405191169190829060008051602061245083398151915290600090a35050565b600054610100900460ff16158080156111ed5750600054600160ff909116105b806112075750303b158015611207575060005460ff166001145b61126a5760405162461bcd60e51b815260206004820152602e60248201527f496e697469616c697a61626c653a20636f6e747261637420697320616c72656160448201526d191e481a5b9a5d1a585b1a5e995960921b6064820152608401610572565b6000805460ff19166001179055801561128d576000805461ff0019166101001790555b611295611c65565b6002606955617530606a55606580546001600160a01b0319166001600160a01b038416908117909155606f805460ff19166001179055604051600090600080516020612450833981519152908290a3606b80546001808201835560008051602061249083398151915291820180546001600160a01b038981166001600160a01b031992831681179093558554808501909655949093018054948816948416851790556000818152606d60209081526040808320805460ff19908116600390811790925588855282852080549091169091179055606c805480870182556000805160206124b0833981519152908101805489168717905581549687019091559490940180549095168617909455908152606690925280822042908190559282529020556113c66068611c216002611c2d565b50506001600160a01b03841660009081526067602052604090206113ee90611c216001611c2d565b50506001600160a01b038316600090815260676020526040902061141690611c216001611c2d565b50600390506040516001600160a01b038616906000805160206124d083398151915290600090a3604051600181526001600160a01b038516906000805160206124708339815191529060200160405180910390a260036040516001600160a01b038516906000805160206124d083398151915290600090a3604051600181526001600160a01b038416906000805160206124708339815191529060200160405180910390a28015611501576000805461ff0019169055604051600181527f7f26b83ff96e1f2b6a682f133852f6798a09c465da95921460cefb38474024989060200160405180910390a15b50505050565b606f5460ff166115295760405162461bcd60e51b8152600401610572906122b2565b606c546000906001600160401b03811115611546576115466123b6565b60405190808252806020026020018201604052801561156f578160200160208202803683370190505b5090506000805b606c5481101561162b576000606c82815481106115955761159561233c565b60009182526020808320909101546001600160a01b0316808352606690915260409091205490915080158015906115cb57508042115b15611616576115d982611679565b61161657818585815181106115f0576115f061233c565b6001600160a01b03909216602092830291909101909101528361161281612352565b9450505b5050808061162390612352565b915050611576565b5060005b82518110156111805761165a83828151811061164d5761164d61233c565b6020026020010151611882565b8061166481612352565b91505061162f565b611674611823565b606a55565b600080805b306001600160a01b031663d55fda0d6040518163ffffffff1660e01b8152600401602060405180830381865afa1580156116bc573d6000803e3d6000fd5b505050506040513d601f19601f820116820180604052508101906116e091906122fa565b81101561173957836001600160a01b0316606b82815481106117045761170461233c565b6000918252602090912001546001600160a01b0316036117275760019150611739565b8061173181612352565b91505061167e565b5092915050565b611748611823565b606f805460ff19169055565b61175c611823565b6001600160a01b0381166117c15760405162461bcd60e51b815260206004820152602660248201527f4f776e61626c653a206e6577206f776e657220697320746865207a65726f206160448201526564647265737360d01b6064820152608401610572565b6102e381611b95565b6117d2611823565b606b5481111561181e5760405162461bcd60e51b8152602060048201526017602482015276546f2066657720636f756e63696c206d656d626572732160481b6044820152606401610572565b606955565b3361182c610ebc565b6001600160a01b031614610ba05760405162461bcd60e51b815260206004820181905260248201527f4f776e61626c653a2063616c6c6572206973206e6f7420746865206f776e65726044820152606401610572565b60036001600160a01b0382166000908152606d602052604090205460ff1660038111156118b1576118b16122e4565b1480156118d557506001600160a01b03811660009081526066602052604090205415155b15611914576118e96068611c946001611c2d565b50506001600160a01b038116600090815260676020526040902061191190611c946001611c2d565b50505b6001600160a01b0381166000908152606e6020908152604080832080546001600160a01b0319169055606d9091528120805460ff191690555b606c54811015611a5257816001600160a01b0316606c82815481106119745761197461233c565b6000918252602090912001546001600160a01b031603611a4057606c805461199e90600190612329565b815481106119ae576119ae61233c565b600091825260209091200154606c80546001600160a01b0390921691839081106119da576119da61233c565b9060005260206000200160006101000a8154816001600160a01b0302191690836001600160a01b03160217905550606c805480611a1957611a1961236b565b600082815260209020810160001990810180546001600160a01b0319169055019055611a52565b80611a4a81612352565b91505061194d565b5060006040516001600160a01b038316906000805160206124d083398151915290600090a350565b6000438210611acb5760405162461bcd60e51b815260206004820181905260248201527f436865636b706f696e74733a20626c6f636b206e6f7420796574206d696e65646044820152606401610572565b6000611ad683611ca0565b84549091506000816005811115611b34576000611af284611d09565b611afc9085612329565b60008981526020902090915081015463ffffffff9081169086161015611b2457809150611b32565b611b2f816001612381565b92505b505b6000611b4288868585611df1565b90508015611b7d57611b6788611b59600184612329565b600091825260209091200190565b54600160201b90046001600160e01b0316611b80565b60005b6001600160e01b031698975050505050505050565b603380546001600160a01b038381166001600160a01b0319831681179093556040519116919082907f8be0079c531659141344cd1fd0a4f28419497f9722a3daafe3b4186f6b6457e090600090a35050565b80546000908015611c1757611c0183611b59600184612329565b54600160201b90046001600160e01b0316611c1a565b60005b9392505050565b60006107a18284612381565b600080611c5885611c53611c4088611be7565b6001600160e01b0316868863ffffffff16565b611e4f565b915091505b935093915050565b600054610100900460ff16611c8c5760405162461bcd60e51b8152600401610572906123cc565b610ba0611e83565b60006107a18284612329565b600063ffffffff821115611d055760405162461bcd60e51b815260206004820152602660248201527f53616665436173743a2076616c756520646f65736e27742066697420696e203360448201526532206269747360d01b6064820152608401610572565b5090565b600081600003611d1b57506000919050565b60006001611d2884611eb3565b901c6001901b90506001818481611d4157611d41612417565b048201901c90506001818481611d5957611d59612417565b048201901c90506001818481611d7157611d71612417565b048201901c90506001818481611d8957611d89612417565b048201901c90506001818481611da157611da1612417565b048201901c90506001818481611db957611db9612417565b048201901c90506001818481611dd157611dd1612417565b048201901c9050611c1a81828581611deb57611deb612417565b04611f47565b60005b81831015611e47576000611e088484611f5d565b60008781526020902090915063ffffffff86169082015463ffffffff161115611e3357809250611e41565b611e3e816001612381565b93505b50611df4565b509392505050565b600080611e6d84611e5f43611ca0565b611e6886611f78565b611fe1565b6001600160e01b03918216969116945092505050565b600054610100900460ff16611eaa5760405162461bcd60e51b8152600401610572906123cc565b610ba033611b95565b600080608083901c15611ec857608092831c92015b604083901c15611eda57604092831c92015b602083901c15611eec57602092831c92015b601083901c15611efe57601092831c92015b600883901c15611f1057600892831c92015b600483901c15611f2257600492831c92015b600283901c15611f3457600292831c92015b600183901c156107a45760010192915050565b6000818310611f5657816107a1565b5090919050565b6000611f6c600284841861242d565b6107a190848416612381565b60006001600160e01b03821115611d055760405162461bcd60e51b815260206004820152602760248201527f53616665436173743a2076616c756520646f65736e27742066697420696e20326044820152663234206269747360c81b6064820152608401610572565b825460009081908015612121576000611fff87611b59600185612329565b60408051808201909152905463ffffffff808216808452600160201b9092046001600160e01b03166020840152919250908716101561207a5760405162461bcd60e51b8152602060048201526017602482015276436865636b706f696e743a20696e76616c6964206b657960481b6044820152606401610572565b805163ffffffff8088169116036120c2578461209b88611b59600186612329565b80546001600160e01b0392909216600160201b0263ffffffff909216919091179055612111565b6040805180820190915263ffffffff80881682526001600160e01b0380881660208085019182528b54600181018d5560008d81529190912094519151909216600160201b029216919091179101555b602001519250839150611c5d9050565b50506040805180820190915263ffffffff80851682526001600160e01b0380851660208085019182528854600181018a5560008a815291822095519251909316600160201b029190931617920191909155905081611c5d565b6001600160a01b03811681146102e357600080fd5b6000602082840312156121a157600080fd5b8135611c1a8161217a565b6001600160a01b0391909116815260200190565b600080604083850312156121d357600080fd5b82356121de8161217a565b946020939093013593505050565b6000602082840312156121fe57600080fd5b5035919050565b60008060006060848603121561221a57600080fd5b83356122258161217a565b925060208401356122358161217a565b915060408401356122458161217a565b809150509250925092565b60008060008060008060c0878903121561226957600080fd5b86356122748161217a565b95506020870135945060408701359350606087013560ff8116811461229857600080fd5b9598949750929560808101359460a0909101359350915050565b6020808252601890820152774d656d62657273686970206973206e6f742061637469766560401b604082015260600190565b634e487b7160e01b600052602160045260246000fd5b60006020828403121561230c57600080fd5b5051919050565b634e487b7160e01b600052601160045260246000fd5b818103818111156107a4576107a4612313565b634e487b7160e01b600052603260045260246000fd5b60006001820161236457612364612313565b5060010190565b634e487b7160e01b600052603160045260246000fd5b808201808211156107a4576107a4612313565b6000602082840312156123a657600080fd5b81518015158114611c1a57600080fd5b634e487b7160e01b600052604160045260246000fd5b6020808252602b908201527f496e697469616c697a61626c653a20636f6e7472616374206973206e6f74206960408201526a6e697469616c697a696e6760a81b606082015260800190565b634e487b7160e01b600052601260045260246000fd5b60008261244a57634e487b7160e01b600052601260045260246000fd5b50049056fe74afb8740b7c4e5a37e7035f73db16ccb6e60202bb67415581dbb39065fc23e6cc43b4a573a122d827def8c5be668587097a84743df7f01195427cafe65381c2bd43cb8ece8cd1863bcd6082d65c5b0d25665b1ce17980f0da43c0ed545f98b42b4a51ab505fc96a0952efda2ba61bcd3078d4c02c39a186ec16f21883fbe0164f1b9dde7946cb2308d2ff71fe7e03b9ffadf198ee9292fbae7c9e9e19c573f3a2646970667358221220da3413e98c42cebe363d2b052a8d1eb55c669f25390ff72dec90a4215c83d36464736f6c63430008110033",
  "devdoc": {
    "kind": "dev",
    "methods": {
      "delegate(address)": {
        "details": "Delegates votes from the sender to `delegatee`."
      },
      "delegateBySig(address,uint256,uint256,uint8,bytes32,bytes32)": {
        "details": "Delegates votes from signer to `delegatee`."
      },
      "delegates(address)": {
        "details": "Returns the delegate that `account` has chosen."
      },
      "getPastTotalSupply(uint256)": {
        "details": "Returns the total supply of votes available at the end of a past block (`blockNumber`). NOTE: This value is the sum of all available votes, which is not necessarily the sum of all delegated votes. Votes that have not been delegated are still part of total supply, even though they would not participate in a vote."
      },
      "getPastVotes(address,uint256)": {
        "details": "Returns the amount of votes that `account` had at the end of a past block (`blockNumber`)."
      },
      "getVotes(address)": {
        "details": "Returns the current amount of votes that `account` has."
      },
      "owner()": {
        "details": "Returns the address of the current owner."
      },
      "renounceOwnership()": {
        "details": "Leaves the contract without owner. It will not be possible to call `onlyOwner` functions anymore. Can only be called by the current owner. NOTE: Renouncing ownership will leave the contract without an owner, thereby removing any functionality that is only available to the owner."
      },
      "transferOwnership(address)": {
        "details": "Transfers ownership of the contract to a new account (`newOwner`). Can only be called by the current owner."
      }
    },
    "version": 1
  },
  "userdoc": {
    "kind": "user",
    "methods": {},
    "version": 1
  },
  "storageLayout": {
    "storage": [
      {
        "astId": 1950,
        "contract": "contracts/Membership.sol:Membership",
        "label": "_initialized",
        "offset": 0,
        "slot": "0",
        "type": "t_uint8"
      },
      {
        "astId": 1953,
        "contract": "contracts/Membership.sol:Membership",
        "label": "_initializing",
        "offset": 1,
        "slot": "0",
        "type": "t_bool"
      },
      {
        "astId": 4582,
        "contract": "contracts/Membership.sol:Membership",
        "label": "__gap",
        "offset": 0,
        "slot": "1",
        "type": "t_array(t_uint256)50_storage"
      },
      {
        "astId": 419,
        "contract": "contracts/Membership.sol:Membership",
        "label": "_owner",
        "offset": 0,
        "slot": "51",
        "type": "t_address"
      },
      {
        "astId": 539,
        "contract": "contracts/Membership.sol:Membership",
        "label": "__gap",
        "offset": 0,
        "slot": "52",
        "type": "t_array(t_uint256)49_storage"
      },
      {
        "astId": 9401,
        "contract": "contracts/Membership.sol:Membership",
        "label": "_wallet",
        "offset": 0,
        "slot": "101",
        "type": "t_contract(Wallet)11315"
      },
      {
        "astId": 9405,
        "contract": "contracts/Membership.sol:Membership",
        "label": "nextMembershipFeePayment",
        "offset": 0,
        "slot": "102",
        "type": "t_mapping(t_address,t_uint256)"
      },
      {
        "astId": 9410,
        "contract": "contracts/Membership.sol:Membership",
        "label": "_voteCheckpoints",
        "offset": 0,
        "slot": "103",
        "type": "t_mapping(t_address,t_struct(History)3180_storage)"
      },
      {
        "astId": 9413,
        "contract": "contracts/Membership.sol:Membership",
        "label": "_totalCheckpoints",
        "offset": 0,
        "slot": "104",
        "type": "t_struct(History)3180_storage"
      },
      {
        "astId": 9415,
        "contract": "contracts/Membership.sol:Membership",
        "label": "minimumCouncilMembers",
        "offset": 0,
        "slot": "105",
        "type": "t_uint256"
      },
      {
        "astId": 9417,
        "contract": "contracts/Membership.sol:Membership",
        "label": "membershipFee",
        "offset": 0,
        "slot": "106",
        "type": "t_uint256"
      },
      {
        "astId": 9420,
        "contract": "contracts/Membership.sol:Membership",
        "label": "councilMembers",
        "offset": 0,
        "slot": "107",
        "type": "t_array(t_address)dyn_storage"
      },
      {
        "astId": 9423,
        "contract": "contracts/Membership.sol:Membership",
        "label": "members",
        "offset": 0,
        "slot": "108",
        "type": "t_array(t_address)dyn_storage"
      },
      {
        "astId": 9428,
        "contract": "contracts/Membership.sol:Membership",
        "label": "membershipList",
        "offset": 0,
        "slot": "109",
        "type": "t_mapping(t_address,t_enum(MembershipStatus)9398)"
      },
      {
        "astId": 9432,
        "contract": "contracts/Membership.sol:Membership",
        "label": "firstApproval",
        "offset": 0,
        "slot": "110",
        "type": "t_mapping(t_address,t_address)"
      },
      {
        "astId": 9434,
        "contract": "contracts/Membership.sol:Membership",
        "label": "membershipActive",
        "offset": 0,
        "slot": "111",
        "type": "t_bool"
      }
    ],
    "types": {
      "t_address": {
        "encoding": "inplace",
        "label": "address",
        "numberOfBytes": "20"
      },
      "t_array(t_address)dyn_storage": {
        "base": "t_address",
        "encoding": "dynamic_array",
        "label": "address[]",
        "numberOfBytes": "32"
      },
      "t_array(t_struct(Checkpoint)3185_storage)dyn_storage": {
        "base": "t_struct(Checkpoint)3185_storage",
        "encoding": "dynamic_array",
        "label": "struct CheckpointsUpgradeable.Checkpoint[]",
        "numberOfBytes": "32"
      },
      "t_array(t_uint256)49_storage": {
        "base": "t_uint256",
        "encoding": "inplace",
        "label": "uint256[49]",
        "numberOfBytes": "1568"
      },
      "t_array(t_uint256)50_storage": {
        "base": "t_uint256",
        "encoding": "inplace",
        "label": "uint256[50]",
        "numberOfBytes": "1600"
      },
      "t_bool": {
        "encoding": "inplace",
        "label": "bool",
        "numberOfBytes": "1"
      },
      "t_contract(Wallet)11315": {
        "encoding": "inplace",
        "label": "contract Wallet",
        "numberOfBytes": "20"
      },
      "t_enum(MembershipStatus)9398": {
        "encoding": "inplace",
        "label": "enum Membership.MembershipStatus",
        "numberOfBytes": "1"
      },
      "t_mapping(t_address,t_address)": {
        "encoding": "mapping",
        "key": "t_address",
        "label": "mapping(address => address)",
        "numberOfBytes": "32",
        "value": "t_address"
      },
      "t_mapping(t_address,t_enum(MembershipStatus)9398)": {
        "encoding": "mapping",
        "key": "t_address",
        "label": "mapping(address => enum Membership.MembershipStatus)",
        "numberOfBytes": "32",
        "value": "t_enum(MembershipStatus)9398"
      },
      "t_mapping(t_address,t_struct(History)3180_storage)": {
        "encoding": "mapping",
        "key": "t_address",
        "label": "mapping(address => struct CheckpointsUpgradeable.History)",
        "numberOfBytes": "32",
        "value": "t_struct(History)3180_storage"
      },
      "t_mapping(t_address,t_uint256)": {
        "encoding": "mapping",
        "key": "t_address",
        "label": "mapping(address => uint256)",
        "numberOfBytes": "32",
        "value": "t_uint256"
      },
      "t_struct(Checkpoint)3185_storage": {
        "encoding": "inplace",
        "label": "struct CheckpointsUpgradeable.Checkpoint",
        "members": [
          {
            "astId": 3182,
            "contract": "contracts/Membership.sol:Membership",
            "label": "_blockNumber",
            "offset": 0,
            "slot": "0",
            "type": "t_uint32"
          },
          {
            "astId": 3184,
            "contract": "contracts/Membership.sol:Membership",
            "label": "_value",
            "offset": 4,
            "slot": "0",
            "type": "t_uint224"
          }
        ],
        "numberOfBytes": "32"
      },
      "t_struct(History)3180_storage": {
        "encoding": "inplace",
        "label": "struct CheckpointsUpgradeable.History",
        "members": [
          {
            "astId": 3179,
            "contract": "contracts/Membership.sol:Membership",
            "label": "_checkpoints",
            "offset": 0,
            "slot": "0",
            "type": "t_array(t_struct(Checkpoint)3185_storage)dyn_storage"
          }
        ],
        "numberOfBytes": "32"
      },
      "t_uint224": {
        "encoding": "inplace",
        "label": "uint224",
        "numberOfBytes": "28"
      },
      "t_uint256": {
        "encoding": "inplace",
        "label": "uint256",
        "numberOfBytes": "32"
      },
      "t_uint32": {
        "encoding": "inplace",
        "label": "uint32",
        "numberOfBytes": "4"
      },
      "t_uint8": {
        "encoding": "inplace",
        "label": "uint8",
        "numberOfBytes": "1"
      }
    }
  }
}