{
  "address": "0x18E3cfDB7956854370BcfC40074Bc54A134B27Bd",
  "abi": [
    {
      "anonymous": false,
      "inputs": [
        {
          "indexed": false,
          "internalType": "uint8",
          "name": "version",
          "type": "uint8"
        }
      ],
      "name": "Initialized",
      "type": "event"
    },
    {
      "anonymous": false,
      "inputs": [
        {
          "indexed": true,
          "internalType": "address",
          "name": "previousOwner",
          "type": "address"
        },
        {
          "indexed": true,
          "internalType": "address",
          "name": "newOwner",
          "type": "address"
        }
      ],
      "name": "OwnershipTransferred",
      "type": "event"
    },
    {
      "inputs": [
        {
          "internalType": "bytes32",
          "name": "userId",
          "type": "bytes32"
        },
        {
          "internalType": "uint256",
          "name": "totalPayOut",
          "type": "uint256"
        }
      ],
      "name": "getClaimableAmount",
      "outputs": [
        {
          "internalType": "uint256",
          "name": "",
          "type": "uint256"
        }
      ],
      "stateMutability": "view",
      "type": "function"
    },
    {
      "inputs": [
        {
          "internalType": "bytes32",
          "name": "userId",
          "type": "bytes32"
        }
      ],
      "name": "getPayedOut",
      "outputs": [
        {
          "internalType": "uint256",
          "name": "",
          "type": "uint256"
        }
      ],
      "stateMutability": "view",
      "type": "function"
    },
    {
      "inputs": [],
      "name": "initialize",
      "outputs": [],
      "stateMutability": "nonpayable",
      "type": "function"
    },
    {
      "inputs": [],
      "name": "owner",
      "outputs": [
        {
          "internalType": "address",
          "name": "",
          "type": "address"
        }
      ],
      "stateMutability": "view",
      "type": "function"
    },
    {
      "inputs": [
        {
          "internalType": "bytes32",
          "name": "",
          "type": "bytes32"
        }
      ],
      "name": "payedOut",
      "outputs": [
        {
          "internalType": "uint256",
          "name": "",
          "type": "uint256"
        }
      ],
      "stateMutability": "view",
      "type": "function"
    },
    {
      "inputs": [],
      "name": "renounceOwnership",
      "outputs": [],
      "stateMutability": "nonpayable",
      "type": "function"
    },
    {
      "inputs": [
        {
          "internalType": "address payable",
          "name": "receiver",
          "type": "address"
        },
        {
          "internalType": "uint256",
          "name": "amount",
          "type": "uint256"
        }
      ],
      "name": "sendRecover",
      "outputs": [],
      "stateMutability": "nonpayable",
      "type": "function"
    },
    {
      "inputs": [
        {
          "internalType": "address",
          "name": "newOwner",
          "type": "address"
        }
      ],
      "name": "transferOwnership",
      "outputs": [],
      "stateMutability": "nonpayable",
      "type": "function"
    },
    {
      "inputs": [
        {
          "internalType": "address payable",
          "name": "dev",
          "type": "address"
        },
        {
          "internalType": "bytes32",
          "name": "userId",
          "type": "bytes32"
        },
        {
          "internalType": "uint256",
          "name": "totalPayOut",
          "type": "uint256"
        },
        {
          "internalType": "uint8",
          "name": "v",
          "type": "uint8"
        },
        {
          "internalType": "bytes32",
          "name": "r",
          "type": "bytes32"
        },
        {
          "internalType": "bytes32",
          "name": "s",
          "type": "bytes32"
        }
      ],
      "name": "withdraw",
      "outputs": [],
      "stateMutability": "nonpayable",
      "type": "function"
    },
    {
      "stateMutability": "payable",
      "type": "receive"
    }
  ],
  "transactionHash": "0xd055c1d39aac9d99d3bf3a53c5bcbb98686e11d4bd28d36306fb405a4cbd9788",
  "args": [],
  "numDeployments": 1,
  "solcInputHash": "5e7ead6f489ba1541e29a5c0da5dc006",
  "bytecode": "0x608060405234801561001057600080fd5b50610b50806100206000396000f3fe60806040526004361061007a5760003560e01c80634c29371414610086578063715018a6146100c657806371676bd6146100dd5780638129fc1c146100fd5780638da5cb5b146101125780638e0fb98d1461013f578063d2fc98ea1461016c578063db6e81ef1461018c578063f2fde38b146101ac57600080fd5b3661008157005b600080fd5b34801561009257600080fd5b506100b36100a136600461079e565b60656020526000908152604090205481565b6040519081526020015b60405180910390f35b3480156100d257600080fd5b506100db6101cc565b005b3480156100e957600080fd5b506100db6100f83660046107cc565b6101e0565b34801561010957600080fd5b506100db610232565b34801561011e57600080fd5b50610127610364565b6040516001600160a01b0390911681526020016100bd565b34801561014b57600080fd5b506100b361015a36600461079e565b60009081526065602052604090205490565b34801561017857600080fd5b506100db61018736600461082e565b610373565b34801561019857600080fd5b506100b36101a736600461085a565b6103b6565b3480156101b857600080fd5b506100db6101c736600461087c565b6103d8565b6101d461044e565b6101de60006104ad565b565b60006101ef86868686866104ff565b6040519091506001600160a01b0388169082156108fc029083906000818181858888f19350505050158015610228573d6000803e3d6000fd5b5050505050505050565b600054610100900460ff16158080156102525750600054600160ff909116105b8061026c5750303b15801561026c575060005460ff166001145b6102d45760405162461bcd60e51b815260206004820152602e60248201527f496e697469616c697a61626c653a20636f6e747261637420697320616c72656160448201526d191e481a5b9a5d1a585b1a5e995960921b60648201526084015b60405180910390fd5b6000805460ff1916600117905580156102f7576000805461ff0019166101001790555b61031b6040518060400160405280600381526020016208aa8960eb1b8152506106d0565b8015610361576000805461ff0019169055604051600181527f7f26b83ff96e1f2b6a682f133852f6798a09c465da95921460cefb38474024989060200160405180910390a15b50565b6033546001600160a01b031690565b61037b61044e565b6040516001600160a01b0383169082156108fc029083906000818181858888f193505050501580156103b1573d6000803e3d6000fd5b505050565b6000828152606560205260408120546103cf90836108a0565b90505b92915050565b6103e061044e565b6001600160a01b0381166104455760405162461bcd60e51b815260206004820152602660248201527f4f776e61626c653a206e6577206f776e657220697320746865207a65726f206160448201526564647265737360d01b60648201526084016102cb565b610361816104ad565b33610457610364565b6001600160a01b0316146101de5760405162461bcd60e51b815260206004820181905260248201527f4f776e61626c653a2063616c6c6572206973206e6f7420746865206f776e657260448201526064016102cb565b603380546001600160a01b038381166001600160a01b0319831681179093556040519116919082907f8be0079c531659141344cd1fd0a4f28419497f9722a3daafe3b4186f6b6457e090600090a35050565b600085815260656020526040812054851161055b5760405162461bcd60e51b815260206004820152601c60248201527b2737903732bb90333ab73239903a37903132903bb4ba34323930bbb760211b60448201526064016102cb565b600086866066604051602001610573939291906108fb565b6040516020818303038152906040528051906020012090506000816040516020016105c991907b0ca2ba3432b932bab69029b4b3b732b21026b2b9b9b0b3b29d05199960211b8152601c810191909152603c0190565b6040516020818303038152906040528051906020012090506105e9610364565b6001600160a01b03166001828888886040516000815260200160405260405161062e949392919093845260ff9290921660208401526040830152606082015260800190565b6020604051602081039080840390855afa158015610650573d6000803e3d6000fd5b505050602060405103516001600160a01b0316146106a55760405162461bcd60e51b81526020600482015260126024820152710a6d2cedcc2e8eae4ca40dcde40dac2e8c6d60731b60448201526064016102cb565b60008881526065602052604090208054908890556106c381896108a0565b9998505050505050505050565b600054610100900460ff166106f75760405162461bcd60e51b81526004016102cb906109ac565b6106ff610708565b61036181610737565b600054610100900460ff1661072f5760405162461bcd60e51b81526004016102cb906109ac565b6101de61076e565b600054610100900460ff1661075e5760405162461bcd60e51b81526004016102cb906109ac565b606661076a8282610a5b565b5050565b600054610100900460ff166107955760405162461bcd60e51b81526004016102cb906109ac565b6101de336104ad565b6000602082840312156107b057600080fd5b5035919050565b6001600160a01b038116811461036157600080fd5b60008060008060008060c087890312156107e557600080fd5b86356107f0816107b7565b95506020870135945060408701359350606087013560ff8116811461081457600080fd5b9598949750929560808101359460a0909101359350915050565b6000806040838503121561084157600080fd5b823561084c816107b7565b946020939093013593505050565b6000806040838503121561086d57600080fd5b50508035926020909101359150565b60006020828403121561088e57600080fd5b8135610899816107b7565b9392505050565b818103818111156103d257634e487b7160e01b600052601160045260246000fd5b600181811c908216806108d557607f821691505b6020821081036108f557634e487b7160e01b600052602260045260246000fd5b50919050565b838152600060206080818401526001806080850152602360f81b60a085015285604085015260c0606085015260008554610934816108c1565b8060c088015260e084831660008114610954576001811461096e5761099c565b60ff1984168983015282151560051b89018201945061099c565b896000528660002060005b848110156109945781548b8201850152908701908801610979565b8a0183019550505b50929a9950505050505050505050565b6020808252602b908201527f496e697469616c697a61626c653a20636f6e7472616374206973206e6f74206960408201526a6e697469616c697a696e6760a81b606082015260800190565b634e487b7160e01b600052604160045260246000fd5b601f8211156103b157600081815260208120601f850160051c81016020861015610a345750805b601f850160051c820191505b81811015610a5357828155600101610a40565b505050505050565b81516001600160401b03811115610a7457610a746109f7565b610a8881610a8284546108c1565b84610a0d565b602080601f831160018114610abd5760008415610aa55750858301515b600019600386901b1c1916600185901b178555610a53565b600085815260208120601f198616915b82811015610aec57888601518255948401946001909101908401610acd565b5085821015610b0a5787850151600019600388901b60f8161c191681555b5050505050600190811b0190555056fea264697066735822122031c8239287193bfc3897290c79f390076ab53cc6370505018416aa45f4790f3364736f6c63430008110033",
  "devdoc": {
    "kind": "dev",
    "methods": {
      "getClaimableAmount(bytes32,uint256)": {
        "details": "Gets the tea for the provided address."
      },
      "getPayedOut(bytes32)": {
        "details": "Gets the tea for the provided address."
      },
      "owner()": {
        "details": "Returns the address of the current owner."
      },
      "renounceOwnership()": {
        "details": "Leaves the contract without owner. It will not be possible to call `onlyOwner` functions anymore. Can only be called by the current owner. NOTE: Renouncing ownership will leave the contract without an owner, thereby removing any functionality that is only available to the owner."
      },
      "sendRecover(address,uint256)": {
        "details": "Send back from contract in case something is wrong. This should rarely happen"
      },
      "transferOwnership(address)": {
        "details": "Transfers ownership of the contract to a new account (`newOwner`). Can only be called by the current owner."
      },
      "withdraw(address,bytes32,uint256,uint8,bytes32,bytes32)": {
        "details": "Withdraw the earned amount. The signature has to be created by the contract owner and the signed message is the hash of the concatenation of the account and tea.",
        "params": {
          "dev": "The address to withdraw to.",
          "r": "The r value of the signature.",
          "s": "The s value of the signature.",
          "totalPayOut": "The total amount that the user earned.",
          "userId": "The user id that never changes",
          "v": "The recovery byte of the signature."
        }
      }
    },
    "version": 1
  },
  "userdoc": {
    "kind": "user",
    "methods": {},
    "version": 1
  },
  "storageLayout": {
    "storage": [
      {
        "astId": 1950,
        "contract": "contracts/PayoutEth.sol:PayoutEth",
        "label": "_initialized",
        "offset": 0,
        "slot": "0",
        "type": "t_uint8"
      },
      {
        "astId": 1953,
        "contract": "contracts/PayoutEth.sol:PayoutEth",
        "label": "_initializing",
        "offset": 1,
        "slot": "0",
        "type": "t_bool"
      },
      {
        "astId": 4582,
        "contract": "contracts/PayoutEth.sol:PayoutEth",
        "label": "__gap",
        "offset": 0,
        "slot": "1",
        "type": "t_array(t_uint256)50_storage"
      },
      {
        "astId": 419,
        "contract": "contracts/PayoutEth.sol:PayoutEth",
        "label": "_owner",
        "offset": 0,
        "slot": "51",
        "type": "t_address"
      },
      {
        "astId": 539,
        "contract": "contracts/PayoutEth.sol:PayoutEth",
        "label": "__gap",
        "offset": 0,
        "slot": "52",
        "type": "t_array(t_uint256)49_storage"
      },
      {
        "astId": 10511,
        "contract": "contracts/PayoutEth.sol:PayoutEth",
        "label": "payedOut",
        "offset": 0,
        "slot": "101",
        "type": "t_mapping(t_bytes32,t_uint256)"
      },
      {
        "astId": 10513,
        "contract": "contracts/PayoutEth.sol:PayoutEth",
        "label": "currencyCode",
        "offset": 0,
        "slot": "102",
        "type": "t_string_storage"
      }
    ],
    "types": {
      "t_address": {
        "encoding": "inplace",
        "label": "address",
        "numberOfBytes": "20"
      },
      "t_array(t_uint256)49_storage": {
        "base": "t_uint256",
        "encoding": "inplace",
        "label": "uint256[49]",
        "numberOfBytes": "1568"
      },
      "t_array(t_uint256)50_storage": {
        "base": "t_uint256",
        "encoding": "inplace",
        "label": "uint256[50]",
        "numberOfBytes": "1600"
      },
      "t_bool": {
        "encoding": "inplace",
        "label": "bool",
        "numberOfBytes": "1"
      },
      "t_bytes32": {
        "encoding": "inplace",
        "label": "bytes32",
        "numberOfBytes": "32"
      },
      "t_mapping(t_bytes32,t_uint256)": {
        "encoding": "mapping",
        "key": "t_bytes32",
        "label": "mapping(bytes32 => uint256)",
        "numberOfBytes": "32",
        "value": "t_uint256"
      },
      "t_string_storage": {
        "encoding": "bytes",
        "label": "string",
        "numberOfBytes": "32"
      },
      "t_uint256": {
        "encoding": "inplace",
        "label": "uint256",
        "numberOfBytes": "32"
      },
      "t_uint8": {
        "encoding": "inplace",
        "label": "uint8",
        "numberOfBytes": "1"
      }
    }
  }
}