{
  "address": "0x14Ba27cdA98581e17E93635d690c6AB1E9733297",
  "abi": [
    {
      "anonymous": false,
      "inputs": [
        {
          "indexed": false,
          "internalType": "uint8",
          "name": "version",
          "type": "uint8"
        }
      ],
      "name": "Initialized",
      "type": "event"
    },
    {
      "anonymous": false,
      "inputs": [
        {
          "indexed": true,
          "internalType": "address",
          "name": "previousOwner",
          "type": "address"
        },
        {
          "indexed": true,
          "internalType": "address",
          "name": "newOwner",
          "type": "address"
        }
      ],
      "name": "OwnershipTransferred",
      "type": "event"
    },
    {
      "inputs": [
        {
          "internalType": "bytes32",
          "name": "userId",
          "type": "bytes32"
        },
        {
          "internalType": "uint256",
          "name": "totalPayOut",
          "type": "uint256"
        }
      ],
      "name": "getClaimableAmount",
      "outputs": [
        {
          "internalType": "uint256",
          "name": "",
          "type": "uint256"
        }
      ],
      "stateMutability": "view",
      "type": "function"
    },
    {
      "inputs": [],
      "name": "getContractBalance",
      "outputs": [
        {
          "internalType": "uint256",
          "name": "",
          "type": "uint256"
        }
      ],
      "stateMutability": "view",
      "type": "function"
    },
    {
      "inputs": [
        {
          "internalType": "bytes32",
          "name": "userId",
          "type": "bytes32"
        }
      ],
      "name": "getPayedOut",
      "outputs": [
        {
          "internalType": "uint256",
          "name": "",
          "type": "uint256"
        }
      ],
      "stateMutability": "view",
      "type": "function"
    },
    {
      "inputs": [
        {
          "internalType": "contract IERC20Upgradeable",
          "name": "_token",
          "type": "address"
        },
        {
          "internalType": "string",
          "name": "_symbol",
          "type": "string"
        }
      ],
      "name": "initialize",
      "outputs": [],
      "stateMutability": "nonpayable",
      "type": "function"
    },
    {
      "inputs": [],
      "name": "owner",
      "outputs": [
        {
          "internalType": "address",
          "name": "",
          "type": "address"
        }
      ],
      "stateMutability": "view",
      "type": "function"
    },
    {
      "inputs": [
        {
          "internalType": "bytes32",
          "name": "",
          "type": "bytes32"
        }
      ],
      "name": "payedOut",
      "outputs": [
        {
          "internalType": "uint256",
          "name": "",
          "type": "uint256"
        }
      ],
      "stateMutability": "view",
      "type": "function"
    },
    {
      "inputs": [],
      "name": "renounceOwnership",
      "outputs": [],
      "stateMutability": "nonpayable",
      "type": "function"
    },
    {
      "inputs": [
        {
          "internalType": "address payable",
          "name": "receiver",
          "type": "address"
        },
        {
          "internalType": "uint256",
          "name": "amount",
          "type": "uint256"
        }
      ],
      "name": "sendRecover",
      "outputs": [],
      "stateMutability": "nonpayable",
      "type": "function"
    },
    {
      "inputs": [
        {
          "internalType": "address",
          "name": "newOwner",
          "type": "address"
        }
      ],
      "name": "transferOwnership",
      "outputs": [],
      "stateMutability": "nonpayable",
      "type": "function"
    },
    {
      "inputs": [
        {
          "internalType": "address payable",
          "name": "dev",
          "type": "address"
        },
        {
          "internalType": "bytes32",
          "name": "userId",
          "type": "bytes32"
        },
        {
          "internalType": "uint256",
          "name": "totalPayOut",
          "type": "uint256"
        },
        {
          "internalType": "uint8",
          "name": "v",
          "type": "uint8"
        },
        {
          "internalType": "bytes32",
          "name": "r",
          "type": "bytes32"
        },
        {
          "internalType": "bytes32",
          "name": "s",
          "type": "bytes32"
        }
      ],
      "name": "withdraw",
      "outputs": [],
      "stateMutability": "nonpayable",
      "type": "function"
    }
  ],
  "transactionHash": "0x48573a2acd39aeaa872120f5b5c0f5de0bb6e34e168624a367b7abe732ca50fa",
  "args": [],
  "numDeployments": 2,
  "solcInputHash": "c65f17f9cab631406f00f863d733eb20",
  "bytecode": "0x608060405234801561001057600080fd5b50610d7f806100206000396000f3fe608060405234801561001057600080fd5b506004361061008e5760003560e01c80634c293714146100935780636f9fb98a146100c6578063715018a6146100ce57806371676bd6146100d85780638da5cb5b146100eb5780638e0fb98d14610100578063d2fc98ea14610120578063db6e81ef14610133578063f2fde38b14610146578063f399e22e14610159575b600080fd5b6100b36100a136600461086c565b60656020526000908152604090205481565b6040519081526020015b60405180910390f35b6100b361016c565b6100d66101e3565b005b6100d66100e636600461089a565b6101f7565b6100f36102aa565b6040516100bd91906108fc565b6100b361010e36600461086c565b60009081526065602052604090205490565b6100d661012e366004610910565b6102b9565b6100b361014136600461093c565b610356565b6100d661015436600461095e565b610378565b6100d6610167366004610998565b6103f1565b6067546040516370a0823160e01b81526000916001600160a01b0316906370a082319061019d9030906004016108fc565b602060405180830381865afa1580156101ba573d6000803e3d6000fd5b505050506040513d601f19601f820116820180604052508101906101de9190610a5b565b905090565b6101eb610520565b6101f5600061057f565b565b600061020686868686866105d1565b60675460405163a9059cbb60e01b81529192506001600160a01b03169063a9059cbb90610239908a908590600401610a74565b6020604051808303816000875af1158015610258573d6000803e3d6000fd5b505050506040513d601f19601f8201168201806040525081019061027c9190610a8d565b6102a15760405162461bcd60e51b815260040161029890610aaf565b60405180910390fd5b50505050505050565b6033546001600160a01b031690565b6102c1610520565b60675460405163a9059cbb60e01b81526001600160a01b039091169063a9059cbb906102f39085908590600401610a74565b6020604051808303816000875af1158015610312573d6000803e3d6000fd5b505050506040513d601f19601f820116820180604052508101906103369190610a8d565b6103525760405162461bcd60e51b815260040161029890610aaf565b5050565b60008281526065602052604081205461036f9083610ae5565b90505b92915050565b610380610520565b6001600160a01b0381166103e55760405162461bcd60e51b815260206004820152602660248201527f4f776e61626c653a206e6577206f776e657220697320746865207a65726f206160448201526564647265737360d01b6064820152608401610298565b6103ee8161057f565b50565b600054610100900460ff16158080156104115750600054600160ff909116105b8061042b5750303b15801561042b575060005460ff166001145b61048e5760405162461bcd60e51b815260206004820152602e60248201527f496e697469616c697a61626c653a20636f6e747261637420697320616c72656160448201526d191e481a5b9a5d1a585b1a5e995960921b6064820152608401610298565b6000805460ff1916600117905580156104b1576000805461ff0019166101001790555b606780546001600160a01b0319166001600160a01b0385161790556104d5826107a2565b801561051b576000805461ff0019169055604051600181527f7f26b83ff96e1f2b6a682f133852f6798a09c465da95921460cefb38474024989060200160405180910390a15b505050565b336105296102aa565b6001600160a01b0316146101f55760405162461bcd60e51b815260206004820181905260248201527f4f776e61626c653a2063616c6c6572206973206e6f7420746865206f776e65726044820152606401610298565b603380546001600160a01b038381166001600160a01b0319831681179093556040519116919082907f8be0079c531659141344cd1fd0a4f28419497f9722a3daafe3b4186f6b6457e090600090a35050565b600085815260656020526040812054851161062d5760405162461bcd60e51b815260206004820152601c60248201527b2737903732bb90333ab73239903a37903132903bb4ba34323930bbb760211b6044820152606401610298565b60008686606660405160200161064593929190610b40565b60405160208183030381529060405280519060200120905060008160405160200161069b91907b0ca2ba3432b932bab69029b4b3b732b21026b2b9b9b0b3b29d05199960211b8152601c810191909152603c0190565b6040516020818303038152906040528051906020012090506106bb6102aa565b6001600160a01b031660018288888860405160008152602001604052604051610700949392919093845260ff9290921660208401526040830152606082015260800190565b6020604051602081039080840390855afa158015610722573d6000803e3d6000fd5b505050602060405103516001600160a01b0316146107775760405162461bcd60e51b81526020600482015260126024820152710a6d2cedcc2e8eae4ca40dcde40dac2e8c6d60731b6044820152606401610298565b60008881526065602052604090208054908890556107958189610ae5565b9998505050505050505050565b600054610100900460ff166107c95760405162461bcd60e51b815260040161029890610bf1565b6107d16107da565b6103ee81610809565b600054610100900460ff166108015760405162461bcd60e51b815260040161029890610bf1565b6101f561083c565b600054610100900460ff166108305760405162461bcd60e51b815260040161029890610bf1565b60666103528282610c8a565b600054610100900460ff166108635760405162461bcd60e51b815260040161029890610bf1565b6101f53361057f565b60006020828403121561087e57600080fd5b5035919050565b6001600160a01b03811681146103ee57600080fd5b60008060008060008060c087890312156108b357600080fd5b86356108be81610885565b95506020870135945060408701359350606087013560ff811681146108e257600080fd5b9598949750929560808101359460a0909101359350915050565b6001600160a01b0391909116815260200190565b6000806040838503121561092357600080fd5b823561092e81610885565b946020939093013593505050565b6000806040838503121561094f57600080fd5b50508035926020909101359150565b60006020828403121561097057600080fd5b813561097b81610885565b9392505050565b634e487b7160e01b600052604160045260246000fd5b600080604083850312156109ab57600080fd5b82356109b681610885565b915060208301356001600160401b03808211156109d257600080fd5b818501915085601f8301126109e657600080fd5b8135818111156109f8576109f8610982565b604051601f8201601f19908116603f01168101908382118183101715610a2057610a20610982565b81604052828152886020848701011115610a3957600080fd5b8260208601602083013760006020848301015280955050505050509250929050565b600060208284031215610a6d57600080fd5b5051919050565b6001600160a01b03929092168252602082015260400190565b600060208284031215610a9f57600080fd5b8151801515811461097b57600080fd5b6020808252601c908201527b5472616e7366657220776173206e6f74207375636365737366756c2160201b604082015260600190565b8181038181111561037257634e487b7160e01b600052601160045260246000fd5b600181811c90821680610b1a57607f821691505b602082108103610b3a57634e487b7160e01b600052602260045260246000fd5b50919050565b838152600060206080818401526001806080850152602360f81b60a085015285604085015260c0606085015260008554610b7981610b06565b8060c088015260e084831660008114610b995760018114610bb357610be1565b60ff1984168983015282151560051b890182019450610be1565b896000528660002060005b84811015610bd95781548b8201850152908701908801610bbe565b8a0183019550505b50929a9950505050505050505050565b6020808252602b908201527f496e697469616c697a61626c653a20636f6e7472616374206973206e6f74206960408201526a6e697469616c697a696e6760a81b606082015260800190565b601f82111561051b57600081815260208120601f850160051c81016020861015610c635750805b601f850160051c820191505b81811015610c8257828155600101610c6f565b505050505050565b81516001600160401b03811115610ca357610ca3610982565b610cb781610cb18454610b06565b84610c3c565b602080601f831160018114610cec5760008415610cd45750858301515b600019600386901b1c1916600185901b178555610c82565b600085815260208120601f198616915b82811015610d1b57888601518255948401946001909101908401610cfc565b5085821015610d395787850151600019600388901b60f8161c191681555b5050505050600190811b0190555056fea26469706673582212205019a63a17a740c81a09a5495874816c72b85f6991a672b3aeafcd24a5c65e4764736f6c63430008110033",
  "devdoc": {
    "kind": "dev",
    "methods": {
      "getClaimableAmount(bytes32,uint256)": {
        "details": "Gets the tea for the provided address."
      },
      "getPayedOut(bytes32)": {
        "details": "Gets the tea for the provided address."
      },
      "owner()": {
        "details": "Returns the address of the current owner."
      },
      "renounceOwnership()": {
        "details": "Leaves the contract without owner. It will not be possible to call `onlyOwner` functions anymore. Can only be called by the current owner. NOTE: Renouncing ownership will leave the contract without an owner, thereby removing any functionality that is only available to the owner."
      },
      "sendRecover(address,uint256)": {
        "details": "Send back from contract in case something is wrong. This should rarely happen"
      },
      "transferOwnership(address)": {
        "details": "Transfers ownership of the contract to a new account (`newOwner`). Can only be called by the current owner."
      },
      "withdraw(address,bytes32,uint256,uint8,bytes32,bytes32)": {
        "details": "Withdraw the earned amount. The signature has to be created by the contract owner and the signed message is the hash of the concatenation of the account and tea.",
        "params": {
          "dev": "The address to withdraw to.",
          "r": "The r value of the signature.",
          "s": "The s value of the signature.",
          "totalPayOut": "The total amount that the user earned.",
          "userId": "The user id that never changes",
          "v": "The recovery byte of the signature."
        }
      }
    },
    "version": 1
  },
  "userdoc": {
    "kind": "user",
    "methods": {},
    "version": 1
  },
  "storageLayout": {
    "storage": [
      {
        "astId": 138,
        "contract": "contracts/PayoutERC20.sol:PayoutERC20",
        "label": "_initialized",
        "offset": 0,
        "slot": "0",
        "type": "t_uint8"
      },
      {
        "astId": 141,
        "contract": "contracts/PayoutERC20.sol:PayoutERC20",
        "label": "_initializing",
        "offset": 1,
        "slot": "0",
        "type": "t_bool"
      },
      {
        "astId": 703,
        "contract": "contracts/PayoutERC20.sol:PayoutERC20",
        "label": "__gap",
        "offset": 0,
        "slot": "1",
        "type": "t_array(t_uint256)50_storage"
      },
      {
        "astId": 10,
        "contract": "contracts/PayoutERC20.sol:PayoutERC20",
        "label": "_owner",
        "offset": 0,
        "slot": "51",
        "type": "t_address"
      },
      {
        "astId": 130,
        "contract": "contracts/PayoutERC20.sol:PayoutERC20",
        "label": "__gap",
        "offset": 0,
        "slot": "52",
        "type": "t_array(t_uint256)49_storage"
      },
      {
        "astId": 719,
        "contract": "contracts/PayoutERC20.sol:PayoutERC20",
        "label": "payedOut",
        "offset": 0,
        "slot": "101",
        "type": "t_mapping(t_bytes32,t_uint256)"
      },
      {
        "astId": 721,
        "contract": "contracts/PayoutERC20.sol:PayoutERC20",
        "label": "currencyCode",
        "offset": 0,
        "slot": "102",
        "type": "t_string_storage"
      },
      {
        "astId": 894,
        "contract": "contracts/PayoutERC20.sol:PayoutERC20",
        "label": "token",
        "offset": 0,
        "slot": "103",
        "type": "t_contract(IERC20Upgradeable)378"
      }
    ],
    "types": {
      "t_address": {
        "encoding": "inplace",
        "label": "address",
        "numberOfBytes": "20"
      },
      "t_array(t_uint256)49_storage": {
        "base": "t_uint256",
        "encoding": "inplace",
        "label": "uint256[49]",
        "numberOfBytes": "1568"
      },
      "t_array(t_uint256)50_storage": {
        "base": "t_uint256",
        "encoding": "inplace",
        "label": "uint256[50]",
        "numberOfBytes": "1600"
      },
      "t_bool": {
        "encoding": "inplace",
        "label": "bool",
        "numberOfBytes": "1"
      },
      "t_bytes32": {
        "encoding": "inplace",
        "label": "bytes32",
        "numberOfBytes": "32"
      },
      "t_contract(IERC20Upgradeable)378": {
        "encoding": "inplace",
        "label": "contract IERC20Upgradeable",
        "numberOfBytes": "20"
      },
      "t_mapping(t_bytes32,t_uint256)": {
        "encoding": "mapping",
        "key": "t_bytes32",
        "label": "mapping(bytes32 => uint256)",
        "numberOfBytes": "32",
        "value": "t_uint256"
      },
      "t_string_storage": {
        "encoding": "bytes",
        "label": "string",
        "numberOfBytes": "32"
      },
      "t_uint256": {
        "encoding": "inplace",
        "label": "uint256",
        "numberOfBytes": "32"
      },
      "t_uint8": {
        "encoding": "inplace",
        "label": "uint8",
        "numberOfBytes": "1"
      }
    }
  }
}