{
  "address": "0x3b391656356605307776b22B051623F74f2db291",
  "abi": [
    {
      "anonymous": false,
      "inputs": [
        {
          "indexed": true,
          "internalType": "bytes32",
          "name": "id",
          "type": "bytes32"
        },
        {
          "indexed": true,
          "internalType": "uint256",
          "name": "index",
          "type": "uint256"
        },
        {
          "indexed": false,
          "internalType": "address",
          "name": "target",
          "type": "address"
        },
        {
          "indexed": false,
          "internalType": "uint256",
          "name": "value",
          "type": "uint256"
        },
        {
          "indexed": false,
          "internalType": "bytes",
          "name": "data",
          "type": "bytes"
        }
      ],
      "name": "CallExecuted",
      "type": "event"
    },
    {
      "anonymous": false,
      "inputs": [
        {
          "indexed": true,
          "internalType": "bytes32",
          "name": "id",
          "type": "bytes32"
        },
        {
          "indexed": true,
          "internalType": "uint256",
          "name": "index",
          "type": "uint256"
        },
        {
          "indexed": false,
          "internalType": "address",
          "name": "target",
          "type": "address"
        },
        {
          "indexed": false,
          "internalType": "uint256",
          "name": "value",
          "type": "uint256"
        },
        {
          "indexed": false,
          "internalType": "bytes",
          "name": "data",
          "type": "bytes"
        },
        {
          "indexed": false,
          "internalType": "bytes32",
          "name": "predecessor",
          "type": "bytes32"
        },
        {
          "indexed": false,
          "internalType": "uint256",
          "name": "delay",
          "type": "uint256"
        }
      ],
      "name": "CallScheduled",
      "type": "event"
    },
    {
      "anonymous": false,
      "inputs": [
        {
          "indexed": true,
          "internalType": "bytes32",
          "name": "id",
          "type": "bytes32"
        }
      ],
      "name": "Cancelled",
      "type": "event"
    },
    {
      "anonymous": false,
      "inputs": [
        {
          "indexed": false,
          "internalType": "uint8",
          "name": "version",
          "type": "uint8"
        }
      ],
      "name": "Initialized",
      "type": "event"
    },
    {
      "anonymous": false,
      "inputs": [
        {
          "indexed": false,
          "internalType": "uint256",
          "name": "oldDuration",
          "type": "uint256"
        },
        {
          "indexed": false,
          "internalType": "uint256",
          "name": "newDuration",
          "type": "uint256"
        }
      ],
      "name": "MinDelayChange",
      "type": "event"
    },
    {
      "anonymous": false,
      "inputs": [
        {
          "indexed": true,
          "internalType": "bytes32",
          "name": "role",
          "type": "bytes32"
        },
        {
          "indexed": true,
          "internalType": "bytes32",
          "name": "previousAdminRole",
          "type": "bytes32"
        },
        {
          "indexed": true,
          "internalType": "bytes32",
          "name": "newAdminRole",
          "type": "bytes32"
        }
      ],
      "name": "RoleAdminChanged",
      "type": "event"
    },
    {
      "anonymous": false,
      "inputs": [
        {
          "indexed": true,
          "internalType": "bytes32",
          "name": "role",
          "type": "bytes32"
        },
        {
          "indexed": true,
          "internalType": "address",
          "name": "account",
          "type": "address"
        },
        {
          "indexed": true,
          "internalType": "address",
          "name": "sender",
          "type": "address"
        }
      ],
      "name": "RoleGranted",
      "type": "event"
    },
    {
      "anonymous": false,
      "inputs": [
        {
          "indexed": true,
          "internalType": "bytes32",
          "name": "role",
          "type": "bytes32"
        },
        {
          "indexed": true,
          "internalType": "address",
          "name": "account",
          "type": "address"
        },
        {
          "indexed": true,
          "internalType": "address",
          "name": "sender",
          "type": "address"
        }
      ],
      "name": "RoleRevoked",
      "type": "event"
    },
    {
      "inputs": [],
      "name": "CANCELLER_ROLE",
      "outputs": [
        {
          "internalType": "bytes32",
          "name": "",
          "type": "bytes32"
        }
      ],
      "stateMutability": "view",
      "type": "function"
    },
    {
      "inputs": [],
      "name": "DEFAULT_ADMIN_ROLE",
      "outputs": [
        {
          "internalType": "bytes32",
          "name": "",
          "type": "bytes32"
        }
      ],
      "stateMutability": "view",
      "type": "function"
    },
    {
      "inputs": [],
      "name": "EXECUTOR_ROLE",
      "outputs": [
        {
          "internalType": "bytes32",
          "name": "",
          "type": "bytes32"
        }
      ],
      "stateMutability": "view",
      "type": "function"
    },
    {
      "inputs": [],
      "name": "PROPOSER_ROLE",
      "outputs": [
        {
          "internalType": "bytes32",
          "name": "",
          "type": "bytes32"
        }
      ],
      "stateMutability": "view",
      "type": "function"
    },
    {
      "inputs": [],
      "name": "TIMELOCK_ADMIN_ROLE",
      "outputs": [
        {
          "internalType": "bytes32",
          "name": "",
          "type": "bytes32"
        }
      ],
      "stateMutability": "view",
      "type": "function"
    },
    {
      "inputs": [
        {
          "internalType": "bytes32",
          "name": "id",
          "type": "bytes32"
        }
      ],
      "name": "cancel",
      "outputs": [],
      "stateMutability": "nonpayable",
      "type": "function"
    },
    {
      "inputs": [
        {
          "internalType": "address",
          "name": "target",
          "type": "address"
        },
        {
          "internalType": "uint256",
          "name": "value",
          "type": "uint256"
        },
        {
          "internalType": "bytes",
          "name": "payload",
          "type": "bytes"
        },
        {
          "internalType": "bytes32",
          "name": "predecessor",
          "type": "bytes32"
        },
        {
          "internalType": "bytes32",
          "name": "salt",
          "type": "bytes32"
        }
      ],
      "name": "execute",
      "outputs": [],
      "stateMutability": "payable",
      "type": "function"
    },
    {
      "inputs": [
        {
          "internalType": "address[]",
          "name": "targets",
          "type": "address[]"
        },
        {
          "internalType": "uint256[]",
          "name": "values",
          "type": "uint256[]"
        },
        {
          "internalType": "bytes[]",
          "name": "payloads",
          "type": "bytes[]"
        },
        {
          "internalType": "bytes32",
          "name": "predecessor",
          "type": "bytes32"
        },
        {
          "internalType": "bytes32",
          "name": "salt",
          "type": "bytes32"
        }
      ],
      "name": "executeBatch",
      "outputs": [],
      "stateMutability": "payable",
      "type": "function"
    },
    {
      "inputs": [],
      "name": "getMinDelay",
      "outputs": [
        {
          "internalType": "uint256",
          "name": "duration",
          "type": "uint256"
        }
      ],
      "stateMutability": "view",
      "type": "function"
    },
    {
      "inputs": [
        {
          "internalType": "bytes32",
          "name": "role",
          "type": "bytes32"
        }
      ],
      "name": "getRoleAdmin",
      "outputs": [
        {
          "internalType": "bytes32",
          "name": "",
          "type": "bytes32"
        }
      ],
      "stateMutability": "view",
      "type": "function"
    },
    {
      "inputs": [
        {
          "internalType": "bytes32",
          "name": "id",
          "type": "bytes32"
        }
      ],
      "name": "getTimestamp",
      "outputs": [
        {
          "internalType": "uint256",
          "name": "timestamp",
          "type": "uint256"
        }
      ],
      "stateMutability": "view",
      "type": "function"
    },
    {
      "inputs": [
        {
          "internalType": "bytes32",
          "name": "role",
          "type": "bytes32"
        },
        {
          "internalType": "address",
          "name": "account",
          "type": "address"
        }
      ],
      "name": "grantRole",
      "outputs": [],
      "stateMutability": "nonpayable",
      "type": "function"
    },
    {
      "inputs": [
        {
          "internalType": "bytes32",
          "name": "role",
          "type": "bytes32"
        },
        {
          "internalType": "address",
          "name": "account",
          "type": "address"
        }
      ],
      "name": "hasRole",
      "outputs": [
        {
          "internalType": "bool",
          "name": "",
          "type": "bool"
        }
      ],
      "stateMutability": "view",
      "type": "function"
    },
    {
      "inputs": [
        {
          "internalType": "address",
          "name": "target",
          "type": "address"
        },
        {
          "internalType": "uint256",
          "name": "value",
          "type": "uint256"
        },
        {
          "internalType": "bytes",
          "name": "data",
          "type": "bytes"
        },
        {
          "internalType": "bytes32",
          "name": "predecessor",
          "type": "bytes32"
        },
        {
          "internalType": "bytes32",
          "name": "salt",
          "type": "bytes32"
        }
      ],
      "name": "hashOperation",
      "outputs": [
        {
          "internalType": "bytes32",
          "name": "hash",
          "type": "bytes32"
        }
      ],
      "stateMutability": "pure",
      "type": "function"
    },
    {
      "inputs": [
        {
          "internalType": "address[]",
          "name": "targets",
          "type": "address[]"
        },
        {
          "internalType": "uint256[]",
          "name": "values",
          "type": "uint256[]"
        },
        {
          "internalType": "bytes[]",
          "name": "payloads",
          "type": "bytes[]"
        },
        {
          "internalType": "bytes32",
          "name": "predecessor",
          "type": "bytes32"
        },
        {
          "internalType": "bytes32",
          "name": "salt",
          "type": "bytes32"
        }
      ],
      "name": "hashOperationBatch",
      "outputs": [
        {
          "internalType": "bytes32",
          "name": "hash",
          "type": "bytes32"
        }
      ],
      "stateMutability": "pure",
      "type": "function"
    },
    {
      "inputs": [
        {
          "internalType": "address",
          "name": "_admin",
          "type": "address"
        }
      ],
      "name": "initialize",
      "outputs": [],
      "stateMutability": "nonpayable",
      "type": "function"
    },
    {
      "inputs": [
        {
          "internalType": "bytes32",
          "name": "id",
          "type": "bytes32"
        }
      ],
      "name": "isOperation",
      "outputs": [
        {
          "internalType": "bool",
          "name": "registered",
          "type": "bool"
        }
      ],
      "stateMutability": "view",
      "type": "function"
    },
    {
      "inputs": [
        {
          "internalType": "bytes32",
          "name": "id",
          "type": "bytes32"
        }
      ],
      "name": "isOperationDone",
      "outputs": [
        {
          "internalType": "bool",
          "name": "done",
          "type": "bool"
        }
      ],
      "stateMutability": "view",
      "type": "function"
    },
    {
      "inputs": [
        {
          "internalType": "bytes32",
          "name": "id",
          "type": "bytes32"
        }
      ],
      "name": "isOperationPending",
      "outputs": [
        {
          "internalType": "bool",
          "name": "pending",
          "type": "bool"
        }
      ],
      "stateMutability": "view",
      "type": "function"
    },
    {
      "inputs": [
        {
          "internalType": "bytes32",
          "name": "id",
          "type": "bytes32"
        }
      ],
      "name": "isOperationReady",
      "outputs": [
        {
          "internalType": "bool",
          "name": "ready",
          "type": "bool"
        }
      ],
      "stateMutability": "view",
      "type": "function"
    },
    {
      "inputs": [
        {
          "internalType": "address",
          "name": "",
          "type": "address"
        },
        {
          "internalType": "address",
          "name": "",
          "type": "address"
        },
        {
          "internalType": "uint256[]",
          "name": "",
          "type": "uint256[]"
        },
        {
          "internalType": "uint256[]",
          "name": "",
          "type": "uint256[]"
        },
        {
          "internalType": "bytes",
          "name": "",
          "type": "bytes"
        }
      ],
      "name": "onERC1155BatchReceived",
      "outputs": [
        {
          "internalType": "bytes4",
          "name": "",
          "type": "bytes4"
        }
      ],
      "stateMutability": "nonpayable",
      "type": "function"
    },
    {
      "inputs": [
        {
          "internalType": "address",
          "name": "",
          "type": "address"
        },
        {
          "internalType": "address",
          "name": "",
          "type": "address"
        },
        {
          "internalType": "uint256",
          "name": "",
          "type": "uint256"
        },
        {
          "internalType": "uint256",
          "name": "",
          "type": "uint256"
        },
        {
          "internalType": "bytes",
          "name": "",
          "type": "bytes"
        }
      ],
      "name": "onERC1155Received",
      "outputs": [
        {
          "internalType": "bytes4",
          "name": "",
          "type": "bytes4"
        }
      ],
      "stateMutability": "nonpayable",
      "type": "function"
    },
    {
      "inputs": [
        {
          "internalType": "address",
          "name": "",
          "type": "address"
        },
        {
          "internalType": "address",
          "name": "",
          "type": "address"
        },
        {
          "internalType": "uint256",
          "name": "",
          "type": "uint256"
        },
        {
          "internalType": "bytes",
          "name": "",
          "type": "bytes"
        }
      ],
      "name": "onERC721Received",
      "outputs": [
        {
          "internalType": "bytes4",
          "name": "",
          "type": "bytes4"
        }
      ],
      "stateMutability": "nonpayable",
      "type": "function"
    },
    {
      "inputs": [
        {
          "internalType": "bytes32",
          "name": "role",
          "type": "bytes32"
        },
        {
          "internalType": "address",
          "name": "account",
          "type": "address"
        }
      ],
      "name": "renounceRole",
      "outputs": [],
      "stateMutability": "nonpayable",
      "type": "function"
    },
    {
      "inputs": [
        {
          "internalType": "bytes32",
          "name": "role",
          "type": "bytes32"
        },
        {
          "internalType": "address",
          "name": "account",
          "type": "address"
        }
      ],
      "name": "revokeRole",
      "outputs": [],
      "stateMutability": "nonpayable",
      "type": "function"
    },
    {
      "inputs": [
        {
          "internalType": "address",
          "name": "target",
          "type": "address"
        },
        {
          "internalType": "uint256",
          "name": "value",
          "type": "uint256"
        },
        {
          "internalType": "bytes",
          "name": "data",
          "type": "bytes"
        },
        {
          "internalType": "bytes32",
          "name": "predecessor",
          "type": "bytes32"
        },
        {
          "internalType": "bytes32",
          "name": "salt",
          "type": "bytes32"
        },
        {
          "internalType": "uint256",
          "name": "delay",
          "type": "uint256"
        }
      ],
      "name": "schedule",
      "outputs": [],
      "stateMutability": "nonpayable",
      "type": "function"
    },
    {
      "inputs": [
        {
          "internalType": "address[]",
          "name": "targets",
          "type": "address[]"
        },
        {
          "internalType": "uint256[]",
          "name": "values",
          "type": "uint256[]"
        },
        {
          "internalType": "bytes[]",
          "name": "payloads",
          "type": "bytes[]"
        },
        {
          "internalType": "bytes32",
          "name": "predecessor",
          "type": "bytes32"
        },
        {
          "internalType": "bytes32",
          "name": "salt",
          "type": "bytes32"
        },
        {
          "internalType": "uint256",
          "name": "delay",
          "type": "uint256"
        }
      ],
      "name": "scheduleBatch",
      "outputs": [],
      "stateMutability": "nonpayable",
      "type": "function"
    },
    {
      "inputs": [
        {
          "internalType": "bytes4",
          "name": "interfaceId",
          "type": "bytes4"
        }
      ],
      "name": "supportsInterface",
      "outputs": [
        {
          "internalType": "bool",
          "name": "",
          "type": "bool"
        }
      ],
      "stateMutability": "view",
      "type": "function"
    },
    {
      "inputs": [
        {
          "internalType": "uint256",
          "name": "newDelay",
          "type": "uint256"
        }
      ],
      "name": "updateDelay",
      "outputs": [],
      "stateMutability": "nonpayable",
      "type": "function"
    },
    {
      "stateMutability": "payable",
      "type": "receive"
    }
  ],
  "transactionHash": "0x10e9a4bd6cc871b7c5b346ead22ab191b16d7815ff16bbd5b90d71dca8c3a765",
  "args": [],
  "numDeployments": 1,
  "solcInputHash": "5e7ead6f489ba1541e29a5c0da5dc006",
  "bytecode": "0x608060405234801561001057600080fd5b5061214e806100206000396000f3fe6080604052600436106101565760003560e01c806301d5062a1461016257806301ffc9a71461018457806307bd0265146101b95780630d3cf6fc146101e9578063134008d31461020b57806313bc9f201461021e578063150b7a021461023e578063248a9ca3146102825780632ab0f529146102a25780632f2ff15d146102c257806331d50750146102e257806336568abe14610302578063584b153e1461032257806364d62353146103425780638065657f146103625780638f2a0bb0146103825780638f61f4f5146103a257806391d14854146103c4578063a217fddf146103e4578063b08e51c0146103f9578063b1c5f4271461041b578063bc197c811461043b578063c4d252f514610467578063c4d66de814610487578063d45c4435146104a7578063d547741f146104c7578063e38335e5146104e7578063f23a6e61146104fa578063f27a0c921461052657600080fd5b3661015d57005b600080fd5b34801561016e57600080fd5b5061018261017d366004611646565b61053b565b005b34801561019057600080fd5b506101a461019f3660046116ba565b6105ac565b60405190151581526020015b60405180910390f35b3480156101c557600080fd5b506101db60008051602061209983398151915281565b6040519081526020016101b0565b3480156101f557600080fd5b506101db60008051602061205983398151915281565b6101826102193660046116e4565b6105d7565b34801561022a57600080fd5b506101a461023936600461174f565b610668565b34801561024a57600080fd5b5061026961025936600461181d565b630a85bd0160e11b949350505050565b6040516001600160e01b031990911681526020016101b0565b34801561028e57600080fd5b506101db61029d36600461174f565b61068d565b3480156102ae57600080fd5b506101a46102bd36600461174f565b6106a2565b3480156102ce57600080fd5b506101826102dd366004611884565b6106b6565b3480156102ee57600080fd5b506101a46102fd36600461174f565b6106d7565b34801561030e57600080fd5b5061018261031d366004611884565b6106ea565b34801561032e57600080fd5b506101a461033d36600461174f565b61076d565b34801561034e57600080fd5b5061018261035d36600461174f565b61077a565b34801561036e57600080fd5b506101db61037d3660046116e4565b61080c565b34801561038e57600080fd5b5061018261039d3660046118f4565b61084b565b3480156103ae57600080fd5b506101db60008051602061207983398151915281565b3480156103d057600080fd5b506101a46103df366004611884565b610979565b3480156103f057600080fd5b506101db600081565b34801561040557600080fd5b506101db6000805160206120d983398151915281565b34801561042757600080fd5b506101db6104363660046119a5565b6109a4565b34801561044757600080fd5b50610269610456366004611acc565b63bc197c8160e01b95945050505050565b34801561047357600080fd5b5061018261048236600461174f565b6109e9565b34801561049357600080fd5b506101826104a2366004611b75565b610aac565b3480156104b357600080fd5b506101db6104c236600461174f565b610c21565b3480156104d357600080fd5b506101826104e2366004611884565b610c33565b6101826104f53660046119a5565b610c4f565b34801561050657600080fd5b50610269610515366004611b90565b63f23a6e6160e01b95945050505050565b34801561053257600080fd5b506098546101db565b60008051602061207983398151915261055381610db5565b600061056389898989898961080c565b905061056f8184610dc2565b6000816000805160206120b98339815191528b8b8b8b8b8a60405161059996959493929190611c1d565b60405180910390a3505050505050505050565b60006001600160e01b03198216630271189760e51b14806105d157506105d182610eb1565b92915050565b6000805160206120998339815191526105f1816000610979565b6105ff576105ff8133610ee6565b600061060f88888888888861080c565b905061061b8185610f3f565b61062788888888610fd0565b6000816000805160206120398339815191528a8a8a8a60405161064d9493929190611c5a565b60405180910390a361065e816110a3565b5050505050505050565b60008061067483610c21565b90506001811180156106865750428111155b9392505050565b60009081526065602052604090206001015490565b600060016106af83610c21565b1492915050565b6106bf8261068d565b6106c881610db5565b6106d283836110dc565b505050565b6000806106e383610c21565b1192915050565b6001600160a01b038116331461075f5760405162461bcd60e51b815260206004820152602f60248201527f416363657373436f6e74726f6c3a2063616e206f6e6c792072656e6f756e636560448201526e103937b632b9903337b91039b2b63360891b60648201526084015b60405180910390fd5b6107698282611162565b5050565b600060016106e383610c21565b3330146107dd5760405162461bcd60e51b815260206004820152602b60248201527f54696d656c6f636b436f6e74726f6c6c65723a2063616c6c6572206d7573742060448201526a62652074696d656c6f636b60a81b6064820152608401610756565b60985460408051918252602082018390526000805160206120f9833981519152910160405180910390a1609855565b600086868686868660405160200161082996959493929190611c1d565b6040516020818303038152906040528051906020012090509695505050505050565b60008051602061207983398151915261086381610db5565b8887146108825760405162461bcd60e51b815260040161075690611c8c565b8885146108a15760405162461bcd60e51b815260040161075690611c8c565b60006108b38b8b8b8b8b8b8b8b6109a4565b90506108bf8184610dc2565b60005b8a81101561096b5780826000805160206120b98339815191528e8e858181106108ed576108ed611ccf565b90506020020160208101906109029190611b75565b8d8d8681811061091457610914611ccf565b905060200201358c8c8781811061092d5761092d611ccf565b905060200281019061093f9190611ce5565b8c8b60405161095396959493929190611c1d565b60405180910390a361096481611d41565b90506108c2565b505050505050505050505050565b60009182526065602090815260408084206001600160a01b0393909316845291905290205460ff1690565b600088888888888888886040516020016109c5989796959493929190611deb565b60405160208183030381529060405280519060200120905098975050505050505050565b6000805160206120d9833981519152610a0181610db5565b610a0a8261076d565b610a705760405162461bcd60e51b815260206004820152603160248201527f54696d656c6f636b436f6e74726f6c6c65723a206f7065726174696f6e2063616044820152701b9b9bdd0818994818d85b98d95b1b1959607a1b6064820152608401610756565b6000828152609760205260408082208290555183917fbaa1eb22f2a492ba1a5fea61b8df4d27c6c8b5f3971e63bb58fa14ff72eedb7091a25050565b600054610100900460ff1615808015610acc5750600054600160ff909116105b80610ae65750303b158015610ae6575060005460ff166001145b610b495760405162461bcd60e51b815260206004820152602e60248201527f496e697469616c697a61626c653a20636f6e747261637420697320616c72656160448201526d191e481a5b9a5d1a585b1a5e995960921b6064820152608401610756565b6000805460ff191660011790558015610b6c576000805461ff0019166101001790555b6040805160018082528183019092526060916000919060208083019080368337019050509050600081600081518110610ba757610ba7611ccf565b60200260200101906001600160a01b031690816001600160a01b031681525050610bd6620151808383876111c9565b50508015610769576000805461ff0019169055604051600181527f7f26b83ff96e1f2b6a682f133852f6798a09c465da95921460cefb38474024989060200160405180910390a15050565b60009081526097602052604090205490565b610c3c8261068d565b610c4581610db5565b6106d28383611162565b600080516020612099833981519152610c69816000610979565b610c7757610c778133610ee6565b878614610c965760405162461bcd60e51b815260040161075690611c8c565b878414610cb55760405162461bcd60e51b815260040161075690611c8c565b6000610cc78a8a8a8a8a8a8a8a6109a4565b9050610cd38185610f3f565b60005b89811015610d9f5760008b8b83818110610cf257610cf2611ccf565b9050602002016020810190610d079190611b75565b905060008a8a84818110610d1d57610d1d611ccf565b9050602002013590503660008a8a86818110610d3b57610d3b611ccf565b9050602002810190610d4d9190611ce5565b91509150610d5d84848484610fd0565b848660008051602061203983398151915286868686604051610d829493929190611c5a565b60405180910390a35050505080610d9890611d41565b9050610cd6565b50610da9816110a3565b50505050505050505050565b610dbf8133610ee6565b50565b610dcb826106d7565b15610e305760405162461bcd60e51b815260206004820152602f60248201527f54696d656c6f636b436f6e74726f6c6c65723a206f7065726174696f6e20616c60448201526e1c9958591e481cd8da19591d5b1959608a1b6064820152608401610756565b609854811015610e915760405162461bcd60e51b815260206004820152602660248201527f54696d656c6f636b436f6e74726f6c6c65723a20696e73756666696369656e746044820152652064656c617960d01b6064820152608401610756565b610e9b8142611e8c565b6000928352609760205260409092209190915550565b60006001600160e01b03198216637965db0b60e01b14806105d157506301ffc9a760e01b6001600160e01b03198316146105d1565b610ef08282610979565b61076957610efd81611202565b610f08836020611214565b604051602001610f19929190611ec3565b60408051601f198184030181529082905262461bcd60e51b825261075691600401611f32565b610f4882610668565b610f645760405162461bcd60e51b815260040161075690611f65565b801580610f755750610f75816106a2565b6107695760405162461bcd60e51b815260206004820152602660248201527f54696d656c6f636b436f6e74726f6c6c65723a206d697373696e6720646570656044820152656e64656e637960d01b6064820152608401610756565b6000846001600160a01b0316848484604051610fed929190611faf565b60006040518083038185875af1925050503d806000811461102a576040519150601f19603f3d011682016040523d82523d6000602084013e61102f565b606091505b505090508061109c5760405162461bcd60e51b815260206004820152603360248201527f54696d656c6f636b436f6e74726f6c6c65723a20756e6465726c79696e6720746044820152721c985b9cd858dd1a5bdb881c995d995c9d1959606a1b6064820152608401610756565b5050505050565b6110ac81610668565b6110c85760405162461bcd60e51b815260040161075690611f65565b600090815260976020526040902060019055565b6110e68282610979565b6107695760008281526065602090815260408083206001600160a01b03851684529091529020805460ff1916600117905561111e3390565b6001600160a01b0316816001600160a01b0316837f2f8788117e7eff1d82e926ec794901d17c78024a50270940304540a733656f0d60405160405180910390a45050565b61116c8282610979565b156107695760008281526065602090815260408083206001600160a01b0385168085529252808320805460ff1916905551339285917ff6391f5c32d9c69d2a47ea670b442974b53935d1edc7fd64eb21e047a839171b9190a45050565b600054610100900460ff166111f05760405162461bcd60e51b815260040161075690611fbf565b6111fc848484846113af565b50505050565b60606105d16001600160a01b03831660145b6060600061122383600261200a565b61122e906002611e8c565b6001600160401b0381111561124557611245611768565b6040519080825280601f01601f19166020018201604052801561126f576020820181803683370190505b509050600360fc1b8160008151811061128a5761128a611ccf565b60200101906001600160f81b031916908160001a905350600f60fb1b816001815181106112b9576112b9611ccf565b60200101906001600160f81b031916908160001a90535060006112dd84600261200a565b6112e8906001611e8c565b90505b6001811115611360576f181899199a1a9b1b9c1cb0b131b232b360811b85600f166010811061131c5761131c611ccf565b1a60f81b82828151811061133257611332611ccf565b60200101906001600160f81b031916908160001a90535060049490941c9361135981612021565b90506112eb565b5083156106865760405162461bcd60e51b815260206004820181905260248201527f537472696e67733a20686578206c656e67746820696e73756666696369656e746044820152606401610756565b600054610100900460ff166113d65760405162461bcd60e51b815260040161075690611fbf565b6113ee60008051602061205983398151915280611585565b611414600080516020612079833981519152600080516020612059833981519152611585565b61143a600080516020612099833981519152600080516020612059833981519152611585565b6114606000805160206120d9833981519152600080516020612059833981519152611585565b611478600080516020612059833981519152306115d8565b6001600160a01b0381161561149f5761149f600080516020612059833981519152826115d8565b60005b8351811015611510576114dc6000805160206120798339815191528583815181106114cf576114cf611ccf565b60200260200101516115d8565b6115006000805160206120d98339815191528583815181106114cf576114cf611ccf565b61150981611d41565b90506114a2565b5060005b8251811015611551576115416000805160206120998339815191528483815181106114cf576114cf611ccf565b61154a81611d41565b9050611514565b5060988490556040805160008152602081018690526000805160206120f9833981519152910160405180910390a150505050565b60006115908361068d565b600084815260656020526040808220600101859055519192508391839186917fbd79b86ffe0ab8e8776151514217cd7cacd52c909f66475c3af44e129f0b00ff9190a4505050565b61076982826110dc565b80356001600160a01b03811681146115f957600080fd5b919050565b60008083601f84011261161057600080fd5b5081356001600160401b0381111561162757600080fd5b60208301915083602082850101111561163f57600080fd5b9250929050565b600080600080600080600060c0888a03121561166157600080fd5b61166a886115e2565b96506020880135955060408801356001600160401b0381111561168c57600080fd5b6116988a828b016115fe565b989b979a50986060810135976080820135975060a09091013595509350505050565b6000602082840312156116cc57600080fd5b81356001600160e01b03198116811461068657600080fd5b60008060008060008060a087890312156116fd57600080fd5b611706876115e2565b95506020870135945060408701356001600160401b0381111561172857600080fd5b61173489828a016115fe565b979a9699509760608101359660809091013595509350505050565b60006020828403121561176157600080fd5b5035919050565b634e487b7160e01b600052604160045260246000fd5b604051601f8201601f191681016001600160401b03811182821017156117a6576117a6611768565b604052919050565b600082601f8301126117bf57600080fd5b81356001600160401b038111156117d8576117d8611768565b6117eb601f8201601f191660200161177e565b81815284602083860101111561180057600080fd5b816020850160208301376000918101602001919091529392505050565b6000806000806080858703121561183357600080fd5b61183c856115e2565b935061184a602086016115e2565b92506040850135915060608501356001600160401b0381111561186c57600080fd5b611878878288016117ae565b91505092959194509250565b6000806040838503121561189757600080fd5b823591506118a7602084016115e2565b90509250929050565b60008083601f8401126118c257600080fd5b5081356001600160401b038111156118d957600080fd5b6020830191508360208260051b850101111561163f57600080fd5b600080600080600080600080600060c08a8c03121561191257600080fd5b89356001600160401b038082111561192957600080fd5b6119358d838e016118b0565b909b50995060208c013591508082111561194e57600080fd5b61195a8d838e016118b0565b909950975060408c013591508082111561197357600080fd5b506119808c828d016118b0565b9a9d999c50979a969997986060880135976080810135975060a0013595509350505050565b60008060008060008060008060a0898b0312156119c157600080fd5b88356001600160401b03808211156119d857600080fd5b6119e48c838d016118b0565b909a50985060208b01359150808211156119fd57600080fd5b611a098c838d016118b0565b909850965060408b0135915080821115611a2257600080fd5b50611a2f8b828c016118b0565b999c989b509699959896976060870135966080013595509350505050565b600082601f830112611a5e57600080fd5b813560206001600160401b03821115611a7957611a79611768565b8160051b611a8882820161177e565b9283528481018201928281019087851115611aa257600080fd5b83870192505b84831015611ac157823582529183019190830190611aa8565b979650505050505050565b600080600080600060a08688031215611ae457600080fd5b611aed866115e2565b9450611afb602087016115e2565b935060408601356001600160401b0380821115611b1757600080fd5b611b2389838a01611a4d565b94506060880135915080821115611b3957600080fd5b611b4589838a01611a4d565b93506080880135915080821115611b5b57600080fd5b50611b68888289016117ae565b9150509295509295909350565b600060208284031215611b8757600080fd5b610686826115e2565b600080600080600060a08688031215611ba857600080fd5b611bb1866115e2565b9450611bbf602087016115e2565b9350604086013592506060860135915060808601356001600160401b03811115611be857600080fd5b611b68888289016117ae565b81835281816020850137506000828201602090810191909152601f909101601f19169091010190565b60018060a01b038716815285602082015260a060408201526000611c4560a083018688611bf4565b60608301949094525060800152949350505050565b60018060a01b0385168152836020820152606060408201526000611c82606083018486611bf4565b9695505050505050565b60208082526023908201527f54696d656c6f636b436f6e74726f6c6c65723a206c656e677468206d69736d616040820152620e8c6d60eb1b606082015260800190565b634e487b7160e01b600052603260045260246000fd5b6000808335601e19843603018112611cfc57600080fd5b8301803591506001600160401b03821115611d1657600080fd5b60200191503681900382131561163f57600080fd5b634e487b7160e01b600052601160045260246000fd5b600060018201611d5357611d53611d2b565b5060010190565b81835260006020808501808196508560051b810191508460005b87811015611dde5782840389528135601e19883603018112611d9557600080fd5b870185810190356001600160401b03811115611db057600080fd5b803603821315611dbf57600080fd5b611dca868284611bf4565b9a87019a9550505090840190600101611d74565b5091979650505050505050565b60a0808252810188905260008960c08301825b8b811015611e2c576001600160a01b03611e17846115e2565b16825260209283019290910190600101611dfe565b5083810360208501528881526001600160fb1b03891115611e4c57600080fd5b8860051b9150818a60208301370182810360209081016040850152611e749082018789611d5a565b60608401959095525050608001529695505050505050565b808201808211156105d1576105d1611d2b565b60005b83811015611eba578181015183820152602001611ea2565b50506000910152565b76020b1b1b2b9b9a1b7b73a3937b61d1030b1b1b7bab73a1604d1b815260008351611ef5816017850160208801611e9f565b7001034b99036b4b9b9b4b733903937b6329607d1b6017918401918201528351611f26816028840160208801611e9f565b01602801949350505050565b6020815260008251806020840152611f51816040850160208701611e9f565b601f01601f19169190910160400192915050565b6020808252602a908201527f54696d656c6f636b436f6e74726f6c6c65723a206f7065726174696f6e206973604082015269206e6f7420726561647960b01b606082015260800190565b8183823760009101908152919050565b6020808252602b908201527f496e697469616c697a61626c653a20636f6e7472616374206973206e6f74206960408201526a6e697469616c697a696e6760a81b606082015260800190565b80820281158282048414176105d1576105d1611d2b565b60008161203057612030611d2b565b50600019019056fec2617efa69bab66782fa219543714338489c4e9e178271560a91b82c3f612b585f58e3a2316349923ce3780f8d587db2d72378aed66a8261c916544fa6846ca5b09aa5aeb3702cfd50b6b62bc4532604938f21248a27a1d5ca736082b6819cc1d8aa0f3194971a2a116679f7c2090f6939c8d4e01a2a8d7e41d55e5351469e634cf4410cc57040e44862ef0f45f3dd5a5e02db8eb8add648d4b0e236f1d07dcafd643c72710c63c0180259aba6b2d05451e3591a24e58b62239378085726f78311c24f4ead16507c69ac467fbd5e4eed5fb5c699626d2cc6d66421df253886d5a2646970667358221220cf75049c603729fd703c3cf257b36d7512485a488e7fb141aa19ab92da8b25fb64736f6c63430008110033",
  "devdoc": {
    "kind": "dev",
    "methods": {
      "cancel(bytes32)": {
        "details": "Cancel an operation. Requirements: - the caller must have the 'canceller' role."
      },
      "execute(address,uint256,bytes,bytes32,bytes32)": {
        "details": "Execute an (ready) operation containing a single transaction. Emits a {CallExecuted} event. Requirements: - the caller must have the 'executor' role."
      },
      "executeBatch(address[],uint256[],bytes[],bytes32,bytes32)": {
        "details": "Execute an (ready) operation containing a batch of transactions. Emits one {CallExecuted} event per transaction in the batch. Requirements: - the caller must have the 'executor' role."
      },
      "getMinDelay()": {
        "details": "Returns the minimum delay for an operation to become valid. This value can be changed by executing an operation that calls `updateDelay`."
      },
      "getRoleAdmin(bytes32)": {
        "details": "Returns the admin role that controls `role`. See {grantRole} and {revokeRole}. To change a role's admin, use {_setRoleAdmin}."
      },
      "getTimestamp(bytes32)": {
        "details": "Returns the timestamp at with an operation becomes ready (0 for unset operations, 1 for done operations)."
      },
      "grantRole(bytes32,address)": {
        "details": "Grants `role` to `account`. If `account` had not been already granted `role`, emits a {RoleGranted} event. Requirements: - the caller must have ``role``'s admin role. May emit a {RoleGranted} event."
      },
      "hasRole(bytes32,address)": {
        "details": "Returns `true` if `account` has been granted `role`."
      },
      "hashOperation(address,uint256,bytes,bytes32,bytes32)": {
        "details": "Returns the identifier of an operation containing a single transaction."
      },
      "hashOperationBatch(address[],uint256[],bytes[],bytes32,bytes32)": {
        "details": "Returns the identifier of an operation containing a batch of transactions."
      },
      "isOperation(bytes32)": {
        "details": "Returns whether an id correspond to a registered operation. This includes both Pending, Ready and Done operations."
      },
      "isOperationDone(bytes32)": {
        "details": "Returns whether an operation is done or not."
      },
      "isOperationPending(bytes32)": {
        "details": "Returns whether an operation is pending or not."
      },
      "isOperationReady(bytes32)": {
        "details": "Returns whether an operation is ready or not."
      },
      "onERC1155BatchReceived(address,address,uint256[],uint256[],bytes)": {
        "details": "See {IERC1155Receiver-onERC1155BatchReceived}."
      },
      "onERC1155Received(address,address,uint256,uint256,bytes)": {
        "details": "See {IERC1155Receiver-onERC1155Received}."
      },
      "onERC721Received(address,address,uint256,bytes)": {
        "details": "See {IERC721Receiver-onERC721Received}."
      },
      "renounceRole(bytes32,address)": {
        "details": "Revokes `role` from the calling account. Roles are often managed via {grantRole} and {revokeRole}: this function's purpose is to provide a mechanism for accounts to lose their privileges if they are compromised (such as when a trusted device is misplaced). If the calling account had been revoked `role`, emits a {RoleRevoked} event. Requirements: - the caller must be `account`. May emit a {RoleRevoked} event."
      },
      "revokeRole(bytes32,address)": {
        "details": "Revokes `role` from `account`. If `account` had been granted `role`, emits a {RoleRevoked} event. Requirements: - the caller must have ``role``'s admin role. May emit a {RoleRevoked} event."
      },
      "schedule(address,uint256,bytes,bytes32,bytes32,uint256)": {
        "details": "Schedule an operation containing a single transaction. Emits a {CallScheduled} event. Requirements: - the caller must have the 'proposer' role."
      },
      "scheduleBatch(address[],uint256[],bytes[],bytes32,bytes32,uint256)": {
        "details": "Schedule an operation containing a batch of transactions. Emits one {CallScheduled} event per transaction in the batch. Requirements: - the caller must have the 'proposer' role."
      },
      "supportsInterface(bytes4)": {
        "details": "See {IERC165-supportsInterface}."
      },
      "updateDelay(uint256)": {
        "details": "Changes the minimum timelock duration for future operations. Emits a {MinDelayChange} event. Requirements: - the caller must be the timelock itself. This can only be achieved by scheduling and later executing an operation where the timelock is the target and the data is the ABI-encoded call to this function."
      }
    },
    "version": 1
  },
  "userdoc": {
    "kind": "user",
    "methods": {},
    "version": 1
  },
  "storageLayout": {
    "storage": [
      {
        "astId": 1950,
        "contract": "contracts/Timelock.sol:Timelock",
        "label": "_initialized",
        "offset": 0,
        "slot": "0",
        "type": "t_uint8"
      },
      {
        "astId": 1953,
        "contract": "contracts/Timelock.sol:Timelock",
        "label": "_initializing",
        "offset": 1,
        "slot": "0",
        "type": "t_bool"
      },
      {
        "astId": 4582,
        "contract": "contracts/Timelock.sol:Timelock",
        "label": "__gap",
        "offset": 0,
        "slot": "1",
        "type": "t_array(t_uint256)50_storage"
      },
      {
        "astId": 5526,
        "contract": "contracts/Timelock.sol:Timelock",
        "label": "__gap",
        "offset": 0,
        "slot": "51",
        "type": "t_array(t_uint256)50_storage"
      },
      {
        "astId": 39,
        "contract": "contracts/Timelock.sol:Timelock",
        "label": "_roles",
        "offset": 0,
        "slot": "101",
        "type": "t_mapping(t_bytes32,t_struct(RoleData)34_storage)"
      },
      {
        "astId": 334,
        "contract": "contracts/Timelock.sol:Timelock",
        "label": "__gap",
        "offset": 0,
        "slot": "102",
        "type": "t_array(t_uint256)49_storage"
      },
      {
        "astId": 903,
        "contract": "contracts/Timelock.sol:Timelock",
        "label": "_timestamps",
        "offset": 0,
        "slot": "151",
        "type": "t_mapping(t_bytes32,t_uint256)"
      },
      {
        "astId": 905,
        "contract": "contracts/Timelock.sol:Timelock",
        "label": "_minDelay",
        "offset": 0,
        "slot": "152",
        "type": "t_uint256"
      },
      {
        "astId": 1803,
        "contract": "contracts/Timelock.sol:Timelock",
        "label": "__gap",
        "offset": 0,
        "slot": "153",
        "type": "t_array(t_uint256)48_storage"
      }
    ],
    "types": {
      "t_address": {
        "encoding": "inplace",
        "label": "address",
        "numberOfBytes": "20"
      },
      "t_array(t_uint256)48_storage": {
        "base": "t_uint256",
        "encoding": "inplace",
        "label": "uint256[48]",
        "numberOfBytes": "1536"
      },
      "t_array(t_uint256)49_storage": {
        "base": "t_uint256",
        "encoding": "inplace",
        "label": "uint256[49]",
        "numberOfBytes": "1568"
      },
      "t_array(t_uint256)50_storage": {
        "base": "t_uint256",
        "encoding": "inplace",
        "label": "uint256[50]",
        "numberOfBytes": "1600"
      },
      "t_bool": {
        "encoding": "inplace",
        "label": "bool",
        "numberOfBytes": "1"
      },
      "t_bytes32": {
        "encoding": "inplace",
        "label": "bytes32",
        "numberOfBytes": "32"
      },
      "t_mapping(t_address,t_bool)": {
        "encoding": "mapping",
        "key": "t_address",
        "label": "mapping(address => bool)",
        "numberOfBytes": "32",
        "value": "t_bool"
      },
      "t_mapping(t_bytes32,t_struct(RoleData)34_storage)": {
        "encoding": "mapping",
        "key": "t_bytes32",
        "label": "mapping(bytes32 => struct AccessControlUpgradeable.RoleData)",
        "numberOfBytes": "32",
        "value": "t_struct(RoleData)34_storage"
      },
      "t_mapping(t_bytes32,t_uint256)": {
        "encoding": "mapping",
        "key": "t_bytes32",
        "label": "mapping(bytes32 => uint256)",
        "numberOfBytes": "32",
        "value": "t_uint256"
      },
      "t_struct(RoleData)34_storage": {
        "encoding": "inplace",
        "label": "struct AccessControlUpgradeable.RoleData",
        "members": [
          {
            "astId": 31,
            "contract": "contracts/Timelock.sol:Timelock",
            "label": "members",
            "offset": 0,
            "slot": "0",
            "type": "t_mapping(t_address,t_bool)"
          },
          {
            "astId": 33,
            "contract": "contracts/Timelock.sol:Timelock",
            "label": "adminRole",
            "offset": 0,
            "slot": "1",
            "type": "t_bytes32"
          }
        ],
        "numberOfBytes": "64"
      },
      "t_uint256": {
        "encoding": "inplace",
        "label": "uint256",
        "numberOfBytes": "32"
      },
      "t_uint8": {
        "encoding": "inplace",
        "label": "uint8",
        "numberOfBytes": "1"
      }
    }
  }
}