{
  "address": "0x9C68E0Dbe3d816e229F12713B859ED34027fa04C",
  "abi": [
    {
      "anonymous": false,
      "inputs": [
        {
          "indexed": true,
          "internalType": "address",
          "name": "account",
          "type": "address"
        },
        {
          "indexed": false,
          "internalType": "uint256",
          "name": "amount",
          "type": "uint256"
        }
      ],
      "name": "AcceptPayment",
      "type": "event"
    },
    {
      "anonymous": false,
      "inputs": [
        {
          "indexed": true,
          "internalType": "address",
          "name": "account",
          "type": "address"
        },
        {
          "indexed": false,
          "internalType": "uint256",
          "name": "amount",
          "type": "uint256"
        }
      ],
      "name": "IncreaseAllowance",
      "type": "event"
    },
    {
      "anonymous": false,
      "inputs": [
        {
          "indexed": false,
          "internalType": "uint8",
          "name": "version",
          "type": "uint8"
        }
      ],
      "name": "Initialized",
      "type": "event"
    },
    {
      "anonymous": false,
      "inputs": [
        {
          "indexed": true,
          "internalType": "address",
          "name": "previousOwner",
          "type": "address"
        },
        {
          "indexed": true,
          "internalType": "address",
          "name": "newOwner",
          "type": "address"
        }
      ],
      "name": "OwnershipTransferred",
      "type": "event"
    },
    {
      "anonymous": false,
      "inputs": [
        {
          "indexed": true,
          "internalType": "address",
          "name": "account",
          "type": "address"
        },
        {
          "indexed": false,
          "internalType": "uint256",
          "name": "amount",
          "type": "uint256"
        }
      ],
      "name": "WithdrawFunds",
      "type": "event"
    },
    {
      "inputs": [
        {
          "internalType": "address",
          "name": "_adr",
          "type": "address"
        }
      ],
      "name": "addKnownSender",
      "outputs": [],
      "stateMutability": "nonpayable",
      "type": "function"
    },
    {
      "inputs": [
        {
          "internalType": "address",
          "name": "",
          "type": "address"
        }
      ],
      "name": "allowance",
      "outputs": [
        {
          "internalType": "uint256",
          "name": "",
          "type": "uint256"
        }
      ],
      "stateMutability": "view",
      "type": "function"
    },
    {
      "inputs": [
        {
          "internalType": "address",
          "name": "_adr",
          "type": "address"
        },
        {
          "internalType": "uint256",
          "name": "_amount",
          "type": "uint256"
        }
      ],
      "name": "increaseAllowance",
      "outputs": [
        {
          "internalType": "bool",
          "name": "",
          "type": "bool"
        }
      ],
      "stateMutability": "nonpayable",
      "type": "function"
    },
    {
      "inputs": [
        {
          "internalType": "address",
          "name": "",
          "type": "address"
        }
      ],
      "name": "individualContribution",
      "outputs": [
        {
          "internalType": "uint256",
          "name": "",
          "type": "uint256"
        }
      ],
      "stateMutability": "view",
      "type": "function"
    },
    {
      "inputs": [],
      "name": "initialize",
      "outputs": [],
      "stateMutability": "nonpayable",
      "type": "function"
    },
    {
      "inputs": [
        {
          "internalType": "address",
          "name": "_adr",
          "type": "address"
        }
      ],
      "name": "isKnownSender",
      "outputs": [
        {
          "internalType": "bool",
          "name": "",
          "type": "bool"
        }
      ],
      "stateMutability": "view",
      "type": "function"
    },
    {
      "inputs": [
        {
          "internalType": "address payable",
          "name": "liquidator",
          "type": "address"
        }
      ],
      "name": "liquidate",
      "outputs": [],
      "stateMutability": "nonpayable",
      "type": "function"
    },
    {
      "inputs": [],
      "name": "owner",
      "outputs": [
        {
          "internalType": "address",
          "name": "",
          "type": "address"
        }
      ],
      "stateMutability": "view",
      "type": "function"
    },
    {
      "inputs": [
        {
          "internalType": "address",
          "name": "_adr",
          "type": "address"
        }
      ],
      "name": "payContribution",
      "outputs": [
        {
          "internalType": "bool",
          "name": "",
          "type": "bool"
        }
      ],
      "stateMutability": "payable",
      "type": "function"
    },
    {
      "inputs": [
        {
          "internalType": "address",
          "name": "_adr",
          "type": "address"
        }
      ],
      "name": "removeKnownSender",
      "outputs": [],
      "stateMutability": "nonpayable",
      "type": "function"
    },
    {
      "inputs": [],
      "name": "renounceOwnership",
      "outputs": [],
      "stateMutability": "nonpayable",
      "type": "function"
    },
    {
      "inputs": [],
      "name": "totalAllowance",
      "outputs": [
        {
          "internalType": "uint256",
          "name": "",
          "type": "uint256"
        }
      ],
      "stateMutability": "view",
      "type": "function"
    },
    {
      "inputs": [],
      "name": "totalBalance",
      "outputs": [
        {
          "internalType": "uint256",
          "name": "",
          "type": "uint256"
        }
      ],
      "stateMutability": "view",
      "type": "function"
    },
    {
      "inputs": [
        {
          "internalType": "address",
          "name": "newOwner",
          "type": "address"
        }
      ],
      "name": "transferOwnership",
      "outputs": [],
      "stateMutability": "nonpayable",
      "type": "function"
    },
    {
      "inputs": [
        {
          "internalType": "address payable",
          "name": "_adr",
          "type": "address"
        }
      ],
      "name": "withdrawMoney",
      "outputs": [
        {
          "internalType": "bool",
          "name": "",
          "type": "bool"
        }
      ],
      "stateMutability": "nonpayable",
      "type": "function"
    },
    {
      "inputs": [
        {
          "internalType": "address",
          "name": "",
          "type": "address"
        }
      ],
      "name": "withdrawingAllowance",
      "outputs": [
        {
          "internalType": "uint256",
          "name": "",
          "type": "uint256"
        }
      ],
      "stateMutability": "view",
      "type": "function"
    },
    {
      "stateMutability": "payable",
      "type": "receive"
    }
  ],
  "transactionHash": "0x9334070379e7e43277fef471e44537c97b58cdc75e33e352ad0ac92ab16046d1",
  "args": [],
  "numDeployments": 1,
  "solcInputHash": "5e7ead6f489ba1541e29a5c0da5dc006",
  "bytecode": "0x608060405234801561001057600080fd5b50610dd3806100206000396000f3fe6080604052600436106100c75760003560e01c806326e3208d146101315780632e120f1a1461015a5780632f865568146101875780632f971029146101a9578063355579bb146101d957806339509351146102065780633e5beab9146102265780636a2564f514610253578063710d5b1414610273578063715018a6146102865780638129fc1c1461029b5780638da5cb5b146102b0578063ad7a672f146102dd578063b1ebd31a146102f3578063f2fde38b14610313578063fe43fcd51461033357600080fd5b3661012c5734606560008282546100de9190610c41565b90915550503360009081526069602052604081208054349290610102908490610c41565b90915550506040513481523390600080516020610d5e8339815191529060200160405180910390a2005b600080fd5b34801561013d57600080fd5b5061014760665481565b6040519081526020015b60405180910390f35b34801561016657600080fd5b50610147610175366004610c69565b606b6020526000908152604090205481565b34801561019357600080fd5b506101a76101a2366004610c69565b610353565b005b3480156101b557600080fd5b506101c96101c4366004610c69565b6103e2565b6040519015158152602001610151565b3480156101e557600080fd5b506101476101f4366004610c69565b60696020526000908152604090205481565b34801561021257600080fd5b506101c9610221366004610c8d565b61055c565b34801561023257600080fd5b50610147610241366004610c69565b606a6020526000908152604090205481565b34801561025f57600080fd5b506101a761026e366004610c69565b61064c565b6101c9610281366004610c69565b6106c7565b34801561029257600080fd5b506101a761078a565b3480156102a757600080fd5b506101a761079e565b3480156102bc57600080fd5b506102c56108bc565b6040516001600160a01b039091168152602001610151565b3480156102e957600080fd5b5061014760655481565b3480156102ff57600080fd5b506101a761030e366004610c69565b6108cb565b34801561031f57600080fd5b506101a761032e366004610c69565b610a42565b34801561033f57600080fd5b506101c961034e366004610c69565b610ab8565b61035b610b20565b600060665460655461036d9190610cb9565b905080156103de576040516001600160a01b0383169082156108fc029083906000818181858888f193505050501580156103ab573d6000803e3d6000fd5b50816001600160a01b0316600080516020610d7e833981519152826040516103d591815260200190565b60405180910390a25b5050565b6001600160a01b0381166000908152606a602052604081205461044c5760405162461bcd60e51b815260206004820152601e60248201527f4e6f20616c6c6f77616e636520666f722074686973206163636f756e7421000060448201526064015b60405180910390fd5b6001600160a01b0382166000908152606a602052604081208054918291906104748380610cb9565b90915550506001600160a01b0383166000908152606b602052604081205460668054919290916104a5908490610cb9565b90915550506001600160a01b0383166000908152606b602052604081205460658054919290916104d6908490610cb9565b90915550506001600160a01b0383166000818152606b60205260408082208290555183156108fc0291849190818181858888f1935050505015801561051f573d6000803e3d6000fd5b50826001600160a01b0316600080516020610d7e83398151915260665460405161054b91815260200190565b60405180910390a250600192915050565b6000610566610b20565b606554826066546105779190610c41565b11156105c55760405162461bcd60e51b815260206004820152601d60248201527f4b65657020616c6c6f77616e63652062656c6f772062616c616e6365210000006044820152606401610443565b6001600160a01b0383166000908152606a6020526040812080548492906105ed908490610c41565b9250508190555081606660008282546106069190610c41565b90915550506040518281526001600160a01b038416907f1963a693ddda4fee90496c8d6e75801d1f9410eadbc74d4622dda2ec1c279dd99060200161054b565b92915050565b610654610b20565b61065d81610ab8565b15156000036106c4576068805460018101825560009182527fa2153420d844928b4421650203c77babc8b33d7f2e7b450e2966db0c220977530180546001600160a01b0319166001600160a01b03841617905560678054916106be83610ccc565b91905055505b50565b60006106d233610ab8565b15156001146107185760405162461bcd60e51b81526020600482015260126024820152716f6e6c79206b6e6f776e2073656e6465727360701b6044820152606401610443565b6000349050806065600082825461072f9190610c41565b90915550506001600160a01b0383166000908152606960205260408120805483929061075c908490610c41565b90915550506040518181526001600160a01b03841690600080516020610d5e8339815191529060200161054b565b610792610b20565b61079c6000610b7f565b565b600054610100900460ff16158080156107be5750600054600160ff909116105b806107d85750303b1580156107d8575060005460ff166001145b61083b5760405162461bcd60e51b815260206004820152602e60248201527f496e697469616c697a61626c653a20636f6e747261637420697320616c72656160448201526d191e481a5b9a5d1a585b1a5e995960921b6064820152608401610443565b6000805460ff19166001179055801561085e576000805461ff0019166101001790555b610866610bd1565b61086f3361064c565b600160675580156106c4576000805461ff0019169055604051600181527f7f26b83ff96e1f2b6a682f133852f6798a09c465da95921460cefb38474024989060200160405180910390a150565b6033546001600160a01b031690565b6108d3610b20565b6108db6108bc565b6001600160a01b0316816001600160a01b0316036109365760405162461bcd60e51b81526020600482015260186024820152774f776e65722063616e6e6f742062652072656d6f7665642160401b6044820152606401610443565b60005b60016067546109489190610cb9565b81101561099857816001600160a01b03166068828154811061096c5761096c610ce5565b6000918252602090912001546001600160a01b031614610998578061099081610ccc565b915050610939565b60016067546109a79190610cb9565b8114610a2957606860016067546109be9190610cb9565b815481106109ce576109ce610ce5565b600091825260209091200154606880546001600160a01b0390921691839081106109fa576109fa610ce5565b9060005260206000200160006101000a8154816001600160a01b0302191690836001600160a01b031602179055505b60678054906000610a3983610cfb565b91905055505050565b610a4a610b20565b6001600160a01b038116610aaf5760405162461bcd60e51b815260206004820152602660248201527f4f776e61626c653a206e6577206f776e657220697320746865207a65726f206160448201526564647265737360d01b6064820152608401610443565b6106c481610b7f565b600080805b606754811015610b1957836001600160a01b031660688281548110610ae457610ae4610ce5565b6000918252602090912001546001600160a01b031603610b075760019150610b19565b80610b1181610ccc565b915050610abd565b5092915050565b33610b296108bc565b6001600160a01b03161461079c5760405162461bcd60e51b815260206004820181905260248201527f4f776e61626c653a2063616c6c6572206973206e6f7420746865206f776e65726044820152606401610443565b603380546001600160a01b038381166001600160a01b0319831681179093556040519116919082907f8be0079c531659141344cd1fd0a4f28419497f9722a3daafe3b4186f6b6457e090600090a35050565b600054610100900460ff16610bf85760405162461bcd60e51b815260040161044390610d12565b61079c600054610100900460ff16610c225760405162461bcd60e51b815260040161044390610d12565b61079c33610b7f565b634e487b7160e01b600052601160045260246000fd5b8082018082111561064657610646610c2b565b6001600160a01b03811681146106c457600080fd5b600060208284031215610c7b57600080fd5b8135610c8681610c54565b9392505050565b60008060408385031215610ca057600080fd5b8235610cab81610c54565b946020939093013593505050565b8181038181111561064657610646610c2b565b600060018201610cde57610cde610c2b565b5060010190565b634e487b7160e01b600052603260045260246000fd5b600081610d0a57610d0a610c2b565b506000190190565b6020808252602b908201527f496e697469616c697a61626c653a20636f6e7472616374206973206e6f74206960408201526a6e697469616c697a696e6760a81b60608201526080019056fee41227c57faba37cbd6b48ea41ba1af39a8cd14f293f1ed46b3837546deb84a021901fa892c430ea8bd38b9390225ac8e67eac75ee10ffba16feefc539a288f9a2646970667358221220a8f72a3b2dea52a09535fd99381fcd5b5d417052c70916f1be9852e06c78c25b64736f6c63430008110033",
  "devdoc": {
    "kind": "dev",
    "methods": {
      "owner()": {
        "details": "Returns the address of the current owner."
      },
      "renounceOwnership()": {
        "details": "Leaves the contract without owner. It will not be possible to call `onlyOwner` functions anymore. Can only be called by the current owner. NOTE: Renouncing ownership will leave the contract without an owner, thereby removing any functionality that is only available to the owner."
      },
      "transferOwnership(address)": {
        "details": "Transfers ownership of the contract to a new account (`newOwner`). Can only be called by the current owner."
      }
    },
    "version": 1
  },
  "userdoc": {
    "kind": "user",
    "methods": {},
    "version": 1
  },
  "storageLayout": {
    "storage": [
      {
        "astId": 1950,
        "contract": "contracts/Wallet.sol:Wallet",
        "label": "_initialized",
        "offset": 0,
        "slot": "0",
        "type": "t_uint8"
      },
      {
        "astId": 1953,
        "contract": "contracts/Wallet.sol:Wallet",
        "label": "_initializing",
        "offset": 1,
        "slot": "0",
        "type": "t_bool"
      },
      {
        "astId": 4582,
        "contract": "contracts/Wallet.sol:Wallet",
        "label": "__gap",
        "offset": 0,
        "slot": "1",
        "type": "t_array(t_uint256)50_storage"
      },
      {
        "astId": 419,
        "contract": "contracts/Wallet.sol:Wallet",
        "label": "_owner",
        "offset": 0,
        "slot": "51",
        "type": "t_address"
      },
      {
        "astId": 539,
        "contract": "contracts/Wallet.sol:Wallet",
        "label": "__gap",
        "offset": 0,
        "slot": "52",
        "type": "t_array(t_uint256)49_storage"
      },
      {
        "astId": 10937,
        "contract": "contracts/Wallet.sol:Wallet",
        "label": "totalBalance",
        "offset": 0,
        "slot": "101",
        "type": "t_uint256"
      },
      {
        "astId": 10939,
        "contract": "contracts/Wallet.sol:Wallet",
        "label": "totalAllowance",
        "offset": 0,
        "slot": "102",
        "type": "t_uint256"
      },
      {
        "astId": 10941,
        "contract": "contracts/Wallet.sol:Wallet",
        "label": "_knownSenderLength",
        "offset": 0,
        "slot": "103",
        "type": "t_uint256"
      },
      {
        "astId": 10944,
        "contract": "contracts/Wallet.sol:Wallet",
        "label": "_knownSender",
        "offset": 0,
        "slot": "104",
        "type": "t_array(t_address)dyn_storage"
      },
      {
        "astId": 10948,
        "contract": "contracts/Wallet.sol:Wallet",
        "label": "individualContribution",
        "offset": 0,
        "slot": "105",
        "type": "t_mapping(t_address,t_uint256)"
      },
      {
        "astId": 10952,
        "contract": "contracts/Wallet.sol:Wallet",
        "label": "allowance",
        "offset": 0,
        "slot": "106",
        "type": "t_mapping(t_address,t_uint256)"
      },
      {
        "astId": 10956,
        "contract": "contracts/Wallet.sol:Wallet",
        "label": "withdrawingAllowance",
        "offset": 0,
        "slot": "107",
        "type": "t_mapping(t_address,t_uint256)"
      }
    ],
    "types": {
      "t_address": {
        "encoding": "inplace",
        "label": "address",
        "numberOfBytes": "20"
      },
      "t_array(t_address)dyn_storage": {
        "base": "t_address",
        "encoding": "dynamic_array",
        "label": "address[]",
        "numberOfBytes": "32"
      },
      "t_array(t_uint256)49_storage": {
        "base": "t_uint256",
        "encoding": "inplace",
        "label": "uint256[49]",
        "numberOfBytes": "1568"
      },
      "t_array(t_uint256)50_storage": {
        "base": "t_uint256",
        "encoding": "inplace",
        "label": "uint256[50]",
        "numberOfBytes": "1600"
      },
      "t_bool": {
        "encoding": "inplace",
        "label": "bool",
        "numberOfBytes": "1"
      },
      "t_mapping(t_address,t_uint256)": {
        "encoding": "mapping",
        "key": "t_address",
        "label": "mapping(address => uint256)",
        "numberOfBytes": "32",
        "value": "t_uint256"
      },
      "t_uint256": {
        "encoding": "inplace",
        "label": "uint256",
        "numberOfBytes": "32"
      },
      "t_uint8": {
        "encoding": "inplace",
        "label": "uint8",
        "numberOfBytes": "1"
      }
    }
  }
}